{"abi":[{"type":"function","name":"latestRate","inputs":[],"outputs":[{"name":"price","type":"uint256","internalType":"uint256"}],"stateMutability":"view"},{"type":"function","name":"owner","inputs":[],"outputs":[{"name":"","type":"address","internalType":"address"}],"stateMutability":"view"},{"type":"function","name":"rate","inputs":[],"outputs":[{"name":"","type":"uint256","internalType":"uint256"}],"stateMutability":"view"},{"type":"function","name":"renounceOwnership","inputs":[],"outputs":[],"stateMutability":"nonpayable"},{"type":"function","name":"roundId","inputs":[],"outputs":[{"name":"","type":"uint256","internalType":"uint256"}],"stateMutability":"view"},{"type":"function","name":"setLatestRate","inputs":[{"name":"newRate","type":"uint256","internalType":"uint256"}],"outputs":[],"stateMutability":"nonpayable"},{"type":"function","name":"transferOwnership","inputs":[{"name":"newOwner","type":"address","internalType":"address"}],"outputs":[],"stateMutability":"nonpayable"},{"type":"event","name":"AnswerUpdated","inputs":[{"name":"current","type":"int256","indexed":true,"internalType":"int256"},{"name":"roundId","type":"uint256","indexed":true,"internalType":"uint256"},{"name":"updatedAt","type":"uint256","indexed":false,"internalType":"uint256"}],"anonymous":false},{"type":"event","name":"OwnershipTransferred","inputs":[{"name":"previousOwner","type":"address","indexed":true,"internalType":"address"},{"name":"newOwner","type":"address","indexed":true,"internalType":"address"}],"anonymous":false}],"bytecode":{"object":"0x608060405234801561001057600080fd5b5061001a3361001f565b61006f565b600080546001600160a01b038381166001600160a01b0319831681178455604051919092169283917f8be0079c531659141344cd1fd0a4f28419497f9722a3daafe3b4186f6b6457e09190a35050565b6103b08061007e6000396000f3fe608060405234801561001057600080fd5b506004361061007d5760003560e01c80638cd221c91161005b5780638cd221c9146100bb5780638da5cb5b146100c45780639ef4ca08146100df578063f2fde38b146100e757600080fd5b80632c4e722e146100825780632da1fd631461009e578063715018a6146100b3575b600080fd5b61008b60015481565b6040519081526020015b60405180910390f35b6100b16100ac36600461030b565b6100fa565b005b6100b1610161565b61008b60025481565b6000546040516001600160a01b039091168152602001610095565b60015461008b565b6100b16100f5366004610324565b610175565b6101026101f3565b60018190556002546101138261024d565b6040514281527f0559884fd3a460db3073b7fc896cc77986f16e378210ded43186175bf646fc5f9060200160405180910390a36001600260008282546101599190610354565b909155505050565b6101696101f3565b61017360006102bb565b565b61017d6101f3565b6001600160a01b0381166101e75760405162461bcd60e51b815260206004820152602660248201527f4f776e61626c653a206e6577206f776e657220697320746865207a65726f206160448201526564647265737360d01b60648201526084015b60405180910390fd5b6101f0816102bb565b50565b6000546001600160a01b031633146101735760405162461bcd60e51b815260206004820181905260248201527f4f776e61626c653a2063616c6c6572206973206e6f7420746865206f776e657260448201526064016101de565b60006001600160ff1b038211156102b75760405162461bcd60e51b815260206004820152602860248201527f53616665436173743a2076616c756520646f65736e27742066697420696e2061604482015267371034b73a191a9b60c11b60648201526084016101de565b5090565b600080546001600160a01b038381166001600160a01b0319831681178455604051919092169283917f8be0079c531659141344cd1fd0a4f28419497f9722a3daafe3b4186f6b6457e09190a35050565b60006020828403121561031d57600080fd5b5035919050565b60006020828403121561033657600080fd5b81356001600160a01b038116811461034d57600080fd5b9392505050565b6000821982111561037557634e487b7160e01b600052601160045260246000fd5b50019056fea2646970667358221220e4f87cb466f1c141f4bd2ba0e6cefd5d412100a3b58082f81ee2e5ef52e129bc64736f6c63430008090033","linkReferences":{}},"methodIdentifiers":{"latestRate()":"9ef4ca08","owner()":"8da5cb5b","rate()":"2c4e722e","renounceOwnership()":"715018a6","roundId()":"8cd221c9","setLatestRate(uint256)":"2da1fd63","transferOwnership(address)":"f2fde38b"},"id":34}