{"abi":[{"type":"function","name":"batchTransfer","inputs":[{"name":"token","type":"address","internalType":"address"},{"name":"receivers","type":"address[]","internalType":"address[]"},{"name":"amounts","type":"uint256[]","internalType":"uint256[]"}],"outputs":[],"stateMutability":"nonpayable"},{"type":"function","name":"owner","inputs":[],"outputs":[{"name":"","type":"address","internalType":"address"}],"stateMutability":"view"},{"type":"function","name":"renounceOwnership","inputs":[],"outputs":[],"stateMutability":"nonpayable"},{"type":"function","name":"transferOwnership","inputs":[{"name":"newOwner","type":"address","internalType":"address"}],"outputs":[],"stateMutability":"nonpayable"},{"type":"event","name":"OwnershipTransferred","inputs":[{"name":"previousOwner","type":"address","indexed":true,"internalType":"address"},{"name":"newOwner","type":"address","indexed":true,"internalType":"address"}],"anonymous":false}],"bytecode":{"object":"0x608060405234801561001057600080fd5b5061001a3361001f565b61006f565b600080546001600160a01b038381166001600160a01b0319831681178455604051919092169283917f8be0079c531659141344cd1fd0a4f28419497f9722a3daafe3b4186f6b6457e09190a35050565b61084e8061007e6000396000f3fe608060405234801561001057600080fd5b506004361061004c5760003560e01c80631239ec8c14610051578063715018a6146100665780638da5cb5b1461006e578063f2fde38b1461008d575b600080fd5b61006461005f366004610648565b6100a0565b005b610064610169565b600054604080516001600160a01b039092168252519081900360200190f35b61006461009b36600461071a565b61017d565b6100a86101f6565b80518251146100f55760405162461bcd60e51b8152602060048201526014602482015273141054905357d3115391d51217d253959053125160621b60448201526064015b60405180910390fd5b60005b8251811015610163576101518382815181106101165761011661073c565b60200260200101518383815181106101305761013061073c565b6020026020010151866001600160a01b03166102509092919063ffffffff16565b8061015b81610752565b9150506100f8565b50505050565b6101716101f6565b61017b60006102a7565b565b6101856101f6565b6001600160a01b0381166101ea5760405162461bcd60e51b815260206004820152602660248201527f4f776e61626c653a206e6577206f776e657220697320746865207a65726f206160448201526564647265737360d01b60648201526084016100ec565b6101f3816102a7565b50565b6000546001600160a01b0316331461017b5760405162461bcd60e51b815260206004820181905260248201527f4f776e61626c653a2063616c6c6572206973206e6f7420746865206f776e657260448201526064016100ec565b604080516001600160a01b038416602482015260448082018490528251808303909101815260649091019091526020810180516001600160e01b031663a9059cbb60e01b1790526102a29084906102f7565b505050565b600080546001600160a01b038381166001600160a01b0319831681178455604051919092169283917f8be0079c531659141344cd1fd0a4f28419497f9722a3daafe3b4186f6b6457e09190a35050565b600061034c826040518060400160405280602081526020017f5361666545524332303a206c6f772d6c6576656c2063616c6c206661696c6564815250856001600160a01b03166103c99092919063ffffffff16565b8051909150156102a2578080602001905181019061036a919061077b565b6102a25760405162461bcd60e51b815260206004820152602a60248201527f5361666545524332303a204552433230206f7065726174696f6e20646964206e6044820152691bdd081cdd58d8d9595960b21b60648201526084016100ec565b60606103d884846000856103e0565b949350505050565b6060824710156104415760405162461bcd60e51b815260206004820152602660248201527f416464726573733a20696e73756666696369656e742062616c616e636520666f6044820152651c8818d85b1b60d21b60648201526084016100ec565b600080866001600160a01b0316858760405161045d91906107c9565b60006040518083038185875af1925050503d806000811461049a576040519150601f19603f3d011682016040523d82523d6000602084013e61049f565b606091505b50915091506104b0878383876104bb565b979650505050505050565b60608315610527578251610520576001600160a01b0385163b6105205760405162461bcd60e51b815260206004820152601d60248201527f416464726573733a2063616c6c20746f206e6f6e2d636f6e747261637400000060448201526064016100ec565b50816103d8565b6103d8838381511561053c5781518083602001fd5b8060405162461bcd60e51b81526004016100ec91906107e5565b80356001600160a01b038116811461056d57600080fd5b919050565b634e487b7160e01b600052604160045260246000fd5b604051601f8201601f1916810167ffffffffffffffff811182821017156105b1576105b1610572565b604052919050565b600067ffffffffffffffff8211156105d3576105d3610572565b5060051b60200190565b600082601f8301126105ee57600080fd5b813560206106036105fe836105b9565b610588565b82815260059290921b8401810191818101908684111561062257600080fd5b8286015b8481101561063d5780358352918301918301610626565b509695505050505050565b60008060006060848603121561065d57600080fd5b61066684610556565b925060208085013567ffffffffffffffff8082111561068457600080fd5b818701915087601f83011261069857600080fd5b81356106a66105fe826105b9565b81815260059190911b8301840190848101908a8311156106c557600080fd5b938501935b828510156106ea576106db85610556565b825293850193908501906106ca565b96505050604087013592508083111561070257600080fd5b5050610710868287016105dd565b9150509250925092565b60006020828403121561072c57600080fd5b61073582610556565b9392505050565b634e487b7160e01b600052603260045260246000fd5b600060001982141561077457634e487b7160e01b600052601160045260246000fd5b5060010190565b60006020828403121561078d57600080fd5b8151801515811461073557600080fd5b60005b838110156107b85781810151838201526020016107a0565b838111156101635750506000910152565b600082516107db81846020870161079d565b9190910192915050565b602081526000825180602084015261080481604085016020870161079d565b601f01601f1916919091016040019291505056fea2646970667358221220fee76430cde22a9a02bf8977f13c5872ae43a6d221f9ddcc5838dbdfb4c72ed264736f6c63430008090033","linkReferences":{}},"methodIdentifiers":{"batchTransfer(address,address[],uint256[])":"1239ec8c","owner()":"8da5cb5b","renounceOwnership()":"715018a6","transferOwnership(address)":"f2fde38b"},"id":32}