{"abi":[{"type":"constructor","inputs":[{"name":"_chainlink","type":"address","internalType":"address"},{"name":"_decimalsCorrection","type":"uint256","internalType":"uint256"},{"name":"_heartbeatInterval","type":"uint256","internalType":"uint256"},{"name":"_USDCHeartbeat","type":"uint256","internalType":"uint256"},{"name":"_USDCSource","type":"address","internalType":"address"},{"name":"_priceThreshold","type":"uint256","internalType":"uint256"}],"stateMutability":"nonpayable"},{"type":"function","name":"USDCHeartbeat","inputs":[],"outputs":[{"name":"","type":"uint256","internalType":"uint256"}],"stateMutability":"view"},{"type":"function","name":"USDCSource","inputs":[],"outputs":[{"name":"","type":"address","internalType":"address"}],"stateMutability":"view"},{"type":"function","name":"chainlink","inputs":[],"outputs":[{"name":"","type":"address","internalType":"address"}],"stateMutability":"view"},{"type":"function","name":"decimalsCorrection","inputs":[],"outputs":[{"name":"","type":"uint256","internalType":"uint256"}],"stateMutability":"view"},{"type":"function","name":"getChainLinkPrice","inputs":[],"outputs":[{"name":"","type":"uint256","internalType":"uint256"}],"stateMutability":"view"},{"type":"function","name":"getMarkPrice","inputs":[],"outputs":[{"name":"","type":"uint256","internalType":"uint256"}],"stateMutability":"view"},{"type":"function","name":"heartbeatInterval","inputs":[],"outputs":[{"name":"","type":"uint256","internalType":"uint256"}],"stateMutability":"view"},{"type":"function","name":"isSelfOracle","inputs":[],"outputs":[{"name":"","type":"bool","internalType":"bool"}],"stateMutability":"view"},{"type":"function","name":"owner","inputs":[],"outputs":[{"name":"","type":"address","internalType":"address"}],"stateMutability":"view"},{"type":"function","name":"price","inputs":[],"outputs":[{"name":"","type":"uint256","internalType":"uint256"}],"stateMutability":"view"},{"type":"function","name":"priceThreshold","inputs":[],"outputs":[{"name":"","type":"uint256","internalType":"uint256"}],"stateMutability":"view"},{"type":"function","name":"renounceOwnership","inputs":[],"outputs":[],"stateMutability":"nonpayable"},{"type":"function","name":"roundId","inputs":[],"outputs":[{"name":"","type":"uint256","internalType":"uint256"}],"stateMutability":"view"},{"type":"function","name":"setMarkPrice","inputs":[{"name":"newPrice","type":"uint256","internalType":"uint256"}],"outputs":[],"stateMutability":"nonpayable"},{"type":"function","name":"transferOwnership","inputs":[{"name":"newOwner","type":"address","internalType":"address"}],"outputs":[],"stateMutability":"nonpayable"},{"type":"function","name":"turnOffJOJOOracle","inputs":[],"outputs":[],"stateMutability":"nonpayable"},{"type":"function","name":"turnOnJOJOOracle","inputs":[],"outputs":[],"stateMutability":"nonpayable"},{"type":"function","name":"updateThreshold","inputs":[{"name":"newPriceThreshold","type":"uint256","internalType":"uint256"}],"outputs":[],"stateMutability":"nonpayable"},{"type":"event","name":"AnswerUpdated","inputs":[{"name":"current","type":"int256","indexed":true,"internalType":"int256"},{"name":"roundId","type":"uint256","indexed":true,"internalType":"uint256"},{"name":"updatedAt","type":"uint256","indexed":false,"internalType":"uint256"}],"anonymous":false},{"type":"event","name":"OwnershipTransferred","inputs":[{"name":"previousOwner","type":"address","indexed":true,"internalType":"address"},{"name":"newOwner","type":"address","indexed":true,"internalType":"address"}],"anonymous":false},{"type":"event","name":"UpdateThreshold","inputs":[{"name":"oldThreshold","type":"uint256","indexed":false,"internalType":"uint256"},{"name":"newThreshold","type":"uint256","indexed":false,"internalType":"uint256"}],"anonymous":false}],"bytecode":{"object":"0x6101206040523480156200001257600080fd5b5060405162000d3a38038062000d3a8339810160408190526200003591620000ef565b620000403362000082565b6001600160a01b0386166080526200005a85600a62000261565b60a05260c09390935260e0919091526001600160a01b03166101005260045550620002769050565b600080546001600160a01b038381166001600160a01b0319831681178455604051919092169283917f8be0079c531659141344cd1fd0a4f28419497f9722a3daafe3b4186f6b6457e09190a35050565b80516001600160a01b0381168114620000ea57600080fd5b919050565b60008060008060008060c087890312156200010957600080fd5b6200011487620000d2565b95506020870151945060408701519350606087015192506200013960808801620000d2565b915060a087015190509295509295509295565b634e487b7160e01b600052601160045260246000fd5b600181815b80851115620001a35781600019048211156200018757620001876200014c565b808516156200019557918102915b93841c939080029062000167565b509250929050565b600082620001bc575060016200025b565b81620001cb575060006200025b565b8160018114620001e45760028114620001ef576200020f565b60019150506200025b565b60ff8411156200020357620002036200014c565b50506001821b6200025b565b5060208310610133831016604e8410600b841016171562000234575081810a6200025b565b62000240838362000162565b80600019048211156200025757620002576200014c565b0290505b92915050565b60006200026f8383620001ab565b9392505050565b60805160a05160c05160e05161010051610a5c620002de6000396000818161016f01526104970152600081816101ff01526105aa015260008181610135015261052f0152600081816101be015261065101526000818161022601526103f20152610a5c6000f3fe608060405234801561001057600080fd5b50600436106101165760003560e01c80639c3feeb7116100a2578063cb35ed3011610071578063cb35ed3014610276578063cc2f60931461027e578063d7d7442f14610287578063f2fde38b1461029a578063f3324955146102ad57600080fd5b80639c3feeb714610221578063a035b1fe14610248578063aecff39514610251578063be790b321461026e57600080fd5b8063715018a6116100e9578063715018a6146101b157806379d4aaac146101b95780638cd221c9146101e05780638da5cb5b146101e95780638ef45aac146101fa57600080fd5b806347cb31671461011b578063561a4fac14610130578063584305d11461016a57806360409632146101a9575b600080fd5b61012e6101293660046108ed565b6102b5565b005b6101577f000000000000000000000000000000000000000000000000000000000000000081565b6040519081526020015b60405180910390f35b6101917f000000000000000000000000000000000000000000000000000000000000000081565b6040516001600160a01b039091168152602001610161565b61015761031b565b61012e6103d7565b6101577f000000000000000000000000000000000000000000000000000000000000000081565b61015760015481565b6000546001600160a01b0316610191565b6101577f000000000000000000000000000000000000000000000000000000000000000081565b6101917f000000000000000000000000000000000000000000000000000000000000000081565b61015760035481565b60025461025e9060ff1681565b6040519015158152602001610161565b6101576103eb565b61012e610696565b61015760045481565b61012e6102953660046108ed565b6106aa565b61012e6102a8366004610906565b6106f3565b61012e61076c565b6102bd610783565b60038190556001546102ce826107dd565b6040514281527f0559884fd3a460db3073b7fc896cc77986f16e378210ded43186175bf646fc5f9060200160405180910390a36001806000828254610313919061094c565b909155505050565b6000806103266103eb565b60025490915060ff16156103d2576003546000828210156103505761034b8284610964565b61035a565b61035a8383610964565b6004549091508361037383670de0b6b3a764000061097b565b61037d919061099a565b11156103c75760405162461bcd60e51b8152602060048201526014602482015273646576696174696f6e20697320746f6f2062696760601b60448201526064015b60405180910390fd5b600354935050505090565b919050565b6103df610783565b6103e9600061084b565b565b60008060007f00000000000000000000000000000000000000000000000000000000000000006001600160a01b031663feaf968c6040518163ffffffff1660e01b815260040160a06040518083038186803b15801561044957600080fd5b505afa15801561045d573d6000803e3d6000fd5b505050506040513d601f19601f8201168201806040525081019061048191906109d6565b90919293509091505080925081935050506000807f00000000000000000000000000000000000000000000000000000000000000006001600160a01b031663feaf968c6040518163ffffffff1660e01b815260040160a06040518083038186803b1580156104ee57600080fd5b505afa158015610502573d6000803e3d6000fd5b505050506040513d601f19601f8201168201806040525081019061052691906109d6565b509350509250507f0000000000000000000000000000000000000000000000000000000000000000834261055a9190610964565b11156105a85760405162461bcd60e51b815260206004820152601760248201527f4f5241434c455f4845415254424541545f4641494c454400000000000000000060448201526064016103be565b7f00000000000000000000000000000000000000000000000000000000000000006105d38242610964565b11156106215760405162461bcd60e51b815260206004820152601c60248201527f555344435f4f5241434c455f4845415254424541545f4641494c45440000000060448201526064016103be565b600061062c8361089b565b6106358661089b565b610643906305f5e10061097b565b61064d919061099a565b90507f000000000000000000000000000000000000000000000000000000000000000061068282670de0b6b3a764000061097b565b61068c919061099a565b9550505050505090565b61069e610783565b6002805460ff19169055565b6106b2610783565b600481905560408051828152602081018390527fe2f0d2b9bd62fe4d997e442d96308c2084de77174fc94e18e14bf473b030f4dd910160405180910390a150565b6106fb610783565b6001600160a01b0381166107605760405162461bcd60e51b815260206004820152602660248201527f4f776e61626c653a206e6577206f776e657220697320746865207a65726f206160448201526564647265737360d01b60648201526084016103be565b6107698161084b565b50565b610774610783565b6002805460ff19166001179055565b6000546001600160a01b031633146103e95760405162461bcd60e51b815260206004820181905260248201527f4f776e61626c653a2063616c6c6572206973206e6f7420746865206f776e657260448201526064016103be565b60006001600160ff1b038211156108475760405162461bcd60e51b815260206004820152602860248201527f53616665436173743a2076616c756520646f65736e27742066697420696e2061604482015267371034b73a191a9b60c11b60648201526084016103be565b5090565b600080546001600160a01b038381166001600160a01b0319831681178455604051919092169283917f8be0079c531659141344cd1fd0a4f28419497f9722a3daafe3b4186f6b6457e09190a35050565b6000808212156108475760405162461bcd60e51b815260206004820181905260248201527f53616665436173743a2076616c7565206d75737420626520706f73697469766560448201526064016103be565b6000602082840312156108ff57600080fd5b5035919050565b60006020828403121561091857600080fd5b81356001600160a01b038116811461092f57600080fd5b9392505050565b634e487b7160e01b600052601160045260246000fd5b6000821982111561095f5761095f610936565b500190565b60008282101561097657610976610936565b500390565b600081600019048311821515161561099557610995610936565b500290565b6000826109b757634e487b7160e01b600052601260045260246000fd5b500490565b805169ffffffffffffffffffff811681146103d257600080fd5b600080600080600060a086880312156109ee57600080fd5b6109f7866109bc565b9450602086015193506040860151925060608601519150610a1a608087016109bc565b9050929550929590935056fea264697066735822122046ae6aa160e752450a6c93527ec4b60dc12cfb4b99a8140a5ff0b60bc78826d164736f6c63430008090033","linkReferences":{}},"methodIdentifiers":{"USDCHeartbeat()":"8ef45aac","USDCSource()":"584305d1","chainlink()":"9c3feeb7","decimalsCorrection()":"79d4aaac","getChainLinkPrice()":"be790b32","getMarkPrice()":"60409632","heartbeatInterval()":"561a4fac","isSelfOracle()":"aecff395","owner()":"8da5cb5b","price()":"a035b1fe","priceThreshold()":"cc2f6093","renounceOwnership()":"715018a6","roundId()":"8cd221c9","setMarkPrice(uint256)":"47cb3167","transferOwnership(address)":"f2fde38b","turnOffJOJOOracle()":"cb35ed30","turnOnJOJOOracle()":"f3324955","updateThreshold(uint256)":"d7d7442f"},"id":0}