{"abi":[{"type":"constructor","inputs":[{"name":"_chainlink","type":"address","internalType":"address"},{"name":"_decimalsCorrection","type":"uint256","internalType":"uint256"},{"name":"_heartbeatInterval","type":"uint256","internalType":"uint256"},{"name":"_USDCHeartbeat","type":"uint256","internalType":"uint256"},{"name":"_USDCSource","type":"address","internalType":"address"}],"stateMutability":"nonpayable"},{"type":"function","name":"USDCHeartbeat","inputs":[],"outputs":[{"name":"","type":"uint256","internalType":"uint256"}],"stateMutability":"view"},{"type":"function","name":"USDCSource","inputs":[],"outputs":[{"name":"","type":"address","internalType":"address"}],"stateMutability":"view"},{"type":"function","name":"chainlink","inputs":[],"outputs":[{"name":"","type":"address","internalType":"address"}],"stateMutability":"view"},{"type":"function","name":"decimalsCorrection","inputs":[],"outputs":[{"name":"","type":"uint256","internalType":"uint256"}],"stateMutability":"view"},{"type":"function","name":"getMarkPrice","inputs":[],"outputs":[{"name":"price","type":"uint256","internalType":"uint256"}],"stateMutability":"view"},{"type":"function","name":"heartbeatInterval","inputs":[],"outputs":[{"name":"","type":"uint256","internalType":"uint256"}],"stateMutability":"view"}],"bytecode":{"object":"0x61012060405234801561001157600080fd5b506040516107be3803806107be83398101604081905261003091610085565b6001600160a01b03851660805261004884600a6101d1565b60a05260c09290925260e0526001600160a01b031661010052506101e49050565b80516001600160a01b038116811461008057600080fd5b919050565b600080600080600060a0868803121561009d57600080fd5b6100a686610069565b94506020860151935060408601519250606086015191506100c960808701610069565b90509295509295909350565b634e487b7160e01b600052601160045260246000fd5b600181815b8085111561012657816000190482111561010c5761010c6100d5565b8085161561011957918102915b93841c93908002906100f0565b509250929050565b60008261013d575060016101cb565b8161014a575060006101cb565b8160018114610160576002811461016a57610186565b60019150506101cb565b60ff84111561017b5761017b6100d5565b50506001821b6101cb565b5060208310610133831016604e8410600b84101617156101a9575081810a6101cb565b6101b383836100eb565b80600019048211156101c7576101c76100d5565b0290505b92915050565b60006101dd838361012e565b9392505050565b60805160a05160c05160e051610100516105766102486000396000818160a601526102090152600081816101140152610321015260008181606c01526102a101526000818160ed01526103c801526000818161013b015261016401526105766000f3fe608060405234801561001057600080fd5b50600436106100625760003560e01c8063561a4fac14610067578063584305d1146100a157806360409632146100e057806379d4aaac146100e85780638ef45aac1461010f5780639c3feeb714610136575b600080fd5b61008e7f000000000000000000000000000000000000000000000000000000000000000081565b6040519081526020015b60405180910390f35b6100c87f000000000000000000000000000000000000000000000000000000000000000081565b6040516001600160a01b039091168152602001610098565b61008e61015d565b61008e7f000000000000000000000000000000000000000000000000000000000000000081565b61008e7f000000000000000000000000000000000000000000000000000000000000000081565b6100c87f000000000000000000000000000000000000000000000000000000000000000081565b60008060007f00000000000000000000000000000000000000000000000000000000000000006001600160a01b031663feaf968c6040518163ffffffff1660e01b815260040160a06040518083038186803b1580156101bb57600080fd5b505afa1580156101cf573d6000803e3d6000fd5b505050506040513d601f19601f820116820180604052508101906101f39190610482565b90919293509091505080925081935050506000807f00000000000000000000000000000000000000000000000000000000000000006001600160a01b031663feaf968c6040518163ffffffff1660e01b815260040160a06040518083038186803b15801561026057600080fd5b505afa158015610274573d6000803e3d6000fd5b505050506040513d601f19601f820116820180604052508101906102989190610482565b509350509250507f000000000000000000000000000000000000000000000000000000000000000083426102cc91906104e8565b111561031f5760405162461bcd60e51b815260206004820152601760248201527f4f5241434c455f4845415254424541545f4641494c454400000000000000000060448201526064015b60405180910390fd5b7f000000000000000000000000000000000000000000000000000000000000000061034a82426104e8565b11156103985760405162461bcd60e51b815260206004820152601c60248201527f555344435f4f5241434c455f4845415254424541545f4641494c4544000000006044820152606401610316565b60006103a38361040d565b6103ac8661040d565b6103ba906305f5e1006104ff565b6103c4919061051e565b90507f00000000000000000000000000000000000000000000000000000000000000006103f982670de0b6b3a76400006104ff565b610403919061051e565b9550505050505090565b60008082121561045f5760405162461bcd60e51b815260206004820181905260248201527f53616665436173743a2076616c7565206d75737420626520706f7369746976656044820152606401610316565b5090565b805169ffffffffffffffffffff8116811461047d57600080fd5b919050565b600080600080600060a0868803121561049a57600080fd5b6104a386610463565b94506020860151935060408601519250606086015191506104c660808701610463565b90509295509295909350565b634e487b7160e01b600052601160045260246000fd5b6000828210156104fa576104fa6104d2565b500390565b6000816000190483118215151615610519576105196104d2565b500290565b60008261053b57634e487b7160e01b600052601260045260246000fd5b50049056fea26469706673582212205b0941ee652cca24896375939afa8f34048fc9d8c1ed3ba7071166f7152fb53264736f6c63430008090033","linkReferences":{}},"methodIdentifiers":{"USDCHeartbeat()":"8ef45aac","USDCSource()":"584305d1","chainlink()":"9c3feeb7","decimalsCorrection()":"79d4aaac","getMarkPrice()":"60409632","heartbeatInterval()":"561a4fac"},"id":1}