{"abi":[{"type":"function","name":"execute","inputs":[{"name":"to","type":"address","internalType":"address"},{"name":"data","type":"bytes","internalType":"bytes"},{"name":"value","type":"uint256","internalType":"uint256"}],"outputs":[{"name":"","type":"bytes","internalType":"bytes"}],"stateMutability":"payable"},{"type":"function","name":"init","inputs":[{"name":"_owner","type":"address","internalType":"address"}],"outputs":[],"stateMutability":"nonpayable"},{"type":"function","name":"initialized","inputs":[],"outputs":[{"name":"","type":"bool","internalType":"bool"}],"stateMutability":"view"},{"type":"function","name":"owner","inputs":[],"outputs":[{"name":"","type":"address","internalType":"address"}],"stateMutability":"view"},{"type":"event","name":"ExecuteTransaction","inputs":[{"name":"owner","type":"address","indexed":true,"internalType":"address"},{"name":"subaccount","type":"address","indexed":false,"internalType":"address"},{"name":"to","type":"address","indexed":false,"internalType":"address"},{"name":"data","type":"bytes","indexed":false,"internalType":"bytes"},{"name":"value","type":"uint256","indexed":false,"internalType":"uint256"}],"anonymous":false}],"bytecode":{"object":"0x608060405234801561001057600080fd5b506104b6806100206000396000f3fe60806040526004361061003f5760003560e01c8063158ef93e1461004457806319ab453c1461007a5780638da5cb5b1461009c578063a04a0908146100d4575b600080fd5b34801561005057600080fd5b5060005461006590600160a01b900460ff1681565b60405190151581526020015b60405180910390f35b34801561008657600080fd5b5061009a61009536600461031d565b6100f4565b005b3480156100a857600080fd5b506000546100bc906001600160a01b031681565b6040516001600160a01b039091168152602001610071565b6100e76100e236600461033f565b610172565b60405161007191906103c8565b600054600160a01b900460ff16156101495760405162461bcd60e51b815260206004820152601360248201527210531491505116481253925512505312569151606a1b60448201526064015b60405180910390fd5b600080546001600160a01b039092166001600160a81b031990921691909117600160a01b179055565b6000546060906001600160a01b031633146101cf5760405162461bcd60e51b815260206004820181905260248201527f4f776e61626c653a2063616c6c6572206973206e6f7420746865206f776e65726044820152606401610140565b6001600160a01b0385166101e257600080fd5b8134146102315760405162461bcd60e51b815260206004820152601a60248201527f5452414e534645525f5041594d454e545f4e4f545f4d415443480000000000006044820152606401610140565b600080866001600160a01b031684878760405161024f92919061041d565b60006040518083038185875af1925050503d806000811461028c576040519150601f19603f3d011682016040523d82523d6000602084013e610291565b606091505b5091509150816102a8576040513d806000833e8082fd5b6000546040516001600160a01b03909116907ff921648548ed1b4b58b275d277c0c61a8b5ebe9277ddd2e198a71732ecf419e3906102ef9030908b908b908b908b9061042d565b60405180910390a29695505050505050565b80356001600160a01b038116811461031857600080fd5b919050565b60006020828403121561032f57600080fd5b61033882610301565b9392505050565b6000806000806060858703121561035557600080fd5b61035e85610301565b9350602085013567ffffffffffffffff8082111561037b57600080fd5b818701915087601f83011261038f57600080fd5b81358181111561039e57600080fd5b8860208285010111156103b057600080fd5b95986020929092019750949560400135945092505050565b600060208083528351808285015260005b818110156103f5578581018301518582016040015282016103d9565b81811115610407576000604083870101525b50601f01601f1916929092016040019392505050565b8183823760009101908152919050565b6001600160a01b0386811682528516602082015260806040820181905281018390526000838560a0840137600060a0858401015260a0601f19601f8601168301019050826060830152969550505050505056fea2646970667358221220e180c16fa25972c0dab0be73669bf4cf3de0960af00fd7a318a6ccc9082685fc64736f6c63430008090033","linkReferences":{}},"methodIdentifiers":{"execute(address,bytes,uint256)":"a04a0908","init(address)":"19ab453c","initialized()":"158ef93e","owner()":"8da5cb5b"},"id":30}