{"abi":[{"type":"constructor","inputs":[{"name":"_JOJODealer","type":"address","internalType":"address"},{"name":"_JUSDBank","type":"address","internalType":"address"},{"name":"_FundingRateArbitrage","type":"address","internalType":"address"}],"stateMutability":"nonpayable"},{"type":"function","name":"JojoDealer","inputs":[],"outputs":[{"name":"","type":"address","internalType":"contract JOJODealer"}],"stateMutability":"view"},{"type":"function","name":"fundingRateArbitrage","inputs":[],"outputs":[{"name":"","type":"address","internalType":"contract IFundingRateArbitrage"}],"stateMutability":"view"},{"type":"function","name":"getAccountJUSDStates","inputs":[{"name":"accounts","type":"address[]","internalType":"address[]"}],"outputs":[{"name":"accountJUSDState","type":"tuple[]","internalType":"struct HelperContract.AccountJUSDState[]","components":[{"name":"account","type":"address","internalType":"address"},{"name":"borrowedBalance","type":"uint256","internalType":"uint256"},{"name":"isSafe","type":"bool","internalType":"bool"},{"name":"collateralState","type":"tuple[]","internalType":"struct HelperContract.CollateralState[]","components":[{"name":"collateral","type":"address","internalType":"address"},{"name":"balance","type":"uint256","internalType":"uint256"}]}]}],"stateMutability":"view"},{"type":"function","name":"getAccountsStates","inputs":[{"name":"accounts","type":"address[]","internalType":"address[]"}],"outputs":[{"name":"accountStates","type":"tuple[]","internalType":"struct HelperContract.AccountState[]","components":[{"name":"accountAddress","type":"address","internalType":"address"},{"name":"primaryCredit","type":"int256","internalType":"int256"},{"name":"secondaryCredit","type":"uint256","internalType":"uint256"},{"name":"pendingPrimaryWithdraw","type":"uint256","internalType":"uint256"},{"name":"pendingSecondaryWithdraw","type":"uint256","internalType":"uint256"},{"name":"exposure","type":"uint256","internalType":"uint256"},{"name":"netValue","type":"int256","internalType":"int256"},{"name":"initialMargin","type":"uint256","internalType":"uint256"},{"name":"maintenanceMargin","type":"uint256","internalType":"uint256"},{"name":"isSafe","type":"bool","internalType":"bool"},{"name":"executionTimestamp","type":"uint256","internalType":"uint256"},{"name":"accountPerpState","type":"tuple[]","internalType":"struct HelperContract.AccountPerpState[]","components":[{"name":"perp","type":"address","internalType":"address"},{"name":"paper","type":"int256","internalType":"int256"},{"name":"credit","type":"int256","internalType":"int256"},{"name":"liquidatePrice","type":"uint256","internalType":"uint256"}]}]}],"stateMutability":"view"},{"type":"function","name":"getHedgingState","inputs":[{"name":"perpetual","type":"address","internalType":"address"}],"outputs":[{"name":"hedgingState","type":"tuple","internalType":"struct HelperContract.HedgingState","components":[{"name":"USDCWalletBalance","type":"uint256","internalType":"uint256"},{"name":"USDCPerpBalance","type":"int256","internalType":"int256"},{"name":"wstETHWalletBalance","type":"uint256","internalType":"uint256"},{"name":"wstETHBankAmount","type":"uint256","internalType":"uint256"},{"name":"JUSDBorrowAmount","type":"uint256","internalType":"uint256"},{"name":"JUSDPerpBalance","type":"uint256","internalType":"uint256"},{"name":"PositionPerpAmount","type":"int256","internalType":"int256"},{"name":"PositionCreditAmount","type":"int256","internalType":"int256"},{"name":"earnUSDCRate","type":"uint256","internalType":"uint256"},{"name":"wstETHToETH","type":"uint256","internalType":"uint256"},{"name":"wstETHToUSDC","type":"uint256","internalType":"uint256"},{"name":"wstETHDecimal","type":"uint256","internalType":"uint256"},{"name":"earnUSDCTotalSupply","type":"uint256","internalType":"uint256"}]}],"stateMutability":"view"},{"type":"function","name":"getPerpPaperBalances","inputs":[{"name":"perp","type":"address","internalType":"address"},{"name":"accounts","type":"address[]","internalType":"address[]"}],"outputs":[{"name":"paperAmount","type":"int256[]","internalType":"int256[]"}],"stateMutability":"view"},{"type":"function","name":"getPerpsStates","inputs":[{"name":"perps","type":"address[]","internalType":"address[]"}],"outputs":[{"name":"perpStates","type":"tuple[]","internalType":"struct HelperContract.PerpState[]","components":[{"name":"perp","type":"address","internalType":"address"},{"name":"fundingRate","type":"int256","internalType":"int256"},{"name":"markPrice","type":"uint256","internalType":"uint256"},{"name":"riskParams","type":"tuple","internalType":"struct Types.RiskParams","components":[{"name":"initialMarginRatio","type":"uint256","internalType":"uint256"},{"name":"liquidationThreshold","type":"uint256","internalType":"uint256"},{"name":"liquidationPriceOff","type":"uint256","internalType":"uint256"},{"name":"insuranceFeeRate","type":"uint256","internalType":"uint256"},{"name":"markPriceSource","type":"address","internalType":"address"},{"name":"name","type":"string","internalType":"string"},{"name":"isRegistered","type":"bool","internalType":"bool"}]}]}],"stateMutability":"view"},{"type":"function","name":"getWalletBalance","inputs":[{"name":"token","type":"address","internalType":"address"},{"name":"wallet","type":"address","internalType":"address"}],"outputs":[{"name":"","type":"uint256","internalType":"uint256"}],"stateMutability":"view"},{"type":"function","name":"jusdBank","inputs":[],"outputs":[{"name":"","type":"address","internalType":"contract IJUSDBank"}],"stateMutability":"view"},{"type":"function","name":"wstToETHPrice","inputs":[],"outputs":[{"name":"","type":"address","internalType":"address"}],"stateMutability":"view"}],"bytecode":{"object":"0x60806040523480156200001157600080fd5b50604051620029ba380380620029ba833981016040819052620000349162000094565b600080546001600160a01b039485166001600160a01b031991821617909155600180549385169382169390931790925560028054919093169116179055620000de565b80516001600160a01b03811681146200008f57600080fd5b919050565b600080600060608486031215620000aa57600080fd5b620000b58462000077565b9250620000c56020850162000077565b9150620000d56040850162000077565b90509250925092565b6128cc80620000ee6000396000f3fe608060405234801561001057600080fd5b506004361061009e5760003560e01c80637b3cc3ee116100665780637b3cc3ee14610147578063988571cc1461015a5780639c2255a814610200578063a14cdd2a14610220578063cec62f2e1461023357600080fd5b80630d5e798f146100a357806313b3dd5b146100d3578063449bbb60146100f3578063623ae0e914610106578063667126f814610127575b600080fd5b6002546100b6906001600160a01b031681565b6040516001600160a01b0390911681526020015b60405180910390f35b6100e66100e1366004611f8e565b610253565b6040516100ca9190612033565b6003546100b6906001600160a01b031681565b610119610114366004612136565b610b65565b6040519081526020016100ca565b61013a610135366004611f8e565b610be9565b6040516100ca919061219f565b6000546100b6906001600160a01b031681565b61016d610168366004612299565b610f19565b6040516100ca9190815181526020808301519082015260408083015190820152606080830151908201526080808301519082015260a0808301519082015260c0808301519082015260e08083015190820152610100808301519082015261012080830151908201526101408083015190820152610160808301519082015261018091820151918101919091526101a00190565b61021361020e366004611f8e565b611853565b6040516100ca91906122b6565b6001546100b6906001600160a01b031681565b610246610241366004612383565b611d8f565b6040516100ca91906123d7565b6060816001600160401b0381111561026d5761026d61241b565b60405190808252806020026020018201604052801561030d57816020015b6102fa60405180610180016040528060006001600160a01b03168152602001600081526020016000815260200160008152602001600081526020016000815260200160008152602001600081526020016000815260200160001515815260200160008152602001606081525090565b81526020019060019003908161028b5790505b50905060005b82811015610b5e5783838281811061032d5761032d612431565b90506020020160208101906103429190612299565b82828151811061035457610354612431565b60209081029190910101516001600160a01b03918216905260008054909182918291829182911663c97ab30c8a8a8981811061039257610392612431565b90506020020160208101906103a79190612299565b6040516001600160e01b031960e084901b1681526001600160a01b03909116600482015260240160a06040518083038186803b1580156103e657600080fd5b505afa1580156103fa573d6000803e3d6000fd5b505050506040513d601f19601f8201168201806040525081019061041e9190612447565b945094509450945094508487878151811061043b5761043b612431565b602002602001015160200181815250508387878151811061045e5761045e612431565b602002602001015160400181815250508287878151811061048157610481612431565b60200260200101516060018181525050818787815181106104a4576104a4612431565b60200260200101516080018181525050808787815181106104c7576104c7612431565b6020908102919091010151610140015250506000805490935083925082915081906001600160a01b0316636e75301089898881811061050857610508612431565b905060200201602081019061051d9190612299565b6040516001600160e01b031960e084901b1681526001600160a01b03909116600482015260240160806040518083038186803b15801561055c57600080fd5b505afa158015610570573d6000803e3d6000fd5b505050506040513d601f19601f820116820180604052508101906105949190612487565b9350935093509350838686815181106105af576105af612431565b602002602001015160c0018181525050828686815181106105d2576105d2612431565b602002602001015160a0018181525050818686815181106105f5576105f5612431565b602002602001015160e00181815250508086868151811061061857610618612431565b602090810291909101015161010001526000546001600160a01b031663769a28ac89898881811061064b5761064b612431565b90506020020160208101906106609190612299565b6040516001600160e01b031960e084901b1681526001600160a01b03909116600482015260240160206040518083038186803b15801561069f57600080fd5b505afa1580156106b3573d6000803e3d6000fd5b505050506040513d601f19601f820116820180604052508101906106d791906124d2565b8686815181106106e9576106e9612431565b602090810291909101015190151561012090910152600080546001600160a01b0316633eeb530e8a8a8981811061072257610722612431565b90506020020160208101906107379190612299565b6040516001600160e01b031960e084901b1681526001600160a01b03909116600482015260240160006040518083038186803b15801561077657600080fd5b505afa15801561078a573d6000803e3d6000fd5b505050506040513d6000823e601f3d908101601f191682016040526107b29190810190612550565b905080516001600160401b038111156107cd576107cd61241b565b60405190808252806020026020018201604052801561083257816020015b61081f604051806080016040528060006001600160a01b031681526020016000815260200160008152602001600081525090565b8152602001906001900390816107eb5790505b5087878151811061084557610845612431565b6020026020010151610160018190525060005b8151811015610b455760008083838151811061087657610876612431565b60200260200101516001600160a01b03166370a082318d8d8c81811061089e5761089e612431565b90506020020160208101906108b39190612299565b6040516001600160e01b031960e084901b1681526001600160a01b039091166004820152602401604080518083038186803b1580156108f157600080fd5b505afa158015610905573d6000803e3d6000fd5b505050506040513d601f19601f820116820180604052508101906109299190612601565b9150915083838151811061093f5761093f612431565b60200260200101518a8a8151811061095957610959612431565b60200260200101516101600151848151811061097757610977612431565b6020026020010151600001906001600160a01b031690816001600160a01b031681525050818a8a815181106109ae576109ae612431565b6020026020010151610160015184815181106109cc576109cc612431565b60200260200101516020018181525050808a8a815181106109ef576109ef612431565b602002602001015161016001518481518110610a0d57610a0d612431565b6020908102919091010151604001526000546001600160a01b0316631867b4808d8d8c818110610a3f57610a3f612431565b9050602002016020810190610a549190612299565b868681518110610a6657610a66612431565b60200260200101516040518363ffffffff1660e01b8152600401610aa09291906001600160a01b0392831681529116602082015260400190565b60206040518083038186803b158015610ab857600080fd5b505afa158015610acc573d6000803e3d6000fd5b505050506040513d601f19601f82011682018060405250810190610af09190612625565b8a8a81518110610b0257610b02612431565b602002602001015161016001518481518110610b2057610b20612431565b6020026020010151606001818152505050508080610b3d90612654565b915050610858565b5050505050508080610b5690612654565b915050610313565b5092915050565b6040516370a0823160e01b81526001600160a01b038281166004830152600091908416906370a082319060240160206040518083038186803b158015610baa57600080fd5b505afa158015610bbe573d6000803e3d6000fd5b505050506040513d601f19601f82011682018060405250810190610be29190612625565b9392505050565b6060816001600160401b03811115610c0357610c0361241b565b604051908082528060200260200182016040528015610c3c57816020015b610c29611eca565b815260200190600190039081610c215790505b50905060005b82811015610b5e57838382818110610c5c57610c5c612431565b9050602002016020810190610c719190612299565b828281518110610c8357610c83612431565b60209081029190910101516001600160a01b03918216905260005416630baaa528858584818110610cb657610cb6612431565b9050602002016020810190610ccb9190612299565b6040516001600160e01b031960e084901b1681526001600160a01b03909116600482015260240160206040518083038186803b158015610d0a57600080fd5b505afa158015610d1e573d6000803e3d6000fd5b505050506040513d601f19601f82011682018060405250810190610d429190612625565b828281518110610d5457610d54612431565b60209081029190910181015101526000546001600160a01b0316635d6f9c14858584818110610d8557610d85612431565b9050602002016020810190610d9a9190612299565b6040516001600160e01b031960e084901b1681526001600160a01b03909116600482015260240160206040518083038186803b158015610dd957600080fd5b505afa158015610ded573d6000803e3d6000fd5b505050506040513d601f19601f82011682018060405250810190610e119190612625565b828281518110610e2357610e23612431565b6020908102919091010151604001526000546001600160a01b0316634f33cb53858584818110610e5557610e55612431565b9050602002016020810190610e6a9190612299565b6040516001600160e01b031960e084901b1681526001600160a01b03909116600482015260240160006040518083038186803b158015610ea957600080fd5b505afa158015610ebd573d6000803e3d6000fd5b505050506040513d6000823e601f3d908101601f19168201604052610ee591908101906126da565b828281518110610ef757610ef7612431565b6020026020010151606001819052508080610f1190612654565b915050610c42565b610f84604051806101a00160405280600081526020016000815260200160008152602001600081526020016000815260200160008152602001600081526020016000815260200160008152602001600081526020016000815260200160008152602001600081525090565b6000805460025460405163325eacc360e21b81526001600160a01b0391821660048201528392919091169063c97ab30c9060240160a06040518083038186803b158015610fd057600080fd5b505afa158015610fe4573d6000803e3d6000fd5b505050506040513d601f19601f820116820180604052508101906110089190612447565b5050506020850182905260a08501819052600080546040805163c19d93fb60e01b8152905194965092945090926001600160a01b039091169163c19d93fb9160048083019260e0929190829003018186803b15801561106657600080fd5b505afa15801561107a573d6000803e3d6000fd5b505050506040513d601f19601f8201168201806040525081019061109e9190612790565b50506002546040516370a0823160e01b81526001600160a01b03918216600482015295965060009590871694506370a08231935060240191506110de9050565b60206040518083038186803b1580156110f657600080fd5b505afa15801561110a573d6000803e3d6000fd5b505050506040513d601f19601f8201168201806040525081019061112e9190612625565b80865260025460408051635c1548fb60e01b815290519293506000926001600160a01b0390921691635c1548fb91600480820192602092909190829003018186803b15801561117c57600080fd5b505afa158015611190573d6000803e3d6000fd5b505050506040513d601f19601f820116820180604052508101906111b49190612815565b6002546040516370a0823160e01b81526001600160a01b0391821660048201529116906370a082319060240160206040518083038186803b1580156111f857600080fd5b505afa15801561120c573d6000803e3d6000fd5b505050506040513d601f19601f820116820180604052508101906112309190612625565b60408781018290526001546002548251635c1548fb60e01b815292519394506000936001600160a01b0392831693630ae112a49390921691635c1548fb916004808301926020929190829003018186803b15801561128d57600080fd5b505afa1580156112a1573d6000803e3d6000fd5b505050506040513d601f19601f820116820180604052508101906112c59190612815565b60025460405160e084901b6001600160e01b03191681526001600160a01b0392831660048201529116602482015260440160206040518083038186803b15801561130e57600080fd5b505afa158015611322573d6000803e3d6000fd5b505050506040513d601f19601f820116820180604052508101906113469190612625565b60608801819052600154600254604051637d6af07960e01b81526001600160a01b039182166004820152929350600092911690637d6af0799060240160206040518083038186803b15801561139a57600080fd5b505afa1580156113ae573d6000803e3d6000fd5b505050506040513d601f19601f820116820180604052508101906113d29190612625565b608089018190526002546040516370a0823160e01b81526001600160a01b03918216600482015291925060009182918c16906370a0823190602401604080518083038186803b15801561142457600080fd5b505afa158015611438573d6000803e3d6000fd5b505050506040513d601f19601f8201168201806040525081019061145c9190612601565b60c08c0182905260e08c01819052600254604080516381045ead60e01b815290519395509193506000926001600160a01b03909116916381045ead916004808301926020929190829003018186803b1580156114b757600080fd5b505afa1580156114cb573d6000803e3d6000fd5b505050506040513d601f19601f820116820180604052508101906114ef9190612625565b6101008c0181905260015460025460408051635c1548fb60e01b815290519394506000936001600160a01b03938416936351a40994931691635c1548fb916004808301926020929190829003018186803b15801561154c57600080fd5b505afa158015611560573d6000803e3d6000fd5b505050506040513d601f19601f820116820180604052508101906115849190612815565b6040516001600160e01b031960e084901b1681526001600160a01b03909116600482015260240160206040518083038186803b1580156115c357600080fd5b505afa1580156115d7573d6000803e3d6000fd5b505050506040513d601f19601f820116820180604052508101906115fb9190612625565b905060008060009054906101000a90046001600160a01b03166001600160a01b0316635d6f9c148f6040518263ffffffff1660e01b815260040161164e91906001600160a01b0391909116815260200190565b60206040518083038186803b15801561166657600080fd5b505afa15801561167a573d6000803e3d6000fd5b505050506040513d601f19601f8201168201806040525081019061169e9190612625565b6101408e0183905260025460408051635c1548fb60e01b815290519293506001600160a01b0390911691635c1548fb91600480820192602092909190829003018186803b1580156116ee57600080fd5b505afa158015611702573d6000803e3d6000fd5b505050506040513d601f19601f820116820180604052508101906117269190612815565b6001600160a01b031663313ce5676040518163ffffffff1660e01b815260040160206040518083038186803b15801561175e57600080fd5b505afa158015611772573d6000803e3d6000fd5b505050506040513d601f19601f820116820180604052508101906117969190612832565b60ff166101608e01526117a98183612855565b6117b89064e8d4a51000612877565b6101208e015260025460408051632c65029760e11b815290516001600160a01b03909216916358ca052e91600480820192602092909190829003018186803b15801561180357600080fd5b505afa158015611817573d6000803e3d6000fd5b505050506040513d601f19601f8201168201806040525081019061183b9190612625565b6101808e0152509a9c9b505050505050505050505050565b6060816001600160401b0381111561186d5761186d61241b565b6040519080825280602002602001820160405280156118be57816020015b604080516080810182526000808252602080830182905292820152606080820152825260001990920191018161188b5790505b50905060005b82811015610b5e578383828181106118de576118de612431565b90506020020160208101906118f39190612299565b82828151811061190557611905612431565b60209081029190910101516001600160a01b03918216905260015416637d6af07985858481811061193857611938612431565b905060200201602081019061194d9190612299565b6040516001600160e01b031960e084901b1681526001600160a01b03909116600482015260240160206040518083038186803b15801561198c57600080fd5b505afa1580156119a0573d6000803e3d6000fd5b505050506040513d601f19601f820116820180604052508101906119c49190612625565b8282815181106119d6576119d6612431565b60209081029190910181015101526001546001600160a01b031663d032886a858584818110611a0757611a07612431565b9050602002016020810190611a1c9190612299565b6040516001600160e01b031960e084901b1681526001600160a01b03909116600482015260240160206040518083038186803b158015611a5b57600080fd5b505afa158015611a6f573d6000803e3d6000fd5b505050506040513d601f19601f82011682018060405250810190611a9391906124d2565b828281518110611aa557611aa5612431565b60209081029190910101519015156040909101526001546000906001600160a01b0316630eff8477868685818110611adf57611adf612431565b9050602002016020810190611af49190612299565b6040516001600160e01b031960e084901b1681526001600160a01b03909116600482015260240160006040518083038186803b158015611b3357600080fd5b505afa158015611b47573d6000803e3d6000fd5b505050506040513d6000823e601f3d908101601f19168201604052611b6f9190810190612550565b905080516001600160401b03811115611b8a57611b8a61241b565b604051908082528060200260200182016040528015611bcf57816020015b6040805180820190915260008082526020820152815260200190600190039081611ba85790505b50838381518110611be257611be2612431565b60200260200101516060018190525060005b8151811015611d7a57818181518110611c0f57611c0f612431565b6020026020010151848481518110611c2957611c29612431565b6020026020010151606001518281518110611c4657611c46612431565b60209081029190910101516001600160a01b0391821690526001548351911690630ae112a490849084908110611c7e57611c7e612431565b6020026020010151888887818110611c9857611c98612431565b9050602002016020810190611cad9190612299565b6040516001600160e01b031960e085901b1681526001600160a01b0392831660048201529116602482015260440160206040518083038186803b158015611cf357600080fd5b505afa158015611d07573d6000803e3d6000fd5b505050506040513d601f19601f82011682018060405250810190611d2b9190612625565b848481518110611d3d57611d3d612431565b6020026020010151606001518281518110611d5a57611d5a612431565b602090810291909101810151015280611d7281612654565b915050611bf4565b50508080611d8790612654565b9150506118c4565b6060816001600160401b03811115611da957611da961241b565b604051908082528060200260200182016040528015611dd2578160200160208202803683370190505b50905060005b82811015611ec2576000856001600160a01b03166370a08231868685818110611e0357611e03612431565b9050602002016020810190611e189190612299565b6040516001600160e01b031960e084901b1681526001600160a01b039091166004820152602401604080518083038186803b158015611e5657600080fd5b505afa158015611e6a573d6000803e3d6000fd5b505050506040513d601f19601f82011682018060405250810190611e8e9190612601565b50905080838381518110611ea457611ea4612431565b60209081029190910101525080611eba81612654565b915050611dd8565b509392505050565b604051806080016040528060006001600160a01b031681526020016000815260200160008152602001611f3e6040518060e001604052806000815260200160008152602001600081526020016000815260200160006001600160a01b03168152602001606081526020016000151581525090565b905290565b60008083601f840112611f5557600080fd5b5081356001600160401b03811115611f6c57600080fd5b6020830191508360208260051b8501011115611f8757600080fd5b9250929050565b60008060208385031215611fa157600080fd5b82356001600160401b03811115611fb757600080fd5b611fc385828601611f43565b90969095509350505050565b600081518084526020808501945080840160005b8381101561202857815180516001600160a01b031688528381015184890152604080820151908901526060908101519088015260809096019590820190600101611fe3565b509495945050505050565b60006020808301818452808551808352604092508286019150828160051b87010184880160005b8381101561211057603f19898403018552815180516001600160a01b0316845287810151888501528681015187850152606080820151908501526080808201519085015260a0808201519085015260c0808201519085015260e08082015190850152610100808201519085015261012080820151151590850152610140808201519085015261016090810151610180918501829052906120fc81860183611fcf565b96890196945050509086019060010161205a565b509098975050505050505050565b6001600160a01b038116811461213357600080fd5b50565b6000806040838503121561214957600080fd5b82356121548161211e565b915060208301356121648161211e565b809150509250929050565b60005b8381101561218a578181015183820152602001612172565b83811115612199576000848401525b50505050565b60006020808301818452808551808352604092508286019150828160051b87010184880160005b8381101561211057603f198984030185528151608060018060a01b03808351168652898301518a8701528883015189870152606080840151935082818801528351838801528a8401518060a0890152508984015160c081818a015282860151925060e0915082828a01528385870151166101008a015260a08601519450816101208a015284519350836101608a0152610180925061226984848b018f880161216f565b94909401511515610140880152978a0197601f91909101601f1916909501909401935050908601906001016121c6565b6000602082840312156122ab57600080fd5b8135610be28161211e565b60006020808301818452808551808352604092508286019150828160051b8701018488016000805b8481101561237457898403603f19018652825180516001600160a01b039081168652898201518a87015288820151151589870152606091820151608092870183905280519287018390528a019160a087019185915b8083101561235e5784518051831685528d01518d850152938c0193928b019260019290920191612333565b50505096890196945050918701916001016122de565b50919998505050505050505050565b60008060006040848603121561239857600080fd5b83356123a38161211e565b925060208401356001600160401b038111156123be57600080fd5b6123ca86828701611f43565b9497909650939450505050565b6020808252825182820181905260009190848201906040850190845b8181101561240f578351835292840192918401916001016123f3565b50909695505050505050565b634e487b7160e01b600052604160045260246000fd5b634e487b7160e01b600052603260045260246000fd5b600080600080600060a0868803121561245f57600080fd5b5050835160208501516040860151606087015160809097015192989197509594509092509050565b6000806000806080858703121561249d57600080fd5b505082516020840151604085015160609095015191969095509092509050565b805180151581146124cd57600080fd5b919050565b6000602082840312156124e457600080fd5b610be2826124bd565b60405160e081016001600160401b038111828210171561250f5761250f61241b565b60405290565b604051601f8201601f191681016001600160401b038111828210171561253d5761253d61241b565b604052919050565b80516124cd8161211e565b6000602080838503121561256357600080fd5b82516001600160401b038082111561257a57600080fd5b818501915085601f83011261258e57600080fd5b8151818111156125a0576125a061241b565b8060051b91506125b1848301612515565b81815291830184019184810190888411156125cb57600080fd5b938501935b838510156125f557845192506125e58361211e565b82825293850193908501906125d0565b98975050505050505050565b6000806040838503121561261457600080fd5b505080516020909101519092909150565b60006020828403121561263757600080fd5b5051919050565b634e487b7160e01b600052601160045260246000fd5b60006000198214156126685761266861263e565b5060010190565b600082601f83011261268057600080fd5b81516001600160401b038111156126995761269961241b565b6126ac601f8201601f1916602001612515565b8181528460208386010111156126c157600080fd5b6126d282602083016020870161216f565b949350505050565b6000602082840312156126ec57600080fd5b81516001600160401b038082111561270357600080fd5b9083019060e0828603121561271757600080fd5b61271f6124ed565b8251815260208301516020820152604083015160408201526060830151606082015261274d60808401612545565b608082015260a08301518281111561276457600080fd5b6127708782860161266f565b60a08301525061278260c084016124bd565b60c082015295945050505050565b600080600080600080600060e0888a0312156127ab57600080fd5b87516127b68161211e565b60208901519097506127c78161211e565b604089015190965094506127dd606089016124bd565b935060808801516127ed8161211e565b60a08901519093506127fe8161211e565b8092505060c0880151905092959891949750929550565b60006020828403121561282757600080fd5b8151610be28161211e565b60006020828403121561284457600080fd5b815160ff81168114610be257600080fd5b60008261287257634e487b7160e01b600052601260045260246000fd5b500490565b60008160001904831182151516156128915761289161263e565b50029056fea2646970667358221220e2efb056eb464732585f3e1a65c9def6ba65a6c8b3d8d84fa61b1638ec309c0864736f6c63430008090033","linkReferences":{}},"methodIdentifiers":{"JojoDealer()":"7b3cc3ee","fundingRateArbitrage()":"0d5e798f","getAccountJUSDStates(address[])":"9c2255a8","getAccountsStates(address[])":"13b3dd5b","getHedgingState(address)":"988571cc","getPerpPaperBalances(address,address[])":"cec62f2e","getPerpsStates(address[])":"667126f8","getWalletBalance(address,address)":"623ae0e9","jusdBank()":"a14cdd2a","wstToETHPrice()":"449bbb60"},"id":33}