{"abi":[{"type":"constructor","inputs":[{"name":"_JOJODealer","type":"address","internalType":"address"},{"name":"_JUSDBank","type":"address","internalType":"address"},{"name":"_FundingRateArbitrage","type":"address","internalType":"address"}],"stateMutability":"nonpayable"},{"type":"function","name":"fundingRateArbitrage","inputs":[],"outputs":[{"name":"","type":"address","internalType":"contract IFundingRateArbitrage"}],"stateMutability":"view"},{"type":"function","name":"getAccountJUSDStates","inputs":[{"name":"accounts","type":"address[]","internalType":"address[]"}],"outputs":[{"name":"accountJUSDState","type":"tuple[]","internalType":"struct HelperContract.AccountJUSDState[]","components":[{"name":"account","type":"address","internalType":"address"},{"name":"borrowedBalance","type":"uint256","internalType":"uint256"},{"name":"isSafe","type":"bool","internalType":"bool"},{"name":"collateralState","type":"tuple[]","internalType":"struct HelperContract.CollateralState[]","components":[{"name":"collateral","type":"address","internalType":"address"},{"name":"balance","type":"uint256","internalType":"uint256"}]}]}],"stateMutability":"view"},{"type":"function","name":"getAccountsStates","inputs":[{"name":"accounts","type":"address[]","internalType":"address[]"}],"outputs":[{"name":"accountStates","type":"tuple[]","internalType":"struct HelperContract.AccountState[]","components":[{"name":"accountAddress","type":"address","internalType":"address"},{"name":"primaryCredit","type":"int256","internalType":"int256"},{"name":"secondaryCredit","type":"uint256","internalType":"uint256"},{"name":"pendingPrimaryWithdraw","type":"uint256","internalType":"uint256"},{"name":"pendingSecondaryWithdraw","type":"uint256","internalType":"uint256"},{"name":"exposure","type":"uint256","internalType":"uint256"},{"name":"netValue","type":"int256","internalType":"int256"},{"name":"initialMargin","type":"uint256","internalType":"uint256"},{"name":"maintenanceMargin","type":"uint256","internalType":"uint256"},{"name":"isSafe","type":"bool","internalType":"bool"},{"name":"executionTimestamp","type":"uint256","internalType":"uint256"},{"name":"accountPerpState","type":"tuple[]","internalType":"struct HelperContract.AccountPerpState[]","components":[{"name":"perp","type":"address","internalType":"address"},{"name":"paper","type":"int256","internalType":"int256"},{"name":"credit","type":"int256","internalType":"int256"},{"name":"liquidatePrice","type":"uint256","internalType":"uint256"}]}]}],"stateMutability":"view"},{"type":"function","name":"getHedgingState","inputs":[{"name":"perpetual","type":"address","internalType":"address"}],"outputs":[{"name":"hedgingState","type":"tuple","internalType":"struct HelperContract.HedgingState","components":[{"name":"USDCWalletBalance","type":"uint256","internalType":"uint256"},{"name":"USDCPerpBalance","type":"int256","internalType":"int256"},{"name":"wstETHWalletBalance","type":"uint256","internalType":"uint256"},{"name":"wstETHBankAmount","type":"uint256","internalType":"uint256"},{"name":"JUSDBorrowAmount","type":"uint256","internalType":"uint256"},{"name":"JUSDPerpBalance","type":"uint256","internalType":"uint256"},{"name":"PositionPerpAmount","type":"int256","internalType":"int256"},{"name":"PositionCreditAmount","type":"int256","internalType":"int256"},{"name":"earnUSDCRate","type":"uint256","internalType":"uint256"},{"name":"wstETHToETH","type":"uint256","internalType":"uint256"},{"name":"wstETHToUSDC","type":"uint256","internalType":"uint256"},{"name":"wstETHDecimal","type":"uint256","internalType":"uint256"},{"name":"earnUSDCTotalSupply","type":"uint256","internalType":"uint256"}]}],"stateMutability":"view"},{"type":"function","name":"getPerpPaperBalances","inputs":[{"name":"perp","type":"address","internalType":"address"},{"name":"accounts","type":"address[]","internalType":"address[]"}],"outputs":[{"name":"paperAmount","type":"int256[]","internalType":"int256[]"}],"stateMutability":"view"},{"type":"function","name":"getPerpsStates","inputs":[{"name":"perps","type":"address[]","internalType":"address[]"}],"outputs":[{"name":"perpStates","type":"tuple[]","internalType":"struct HelperContract.PerpState[]","components":[{"name":"perp","type":"address","internalType":"address"},{"name":"fundingRate","type":"int256","internalType":"int256"},{"name":"markPrice","type":"uint256","internalType":"uint256"},{"name":"riskParams","type":"tuple","internalType":"struct Types.RiskParams","components":[{"name":"initialMarginRatio","type":"uint256","internalType":"uint256"},{"name":"liquidationThreshold","type":"uint256","internalType":"uint256"},{"name":"liquidationPriceOff","type":"uint256","internalType":"uint256"},{"name":"insuranceFeeRate","type":"uint256","internalType":"uint256"},{"name":"markPriceSource","type":"address","internalType":"address"},{"name":"name","type":"string","internalType":"string"},{"name":"isRegistered","type":"bool","internalType":"bool"}]}]}],"stateMutability":"view"},{"type":"function","name":"getWalletBalance","inputs":[{"name":"token","type":"address","internalType":"address"},{"name":"wallet","type":"address","internalType":"address"}],"outputs":[{"name":"","type":"uint256","internalType":"uint256"}],"stateMutability":"view"},{"type":"function","name":"jojoDealer","inputs":[],"outputs":[{"name":"","type":"address","internalType":"contract JOJODealer"}],"stateMutability":"view"},{"type":"function","name":"jusdBank","inputs":[],"outputs":[{"name":"","type":"address","internalType":"contract IJUSDBank"}],"stateMutability":"view"}],"bytecode":{"object":"0x60806040523480156200001157600080fd5b50604051620029a0380380620029a0833981016040819052620000349162000094565b600080546001600160a01b039485166001600160a01b031991821617909155600180549385169382169390931790925560028054919093169116179055620000de565b80516001600160a01b03811681146200008f57600080fd5b919050565b600080600060608486031215620000aa57600080fd5b620000b58462000077565b9250620000c56020850162000077565b9150620000d56040850162000077565b90509250925092565b6128b280620000ee6000396000f3fe608060405234801561001057600080fd5b50600436106100935760003560e01c80638cfbcd79116100665780638cfbcd7914610129578063988571cc1461013c5780639c2255a8146101e2578063a14cdd2a14610202578063cec62f2e1461021557600080fd5b80630d5e798f1461009857806313b3dd5b146100c8578063623ae0e9146100e8578063667126f814610109575b600080fd5b6002546100ab906001600160a01b031681565b6040516001600160a01b0390911681526020015b60405180910390f35b6100db6100d6366004611f74565b610235565b6040516100bf9190612019565b6100fb6100f636600461211c565b610b47565b6040519081526020016100bf565b61011c610117366004611f74565b610bcb565b6040516100bf9190612185565b6000546100ab906001600160a01b031681565b61014f61014a36600461227f565b610efb565b6040516100bf9190815181526020808301519082015260408083015190820152606080830151908201526080808301519082015260a0808301519082015260c0808301519082015260e08083015190820152610100808301519082015261012080830151908201526101408083015190820152610160808301519082015261018091820151918101919091526101a00190565b6101f56101f0366004611f74565b611839565b6040516100bf919061229c565b6001546100ab906001600160a01b031681565b610228610223366004612369565b611d75565b6040516100bf91906123bd565b6060816001600160401b0381111561024f5761024f612401565b6040519080825280602002602001820160405280156102ef57816020015b6102dc60405180610180016040528060006001600160a01b03168152602001600081526020016000815260200160008152602001600081526020016000815260200160008152602001600081526020016000815260200160001515815260200160008152602001606081525090565b81526020019060019003908161026d5790505b50905060005b82811015610b405783838281811061030f5761030f612417565b9050602002016020810190610324919061227f565b82828151811061033657610336612417565b60209081029190910101516001600160a01b03918216905260008054909182918291829182911663c97ab30c8a8a8981811061037457610374612417565b9050602002016020810190610389919061227f565b6040516001600160e01b031960e084901b1681526001600160a01b03909116600482015260240160a06040518083038186803b1580156103c857600080fd5b505afa1580156103dc573d6000803e3d6000fd5b505050506040513d601f19601f82011682018060405250810190610400919061242d565b945094509450945094508487878151811061041d5761041d612417565b602002602001015160200181815250508387878151811061044057610440612417565b602002602001015160400181815250508287878151811061046357610463612417565b602002602001015160600181815250508187878151811061048657610486612417565b60200260200101516080018181525050808787815181106104a9576104a9612417565b6020908102919091010151610140015250506000805490935083925082915081906001600160a01b0316636e7530108989888181106104ea576104ea612417565b90506020020160208101906104ff919061227f565b6040516001600160e01b031960e084901b1681526001600160a01b03909116600482015260240160806040518083038186803b15801561053e57600080fd5b505afa158015610552573d6000803e3d6000fd5b505050506040513d601f19601f82011682018060405250810190610576919061246d565b93509350935093508386868151811061059157610591612417565b602002602001015160c0018181525050828686815181106105b4576105b4612417565b602002602001015160a0018181525050818686815181106105d7576105d7612417565b602002602001015160e0018181525050808686815181106105fa576105fa612417565b602090810291909101015161010001526000546001600160a01b031663769a28ac89898881811061062d5761062d612417565b9050602002016020810190610642919061227f565b6040516001600160e01b031960e084901b1681526001600160a01b03909116600482015260240160206040518083038186803b15801561068157600080fd5b505afa158015610695573d6000803e3d6000fd5b505050506040513d601f19601f820116820180604052508101906106b991906124b8565b8686815181106106cb576106cb612417565b602090810291909101015190151561012090910152600080546001600160a01b0316633eeb530e8a8a8981811061070457610704612417565b9050602002016020810190610719919061227f565b6040516001600160e01b031960e084901b1681526001600160a01b03909116600482015260240160006040518083038186803b15801561075857600080fd5b505afa15801561076c573d6000803e3d6000fd5b505050506040513d6000823e601f3d908101601f191682016040526107949190810190612536565b905080516001600160401b038111156107af576107af612401565b60405190808252806020026020018201604052801561081457816020015b610801604051806080016040528060006001600160a01b031681526020016000815260200160008152602001600081525090565b8152602001906001900390816107cd5790505b5087878151811061082757610827612417565b6020026020010151610160018190525060005b8151811015610b275760008083838151811061085857610858612417565b60200260200101516001600160a01b03166370a082318d8d8c81811061088057610880612417565b9050602002016020810190610895919061227f565b6040516001600160e01b031960e084901b1681526001600160a01b039091166004820152602401604080518083038186803b1580156108d357600080fd5b505afa1580156108e7573d6000803e3d6000fd5b505050506040513d601f19601f8201168201806040525081019061090b91906125e7565b9150915083838151811061092157610921612417565b60200260200101518a8a8151811061093b5761093b612417565b60200260200101516101600151848151811061095957610959612417565b6020026020010151600001906001600160a01b031690816001600160a01b031681525050818a8a8151811061099057610990612417565b6020026020010151610160015184815181106109ae576109ae612417565b60200260200101516020018181525050808a8a815181106109d1576109d1612417565b6020026020010151610160015184815181106109ef576109ef612417565b6020908102919091010151604001526000546001600160a01b0316631867b4808d8d8c818110610a2157610a21612417565b9050602002016020810190610a36919061227f565b868681518110610a4857610a48612417565b60200260200101516040518363ffffffff1660e01b8152600401610a829291906001600160a01b0392831681529116602082015260400190565b60206040518083038186803b158015610a9a57600080fd5b505afa158015610aae573d6000803e3d6000fd5b505050506040513d601f19601f82011682018060405250810190610ad2919061260b565b8a8a81518110610ae457610ae4612417565b602002602001015161016001518481518110610b0257610b02612417565b6020026020010151606001818152505050508080610b1f9061263a565b91505061083a565b5050505050508080610b389061263a565b9150506102f5565b5092915050565b6040516370a0823160e01b81526001600160a01b038281166004830152600091908416906370a082319060240160206040518083038186803b158015610b8c57600080fd5b505afa158015610ba0573d6000803e3d6000fd5b505050506040513d601f19601f82011682018060405250810190610bc4919061260b565b9392505050565b6060816001600160401b03811115610be557610be5612401565b604051908082528060200260200182016040528015610c1e57816020015b610c0b611eb0565b815260200190600190039081610c035790505b50905060005b82811015610b4057838382818110610c3e57610c3e612417565b9050602002016020810190610c53919061227f565b828281518110610c6557610c65612417565b60209081029190910101516001600160a01b03918216905260005416630baaa528858584818110610c9857610c98612417565b9050602002016020810190610cad919061227f565b6040516001600160e01b031960e084901b1681526001600160a01b03909116600482015260240160206040518083038186803b158015610cec57600080fd5b505afa158015610d00573d6000803e3d6000fd5b505050506040513d601f19601f82011682018060405250810190610d24919061260b565b828281518110610d3657610d36612417565b60209081029190910181015101526000546001600160a01b0316635d6f9c14858584818110610d6757610d67612417565b9050602002016020810190610d7c919061227f565b6040516001600160e01b031960e084901b1681526001600160a01b03909116600482015260240160206040518083038186803b158015610dbb57600080fd5b505afa158015610dcf573d6000803e3d6000fd5b505050506040513d601f19601f82011682018060405250810190610df3919061260b565b828281518110610e0557610e05612417565b6020908102919091010151604001526000546001600160a01b0316634f33cb53858584818110610e3757610e37612417565b9050602002016020810190610e4c919061227f565b6040516001600160e01b031960e084901b1681526001600160a01b03909116600482015260240160006040518083038186803b158015610e8b57600080fd5b505afa158015610e9f573d6000803e3d6000fd5b505050506040513d6000823e601f3d908101601f19168201604052610ec791908101906126c0565b828281518110610ed957610ed9612417565b6020026020010151606001819052508080610ef39061263a565b915050610c24565b610f66604051806101a00160405280600081526020016000815260200160008152602001600081526020016000815260200160008152602001600081526020016000815260200160008152602001600081526020016000815260200160008152602001600081525090565b6000805460025460405163325eacc360e21b81526001600160a01b0391821660048201528392919091169063c97ab30c9060240160a06040518083038186803b158015610fb257600080fd5b505afa158015610fc6573d6000803e3d6000fd5b505050506040513d601f19601f82011682018060405250810190610fea919061242d565b5050506020850182905260a08501819052600080546040805163c19d93fb60e01b8152905194965092945090926001600160a01b039091169163c19d93fb9160048083019260e0929190829003018186803b15801561104857600080fd5b505afa15801561105c573d6000803e3d6000fd5b505050506040513d601f19601f820116820180604052508101906110809190612776565b50506002546040516370a0823160e01b81526001600160a01b03918216600482015295965060009590871694506370a08231935060240191506110c09050565b60206040518083038186803b1580156110d857600080fd5b505afa1580156110ec573d6000803e3d6000fd5b505050506040513d601f19601f82011682018060405250810190611110919061260b565b80865260025460408051635c1548fb60e01b815290519293506000926001600160a01b0390921691635c1548fb91600480820192602092909190829003018186803b15801561115e57600080fd5b505afa158015611172573d6000803e3d6000fd5b505050506040513d601f19601f8201168201806040525081019061119691906127fb565b6002546040516370a0823160e01b81526001600160a01b0391821660048201529116906370a082319060240160206040518083038186803b1580156111da57600080fd5b505afa1580156111ee573d6000803e3d6000fd5b505050506040513d601f19601f82011682018060405250810190611212919061260b565b60408781018290526001546002548251635c1548fb60e01b815292519394506000936001600160a01b0392831693630ae112a49390921691635c1548fb916004808301926020929190829003018186803b15801561126f57600080fd5b505afa158015611283573d6000803e3d6000fd5b505050506040513d601f19601f820116820180604052508101906112a791906127fb565b60025460405160e084901b6001600160e01b03191681526001600160a01b0392831660048201529116602482015260440160206040518083038186803b1580156112f057600080fd5b505afa158015611304573d6000803e3d6000fd5b505050506040513d601f19601f82011682018060405250810190611328919061260b565b60608801819052600154600254604051637d6af07960e01b81526001600160a01b039182166004820152929350600092911690637d6af0799060240160206040518083038186803b15801561137c57600080fd5b505afa158015611390573d6000803e3d6000fd5b505050506040513d601f19601f820116820180604052508101906113b4919061260b565b608089018190526002546040516370a0823160e01b81526001600160a01b03918216600482015291925060009182918c16906370a0823190602401604080518083038186803b15801561140657600080fd5b505afa15801561141a573d6000803e3d6000fd5b505050506040513d601f19601f8201168201806040525081019061143e91906125e7565b60c08c0182905260e08c01819052600254604080516381045ead60e01b815290519395509193506000926001600160a01b03909116916381045ead916004808301926020929190829003018186803b15801561149957600080fd5b505afa1580156114ad573d6000803e3d6000fd5b505050506040513d601f19601f820116820180604052508101906114d1919061260b565b6101008c0181905260015460025460408051635c1548fb60e01b815290519394506000936001600160a01b03938416936351a40994931691635c1548fb916004808301926020929190829003018186803b15801561152e57600080fd5b505afa158015611542573d6000803e3d6000fd5b505050506040513d601f19601f8201168201806040525081019061156691906127fb565b6040516001600160e01b031960e084901b1681526001600160a01b03909116600482015260240160206040518083038186803b1580156115a557600080fd5b505afa1580156115b9573d6000803e3d6000fd5b505050506040513d601f19601f820116820180604052508101906115dd919061260b565b905060008060009054906101000a90046001600160a01b03166001600160a01b0316635d6f9c148f6040518263ffffffff1660e01b815260040161163091906001600160a01b0391909116815260200190565b60206040518083038186803b15801561164857600080fd5b505afa15801561165c573d6000803e3d6000fd5b505050506040513d601f19601f82011682018060405250810190611680919061260b565b6101408e0183905260025460408051635c1548fb60e01b815290519293506001600160a01b0390911691635c1548fb91600480820192602092909190829003018186803b1580156116d057600080fd5b505afa1580156116e4573d6000803e3d6000fd5b505050506040513d601f19601f8201168201806040525081019061170891906127fb565b6001600160a01b031663313ce5676040518163ffffffff1660e01b815260040160206040518083038186803b15801561174057600080fd5b505afa158015611754573d6000803e3d6000fd5b505050506040513d601f19601f820116820180604052508101906117789190612818565b60ff166101608e01528061179483670de0b6b3a764000061283b565b61179e919061285a565b6101208e015260025460408051632c65029760e11b815290516001600160a01b03909216916358ca052e91600480820192602092909190829003018186803b1580156117e957600080fd5b505afa1580156117fd573d6000803e3d6000fd5b505050506040513d601f19601f82011682018060405250810190611821919061260b565b6101808e0152509a9c9b505050505050505050505050565b6060816001600160401b0381111561185357611853612401565b6040519080825280602002602001820160405280156118a457816020015b60408051608081018252600080825260208083018290529282015260608082015282526000199092019101816118715790505b50905060005b82811015610b40578383828181106118c4576118c4612417565b90506020020160208101906118d9919061227f565b8282815181106118eb576118eb612417565b60209081029190910101516001600160a01b03918216905260015416637d6af07985858481811061191e5761191e612417565b9050602002016020810190611933919061227f565b6040516001600160e01b031960e084901b1681526001600160a01b03909116600482015260240160206040518083038186803b15801561197257600080fd5b505afa158015611986573d6000803e3d6000fd5b505050506040513d601f19601f820116820180604052508101906119aa919061260b565b8282815181106119bc576119bc612417565b60209081029190910181015101526001546001600160a01b031663d032886a8585848181106119ed576119ed612417565b9050602002016020810190611a02919061227f565b6040516001600160e01b031960e084901b1681526001600160a01b03909116600482015260240160206040518083038186803b158015611a4157600080fd5b505afa158015611a55573d6000803e3d6000fd5b505050506040513d601f19601f82011682018060405250810190611a7991906124b8565b828281518110611a8b57611a8b612417565b60209081029190910101519015156040909101526001546000906001600160a01b0316630eff8477868685818110611ac557611ac5612417565b9050602002016020810190611ada919061227f565b6040516001600160e01b031960e084901b1681526001600160a01b03909116600482015260240160006040518083038186803b158015611b1957600080fd5b505afa158015611b2d573d6000803e3d6000fd5b505050506040513d6000823e601f3d908101601f19168201604052611b559190810190612536565b905080516001600160401b03811115611b7057611b70612401565b604051908082528060200260200182016040528015611bb557816020015b6040805180820190915260008082526020820152815260200190600190039081611b8e5790505b50838381518110611bc857611bc8612417565b60200260200101516060018190525060005b8151811015611d6057818181518110611bf557611bf5612417565b6020026020010151848481518110611c0f57611c0f612417565b6020026020010151606001518281518110611c2c57611c2c612417565b60209081029190910101516001600160a01b0391821690526001548351911690630ae112a490849084908110611c6457611c64612417565b6020026020010151888887818110611c7e57611c7e612417565b9050602002016020810190611c93919061227f565b6040516001600160e01b031960e085901b1681526001600160a01b0392831660048201529116602482015260440160206040518083038186803b158015611cd957600080fd5b505afa158015611ced573d6000803e3d6000fd5b505050506040513d601f19601f82011682018060405250810190611d11919061260b565b848481518110611d2357611d23612417565b6020026020010151606001518281518110611d4057611d40612417565b602090810291909101810151015280611d588161263a565b915050611bda565b50508080611d6d9061263a565b9150506118aa565b6060816001600160401b03811115611d8f57611d8f612401565b604051908082528060200260200182016040528015611db8578160200160208202803683370190505b50905060005b82811015611ea8576000856001600160a01b03166370a08231868685818110611de957611de9612417565b9050602002016020810190611dfe919061227f565b6040516001600160e01b031960e084901b1681526001600160a01b039091166004820152602401604080518083038186803b158015611e3c57600080fd5b505afa158015611e50573d6000803e3d6000fd5b505050506040513d601f19601f82011682018060405250810190611e7491906125e7565b50905080838381518110611e8a57611e8a612417565b60209081029190910101525080611ea08161263a565b915050611dbe565b509392505050565b604051806080016040528060006001600160a01b031681526020016000815260200160008152602001611f246040518060e001604052806000815260200160008152602001600081526020016000815260200160006001600160a01b03168152602001606081526020016000151581525090565b905290565b60008083601f840112611f3b57600080fd5b5081356001600160401b03811115611f5257600080fd5b6020830191508360208260051b8501011115611f6d57600080fd5b9250929050565b60008060208385031215611f8757600080fd5b82356001600160401b03811115611f9d57600080fd5b611fa985828601611f29565b90969095509350505050565b600081518084526020808501945080840160005b8381101561200e57815180516001600160a01b031688528381015184890152604080820151908901526060908101519088015260809096019590820190600101611fc9565b509495945050505050565b60006020808301818452808551808352604092508286019150828160051b87010184880160005b838110156120f657603f19898403018552815180516001600160a01b0316845287810151888501528681015187850152606080820151908501526080808201519085015260a0808201519085015260c0808201519085015260e08082015190850152610100808201519085015261012080820151151590850152610140808201519085015261016090810151610180918501829052906120e281860183611fb5565b968901969450505090860190600101612040565b509098975050505050505050565b6001600160a01b038116811461211957600080fd5b50565b6000806040838503121561212f57600080fd5b823561213a81612104565b9150602083013561214a81612104565b809150509250929050565b60005b83811015612170578181015183820152602001612158565b8381111561217f576000848401525b50505050565b60006020808301818452808551808352604092508286019150828160051b87010184880160005b838110156120f657603f198984030185528151608060018060a01b03808351168652898301518a8701528883015189870152606080840151935082818801528351838801528a8401518060a0890152508984015160c081818a015282860151925060e0915082828a01528385870151166101008a015260a08601519450816101208a015284519350836101608a0152610180925061224f84848b018f8801612155565b94909401511515610140880152978a0197601f91909101601f1916909501909401935050908601906001016121ac565b60006020828403121561229157600080fd5b8135610bc481612104565b60006020808301818452808551808352604092508286019150828160051b8701018488016000805b8481101561235a57898403603f19018652825180516001600160a01b039081168652898201518a87015288820151151589870152606091820151608092870183905280519287018390528a019160a087019185915b808310156123445784518051831685528d01518d850152938c0193928b019260019290920191612319565b50505096890196945050918701916001016122c4565b50919998505050505050505050565b60008060006040848603121561237e57600080fd5b833561238981612104565b925060208401356001600160401b038111156123a457600080fd5b6123b086828701611f29565b9497909650939450505050565b6020808252825182820181905260009190848201906040850190845b818110156123f5578351835292840192918401916001016123d9565b50909695505050505050565b634e487b7160e01b600052604160045260246000fd5b634e487b7160e01b600052603260045260246000fd5b600080600080600060a0868803121561244557600080fd5b5050835160208501516040860151606087015160809097015192989197509594509092509050565b6000806000806080858703121561248357600080fd5b505082516020840151604085015160609095015191969095509092509050565b805180151581146124b357600080fd5b919050565b6000602082840312156124ca57600080fd5b610bc4826124a3565b60405160e081016001600160401b03811182821017156124f5576124f5612401565b60405290565b604051601f8201601f191681016001600160401b038111828210171561252357612523612401565b604052919050565b80516124b381612104565b6000602080838503121561254957600080fd5b82516001600160401b038082111561256057600080fd5b818501915085601f83011261257457600080fd5b81518181111561258657612586612401565b8060051b91506125978483016124fb565b81815291830184019184810190888411156125b157600080fd5b938501935b838510156125db57845192506125cb83612104565b82825293850193908501906125b6565b98975050505050505050565b600080604083850312156125fa57600080fd5b505080516020909101519092909150565b60006020828403121561261d57600080fd5b5051919050565b634e487b7160e01b600052601160045260246000fd5b600060001982141561264e5761264e612624565b5060010190565b600082601f83011261266657600080fd5b81516001600160401b0381111561267f5761267f612401565b612692601f8201601f19166020016124fb565b8181528460208386010111156126a757600080fd5b6126b8826020830160208701612155565b949350505050565b6000602082840312156126d257600080fd5b81516001600160401b03808211156126e957600080fd5b9083019060e082860312156126fd57600080fd5b6127056124d3565b825181526020830151602082015260408301516040820152606083015160608201526127336080840161252b565b608082015260a08301518281111561274a57600080fd5b61275687828601612655565b60a08301525061276860c084016124a3565b60c082015295945050505050565b600080600080600080600060e0888a03121561279157600080fd5b875161279c81612104565b60208901519097506127ad81612104565b604089015190965094506127c3606089016124a3565b935060808801516127d381612104565b60a08901519093506127e481612104565b8092505060c0880151905092959891949750929550565b60006020828403121561280d57600080fd5b8151610bc481612104565b60006020828403121561282a57600080fd5b815160ff81168114610bc457600080fd5b600081600019048311821515161561285557612855612624565b500290565b60008261287757634e487b7160e01b600052601260045260246000fd5b50049056fea26469706673582212208fd3699d90296f7e28d4e402323fc49c262e98efe8dd9278b941c87f9f7354a464736f6c63430008090033","linkReferences":{}},"methodIdentifiers":{"fundingRateArbitrage()":"0d5e798f","getAccountJUSDStates(address[])":"9c2255a8","getAccountsStates(address[])":"13b3dd5b","getHedgingState(address)":"988571cc","getPerpPaperBalances(address,address[])":"cec62f2e","getPerpsStates(address[])":"667126f8","getWalletBalance(address,address)":"623ae0e9","jojoDealer()":"8cfbcd79","jusdBank()":"a14cdd2a"},"id":82}