{"abi":[{"type":"constructor","inputs":[{"name":"_USDC","type":"address","internalType":"address"}],"stateMutability":"nonpayable"},{"type":"function","name":"swap","inputs":[{"name":"amount","type":"uint256","internalType":"uint256"},{"name":"token","type":"address","internalType":"address"}],"outputs":[],"stateMutability":"nonpayable"}],"bytecode":{"object":"0x608060405234801561001057600080fd5b5060405161052838038061052883398101604081905261002f91610054565b600080546001600160a01b0319166001600160a01b0392909216919091179055610084565b60006020828403121561006657600080fd5b81516001600160a01b038116811461007d57600080fd5b9392505050565b610495806100936000396000f3fe608060405234801561001057600080fd5b506004361061002b5760003560e01c8063d3986f0814610030575b600080fd5b61004361003e36600461037f565b610045565b005b61005a6001600160a01b038216333085610075565b600054610071906001600160a01b031633846100e6565b5050565b6040516001600160a01b03808516602483015283166044820152606481018290526100e09085906323b872dd60e01b906084015b60408051601f198184030181529190526020810180516001600160e01b03166001600160e01b03199093169290921790915261011b565b50505050565b6040516001600160a01b03831660248201526044810182905261011690849063a9059cbb60e01b906064016100a9565b505050565b6000610170826040518060400160405280602081526020017f5361666545524332303a206c6f772d6c6576656c2063616c6c206661696c6564815250856001600160a01b03166101f29092919063ffffffff16565b805190915015610116578080602001905181019061018e91906103bb565b6101165760405162461bcd60e51b815260206004820152602a60248201527f5361666545524332303a204552433230206f7065726174696f6e20646964206e6044820152691bdd081cdd58d8d9595960b21b60648201526084015b60405180910390fd5b60606102018484600085610209565b949350505050565b60608247101561026a5760405162461bcd60e51b815260206004820152602660248201527f416464726573733a20696e73756666696369656e742062616c616e636520666f6044820152651c8818d85b1b60d21b60648201526084016101e9565b600080866001600160a01b031685876040516102869190610410565b60006040518083038185875af1925050503d80600081146102c3576040519150601f19603f3d011682016040523d82523d6000602084013e6102c8565b606091505b50915091506102d9878383876102e4565b979650505050505050565b60608315610350578251610349576001600160a01b0385163b6103495760405162461bcd60e51b815260206004820152601d60248201527f416464726573733a2063616c6c20746f206e6f6e2d636f6e747261637400000060448201526064016101e9565b5081610201565b61020183838151156103655781518083602001fd5b8060405162461bcd60e51b81526004016101e9919061042c565b6000806040838503121561039257600080fd5b8235915060208301356001600160a01b03811681146103b057600080fd5b809150509250929050565b6000602082840312156103cd57600080fd5b815180151581146103dd57600080fd5b9392505050565b60005b838110156103ff5781810151838201526020016103e7565b838111156100e05750506000910152565b600082516104228184602087016103e4565b9190910192915050565b602081526000825180602084015261044b8160408501602087016103e4565b601f01601f1916919091016040019291505056fea2646970667358221220ee14656efd69b98fa95f4fcb767353688aced6d856cdc755f8641fa119d54f9964736f6c63430008090033","linkReferences":{}},"methodIdentifiers":{"swap(uint256,address)":"d3986f08"},"id":37}