{"abi":[{"type":"constructor","inputs":[{"name":"_price","type":"uint256","internalType":"uint256"}],"stateMutability":"nonpayable"},{"type":"function","name":"getMarkPrice","inputs":[],"outputs":[{"name":"","type":"uint256","internalType":"uint256"}],"stateMutability":"view"},{"type":"function","name":"price","inputs":[],"outputs":[{"name":"","type":"uint256","internalType":"uint256"}],"stateMutability":"view"}],"bytecode":{"object":"0x60a060405234801561001057600080fd5b5060405161013538038061013583398101604081905261002f91610037565b608052610050565b60006020828403121561004957600080fd5b5051919050565b60805160c761006e6000396000818160390152606f015260c76000f3fe6080604052348015600f57600080fd5b506004361060325760003560e01c806360409632146037578063a035b1fe14606b575b600080fd5b7f00000000000000000000000000000000000000000000000000000000000000005b60405190815260200160405180910390f35b60597f00000000000000000000000000000000000000000000000000000000000000008156fea2646970667358221220a8fd96686d8488128f2bedf7202910536ec073c43ef56b56d684cb00b7a8bb1264736f6c63430008090033","linkReferences":{}},"methodIdentifiers":{"getMarkPrice()":"60409632","price()":"a035b1fe"},"id":2}