{"abi":[{"type":"function","name":"ORDER_TYPEHASH","inputs":[],"outputs":[{"name":"","type":"bytes32","internalType":"bytes32"}],"stateMutability":"view"}],"bytecode":{"object":"0x60a6610038600b82828239805160001a607314602b57634e487b7160e01b600052600060045260246000fd5b30600052607381538281f3fe730000000000000000000000000000000000000000301460806040526004361060335760003560e01c8063f973a209146038575b600080fd5b605e7f6ce22f1be37c24a60b088bc91a456d1ae077db421fa72ffe85abd6af245899e481565b60405190815260200160405180910390f3fea2646970667358221220c60779a6f1a6aa587c970ff724481e147be6297ea58cb887d4ef79c2b4a2e09864736f6c63430008090033","linkReferences":{}},"methodIdentifiers":{"ORDER_TYPEHASH()":"f973a209"},"id":70}