{"abi":[{"type":"constructor","inputs":[{"name":"_JOJODealer","type":"address","internalType":"address"},{"name":"_usdc","type":"address","internalType":"address"},{"name":"_weth","type":"address","internalType":"address"}],"stateMutability":"nonpayable"},{"type":"function","name":"depositStableCoin","inputs":[{"name":"asset","type":"address","internalType":"address"},{"name":"amount","type":"uint256","internalType":"uint256"},{"name":"to","type":"address","internalType":"address"},{"name":"param","type":"bytes","internalType":"bytes"},{"name":"minReceive","type":"uint256","internalType":"uint256"}],"outputs":[],"stateMutability":"payable"},{"type":"function","name":"jojoDealer","inputs":[],"outputs":[{"name":"","type":"address","internalType":"address"}],"stateMutability":"view"},{"type":"function","name":"owner","inputs":[],"outputs":[{"name":"","type":"address","internalType":"address"}],"stateMutability":"view"},{"type":"function","name":"renounceOwnership","inputs":[],"outputs":[],"stateMutability":"nonpayable"},{"type":"function","name":"setWhiteListContract","inputs":[{"name":"targetContract","type":"address","internalType":"address"},{"name":"isValid","type":"bool","internalType":"bool"}],"outputs":[],"stateMutability":"nonpayable"},{"type":"function","name":"transferOwnership","inputs":[{"name":"newOwner","type":"address","internalType":"address"}],"outputs":[],"stateMutability":"nonpayable"},{"type":"function","name":"usdc","inputs":[],"outputs":[{"name":"","type":"address","internalType":"address"}],"stateMutability":"view"},{"type":"function","name":"weth","inputs":[],"outputs":[{"name":"","type":"address","internalType":"address"}],"stateMutability":"view"},{"type":"function","name":"whiteListContract","inputs":[{"name":"","type":"address","internalType":"address"}],"outputs":[{"name":"","type":"bool","internalType":"bool"}],"stateMutability":"view"},{"type":"event","name":"OwnershipTransferred","inputs":[{"name":"previousOwner","type":"address","indexed":true,"internalType":"address"},{"name":"newOwner","type":"address","indexed":true,"internalType":"address"}],"anonymous":false}],"bytecode":{"object":"0x60e060405234801561001057600080fd5b5060405161108338038061108383398101604081905261002f916100c1565b61003833610055565b6001600160a01b0392831660805290821660a0521660c052610104565b600080546001600160a01b038381166001600160a01b0319831681178455604051919092169283917f8be0079c531659141344cd1fd0a4f28419497f9722a3daafe3b4186f6b6457e09190a35050565b80516001600160a01b03811681146100bc57600080fd5b919050565b6000806000606084860312156100d657600080fd5b6100df846100a5565b92506100ed602085016100a5565b91506100fb604085016100a5565b90509250925092565b60805160a05160c051610f2861015b6000396000818160ee0152818161020e0152610253015260008181609d0152818161049b01526105b501526000818161014c01528181610586015261065f0152610f286000f3fe6080604052600436106100865760003560e01c80638cfbcd79116100595780638cfbcd791461013a5780638da5cb5b1461016e5780638f68ca701461018c578063b44ec921146101ac578063f2fde38b146101ec57600080fd5b80633e413bee1461008b5780633fc8cef3146100dc57806360c31df414610110578063715018a614610125575b600080fd5b34801561009757600080fd5b506100bf7f000000000000000000000000000000000000000000000000000000000000000081565b6040516001600160a01b0390911681526020015b60405180910390f35b3480156100e857600080fd5b506100bf7f000000000000000000000000000000000000000000000000000000000000000081565b61012361011e366004610c40565b61020c565b005b34801561013157600080fd5b506101236106c8565b34801561014657600080fd5b506100bf7f000000000000000000000000000000000000000000000000000000000000000081565b34801561017a57600080fd5b506000546001600160a01b03166100bf565b34801561019857600080fd5b506101236101a7366004610cf8565b6106dc565b3480156101b857600080fd5b506101dc6101c7366004610d31565b60016020526000908152604090205460ff1681565b60405190151581526020016100d3565b3480156101f857600080fd5b50610123610207366004610d31565b61070f565b7f00000000000000000000000000000000000000000000000000000000000000006001600160a01b0316866001600160a01b031614801561024c57508434145b156102ca577f00000000000000000000000000000000000000000000000000000000000000006001600160a01b031663d0e30db0866040518263ffffffff1660e01b81526004016000604051808303818588803b1580156102ac57600080fd5b505af11580156102c0573d6000803e3d6000fd5b50505050506102df565b6102df6001600160a01b038716333088610788565b600080806102ef85870187610d6b565b6001600160a01b038316600090815260016020526040902054929550909350915060ff166103735760405162461bcd60e51b815260206004820152602660248201527f617070726f766520746172676574206973206e6f7420696e20746865207768696044820152651d195b1a5cdd60d21b60648201526084015b60405180910390fd5b6001600160a01b03821660009081526001602052604090205460ff166103e75760405162461bcd60e51b815260206004820152602360248201527f7377617020746172676574206973206e6f7420696e207468652077686974656c6044820152621a5cdd60ea1b606482015260840161036a565b6103fc6001600160a01b038a168460006107f9565b6104106001600160a01b038a16848a6107f9565b6000826001600160a01b03168260405161042a9190610e6d565b6000604051808303816000865af19150503d8060008114610467576040519150601f19603f3d011682016040523d82523d6000602084013e61046c565b606091505b509091505080610483576040513d806000833e8082fd5b6040516370a0823160e01b81523060048201526000907f00000000000000000000000000000000000000000000000000000000000000006001600160a01b0316906370a082319060240160206040518083038186803b1580156104e557600080fd5b505afa1580156104f9573d6000803e3d6000fd5b505050506040513d601f19601f8201168201806040525081019061051d9190610e89565b90508581101561056f5760405162461bcd60e51b815260206004820152601b60248201527f7265636569766520616d6f756e7420697320746f6f20736d616c6c0000000000604482015260640161036a565b60405163095ea7b360e01b81526001600160a01b037f000000000000000000000000000000000000000000000000000000000000000081166004830152602482018390527f0000000000000000000000000000000000000000000000000000000000000000169063095ea7b390604401602060405180830381600087803b1580156105f957600080fd5b505af115801561060d573d6000803e3d6000fd5b505050506040513d601f19601f820116820180604052508101906106319190610ea2565b50604051638dbdbe6d60e01b815260048101829052600060248201526001600160a01b038a811660448301527f00000000000000000000000000000000000000000000000000000000000000001690638dbdbe6d90606401600060405180830381600087803b1580156106a357600080fd5b505af11580156106b7573d6000803e3d6000fd5b505050505050505050505050505050565b6106d0610922565b6106da600061097c565b565b6106e4610922565b6001600160a01b03919091166000908152600160205260409020805460ff1916911515919091179055565b610717610922565b6001600160a01b03811661077c5760405162461bcd60e51b815260206004820152602660248201527f4f776e61626c653a206e6577206f776e657220697320746865207a65726f206160448201526564647265737360d01b606482015260840161036a565b6107858161097c565b50565b6040516001600160a01b03808516602483015283166044820152606481018290526107f39085906323b872dd60e01b906084015b60408051601f198184030181529190526020810180516001600160e01b03166001600160e01b0319909316929092179091526109cc565b50505050565b8015806108825750604051636eb1769f60e11b81523060048201526001600160a01b03838116602483015284169063dd62ed3e9060440160206040518083038186803b15801561084857600080fd5b505afa15801561085c573d6000803e3d6000fd5b505050506040513d601f19601f820116820180604052508101906108809190610e89565b155b6108ed5760405162461bcd60e51b815260206004820152603660248201527f5361666545524332303a20617070726f76652066726f6d206e6f6e2d7a65726f60448201527520746f206e6f6e2d7a65726f20616c6c6f77616e636560501b606482015260840161036a565b6040516001600160a01b03831660248201526044810182905261091d90849063095ea7b360e01b906064016107bc565b505050565b6000546001600160a01b031633146106da5760405162461bcd60e51b815260206004820181905260248201527f4f776e61626c653a2063616c6c6572206973206e6f7420746865206f776e6572604482015260640161036a565b600080546001600160a01b038381166001600160a01b0319831681178455604051919092169283917f8be0079c531659141344cd1fd0a4f28419497f9722a3daafe3b4186f6b6457e09190a35050565b6000610a21826040518060400160405280602081526020017f5361666545524332303a206c6f772d6c6576656c2063616c6c206661696c6564815250856001600160a01b0316610a9e9092919063ffffffff16565b80519091501561091d5780806020019051810190610a3f9190610ea2565b61091d5760405162461bcd60e51b815260206004820152602a60248201527f5361666545524332303a204552433230206f7065726174696f6e20646964206e6044820152691bdd081cdd58d8d9595960b21b606482015260840161036a565b6060610aad8484600085610ab5565b949350505050565b606082471015610b165760405162461bcd60e51b815260206004820152602660248201527f416464726573733a20696e73756666696369656e742062616c616e636520666f6044820152651c8818d85b1b60d21b606482015260840161036a565b600080866001600160a01b03168587604051610b329190610e6d565b60006040518083038185875af1925050503d8060008114610b6f576040519150601f19603f3d011682016040523d82523d6000602084013e610b74565b606091505b5091509150610b8587838387610b90565b979650505050505050565b60608315610bfc578251610bf5576001600160a01b0385163b610bf55760405162461bcd60e51b815260206004820152601d60248201527f416464726573733a2063616c6c20746f206e6f6e2d636f6e7472616374000000604482015260640161036a565b5081610aad565b610aad8383815115610c115781518083602001fd5b8060405162461bcd60e51b815260040161036a9190610ebf565b6001600160a01b038116811461078557600080fd5b60008060008060008060a08789031215610c5957600080fd5b8635610c6481610c2b565b9550602087013594506040870135610c7b81610c2b565b9350606087013567ffffffffffffffff80821115610c9857600080fd5b818901915089601f830112610cac57600080fd5b813581811115610cbb57600080fd5b8a6020828501011115610ccd57600080fd5b602083019550809450505050608087013590509295509295509295565b801515811461078557600080fd5b60008060408385031215610d0b57600080fd5b8235610d1681610c2b565b91506020830135610d2681610cea565b809150509250929050565b600060208284031215610d4357600080fd5b8135610d4e81610c2b565b9392505050565b634e487b7160e01b600052604160045260246000fd5b600080600060608486031215610d8057600080fd5b8335610d8b81610c2b565b92506020840135610d9b81610c2b565b9150604084013567ffffffffffffffff80821115610db857600080fd5b818601915086601f830112610dcc57600080fd5b813581811115610dde57610dde610d55565b604051601f8201601f19908116603f01168101908382118183101715610e0657610e06610d55565b81604052828152896020848701011115610e1f57600080fd5b8260208601602083013760006020848301015280955050505050509250925092565b60005b83811015610e5c578181015183820152602001610e44565b838111156107f35750506000910152565b60008251610e7f818460208701610e41565b9190910192915050565b600060208284031215610e9b57600080fd5b5051919050565b600060208284031215610eb457600080fd5b8151610d4e81610cea565b6020815260008251806020840152610ede816040850160208701610e41565b601f01601f1916919091016040019291505056fea2646970667358221220cc8fe431718fe7f84137067bc13ce215956d4ccebe5b69a05692e14e6ebfeee464736f6c63430008090033","linkReferences":{}},"methodIdentifiers":{"depositStableCoin(address,uint256,address,bytes,uint256)":"60c31df4","jojoDealer()":"8cfbcd79","owner()":"8da5cb5b","renounceOwnership()":"715018a6","setWhiteListContract(address,bool)":"8f68ca70","transferOwnership(address)":"f2fde38b","usdc()":"3e413bee","weth()":"3fc8cef3","whiteListContract(address)":"b44ec921"},"id":48}