{"abi":[{"type":"constructor","inputs":[{"name":"_JOJODealer","type":"address","internalType":"address"},{"name":"_USDC","type":"address","internalType":"address"},{"name":"_WETH","type":"address","internalType":"address"}],"stateMutability":"nonpayable"},{"type":"function","name":"JOJODealer","inputs":[],"outputs":[{"name":"","type":"address","internalType":"address"}],"stateMutability":"view"},{"type":"function","name":"USDC","inputs":[],"outputs":[{"name":"","type":"address","internalType":"address"}],"stateMutability":"view"},{"type":"function","name":"WETH","inputs":[],"outputs":[{"name":"","type":"address","internalType":"address"}],"stateMutability":"view"},{"type":"function","name":"depositStableCoin","inputs":[{"name":"asset","type":"address","internalType":"address"},{"name":"amount","type":"uint256","internalType":"uint256"},{"name":"to","type":"address","internalType":"address"},{"name":"param","type":"bytes","internalType":"bytes"},{"name":"minReceive","type":"uint256","internalType":"uint256"}],"outputs":[],"stateMutability":"payable"},{"type":"function","name":"owner","inputs":[],"outputs":[{"name":"","type":"address","internalType":"address"}],"stateMutability":"view"},{"type":"function","name":"renounceOwnership","inputs":[],"outputs":[],"stateMutability":"nonpayable"},{"type":"function","name":"setWhiteListContract","inputs":[{"name":"targetContract","type":"address","internalType":"address"},{"name":"isValid","type":"bool","internalType":"bool"}],"outputs":[],"stateMutability":"nonpayable"},{"type":"function","name":"transferOwnership","inputs":[{"name":"newOwner","type":"address","internalType":"address"}],"outputs":[],"stateMutability":"nonpayable"},{"type":"function","name":"whiteListContract","inputs":[{"name":"","type":"address","internalType":"address"}],"outputs":[{"name":"","type":"bool","internalType":"bool"}],"stateMutability":"view"},{"type":"event","name":"OwnershipTransferred","inputs":[{"name":"previousOwner","type":"address","indexed":true,"internalType":"address"},{"name":"newOwner","type":"address","indexed":true,"internalType":"address"}],"anonymous":false}],"bytecode":{"object":"0x60c060405234801561001057600080fd5b5060405161103a38038061103a83398101604081905261002f916100d2565b61003833610066565b6001600160a01b0392831660805290821660a052600280546001600160a01b03191691909216179055610115565b600080546001600160a01b038381166001600160a01b0319831681178455604051919092169283917f8be0079c531659141344cd1fd0a4f28419497f9722a3daafe3b4186f6b6457e09190a35050565b80516001600160a01b03811681146100cd57600080fd5b919050565b6000806000606084860312156100e757600080fd5b6100f0846100b6565b92506100fe602085016100b6565b915061010c604085016100b6565b90509250925092565b60805160a051610ee56101556000396000818160c701528181610458015261057201526000818161015601528181610543015261061c0152610ee56000f3fe6080604052600436106100865760003560e01c80638f68ca70116100595780638f68ca70146101245780639d3dcb6614610144578063ad5c464814610178578063b44ec92114610198578063f2fde38b146101d857600080fd5b806360c31df41461008b578063715018a6146100a057806389a30271146100b55780638da5cb5b14610106575b600080fd5b61009e610099366004610bfd565b6101f8565b005b3480156100ac57600080fd5b5061009e610685565b3480156100c157600080fd5b506100e97f000000000000000000000000000000000000000000000000000000000000000081565b6040516001600160a01b0390911681526020015b60405180910390f35b34801561011257600080fd5b506000546001600160a01b03166100e9565b34801561013057600080fd5b5061009e61013f366004610cb5565b610699565b34801561015057600080fd5b506100e97f000000000000000000000000000000000000000000000000000000000000000081565b34801561018457600080fd5b506002546100e9906001600160a01b031681565b3480156101a457600080fd5b506101c86101b3366004610cee565b60016020526000908152604090205460ff1681565b60405190151581526020016100fd565b3480156101e457600080fd5b5061009e6101f3366004610cee565b6106cc565b6002546001600160a01b03878116911614801561021457508434145b1561028757600260009054906101000a90046001600160a01b03166001600160a01b031663d0e30db0866040518263ffffffff1660e01b81526004016000604051808303818588803b15801561026957600080fd5b505af115801561027d573d6000803e3d6000fd5b505050505061029c565b61029c6001600160a01b038716333088610745565b600080806102ac85870187610d28565b6001600160a01b038316600090815260016020526040902054929550909350915060ff166103305760405162461bcd60e51b815260206004820152602660248201527f617070726f766520746172676574206973206e6f7420696e20746865207768696044820152651d195b1a5cdd60d21b60648201526084015b60405180910390fd5b6001600160a01b03821660009081526001602052604090205460ff166103a45760405162461bcd60e51b815260206004820152602360248201527f7377617020746172676574206973206e6f7420696e207468652077686974656c6044820152621a5cdd60ea1b6064820152608401610327565b6103b96001600160a01b038a168460006107b6565b6103cd6001600160a01b038a16848a6107b6565b6000826001600160a01b0316826040516103e79190610e2a565b6000604051808303816000865af19150503d8060008114610424576040519150601f19603f3d011682016040523d82523d6000602084013e610429565b606091505b509091505080610440576040513d806000833e8082fd5b6040516370a0823160e01b81523060048201526000907f00000000000000000000000000000000000000000000000000000000000000006001600160a01b0316906370a082319060240160206040518083038186803b1580156104a257600080fd5b505afa1580156104b6573d6000803e3d6000fd5b505050506040513d601f19601f820116820180604052508101906104da9190610e46565b90508581101561052c5760405162461bcd60e51b815260206004820152601b60248201527f7265636569766520616d6f756e7420697320746f6f20736d616c6c00000000006044820152606401610327565b60405163095ea7b360e01b81526001600160a01b037f000000000000000000000000000000000000000000000000000000000000000081166004830152602482018390527f0000000000000000000000000000000000000000000000000000000000000000169063095ea7b390604401602060405180830381600087803b1580156105b657600080fd5b505af11580156105ca573d6000803e3d6000fd5b505050506040513d601f19601f820116820180604052508101906105ee9190610e5f565b50604051638dbdbe6d60e01b815260048101829052600060248201526001600160a01b038a811660448301527f00000000000000000000000000000000000000000000000000000000000000001690638dbdbe6d90606401600060405180830381600087803b15801561066057600080fd5b505af1158015610674573d6000803e3d6000fd5b505050505050505050505050505050565b61068d6108df565b6106976000610939565b565b6106a16108df565b6001600160a01b03919091166000908152600160205260409020805460ff1916911515919091179055565b6106d46108df565b6001600160a01b0381166107395760405162461bcd60e51b815260206004820152602660248201527f4f776e61626c653a206e6577206f776e657220697320746865207a65726f206160448201526564647265737360d01b6064820152608401610327565b61074281610939565b50565b6040516001600160a01b03808516602483015283166044820152606481018290526107b09085906323b872dd60e01b906084015b60408051601f198184030181529190526020810180516001600160e01b03166001600160e01b031990931692909217909152610989565b50505050565b80158061083f5750604051636eb1769f60e11b81523060048201526001600160a01b03838116602483015284169063dd62ed3e9060440160206040518083038186803b15801561080557600080fd5b505afa158015610819573d6000803e3d6000fd5b505050506040513d601f19601f8201168201806040525081019061083d9190610e46565b155b6108aa5760405162461bcd60e51b815260206004820152603660248201527f5361666545524332303a20617070726f76652066726f6d206e6f6e2d7a65726f60448201527520746f206e6f6e2d7a65726f20616c6c6f77616e636560501b6064820152608401610327565b6040516001600160a01b0383166024820152604481018290526108da90849063095ea7b360e01b90606401610779565b505050565b6000546001600160a01b031633146106975760405162461bcd60e51b815260206004820181905260248201527f4f776e61626c653a2063616c6c6572206973206e6f7420746865206f776e65726044820152606401610327565b600080546001600160a01b038381166001600160a01b0319831681178455604051919092169283917f8be0079c531659141344cd1fd0a4f28419497f9722a3daafe3b4186f6b6457e09190a35050565b60006109de826040518060400160405280602081526020017f5361666545524332303a206c6f772d6c6576656c2063616c6c206661696c6564815250856001600160a01b0316610a5b9092919063ffffffff16565b8051909150156108da57808060200190518101906109fc9190610e5f565b6108da5760405162461bcd60e51b815260206004820152602a60248201527f5361666545524332303a204552433230206f7065726174696f6e20646964206e6044820152691bdd081cdd58d8d9595960b21b6064820152608401610327565b6060610a6a8484600085610a72565b949350505050565b606082471015610ad35760405162461bcd60e51b815260206004820152602660248201527f416464726573733a20696e73756666696369656e742062616c616e636520666f6044820152651c8818d85b1b60d21b6064820152608401610327565b600080866001600160a01b03168587604051610aef9190610e2a565b60006040518083038185875af1925050503d8060008114610b2c576040519150601f19603f3d011682016040523d82523d6000602084013e610b31565b606091505b5091509150610b4287838387610b4d565b979650505050505050565b60608315610bb9578251610bb2576001600160a01b0385163b610bb25760405162461bcd60e51b815260206004820152601d60248201527f416464726573733a2063616c6c20746f206e6f6e2d636f6e74726163740000006044820152606401610327565b5081610a6a565b610a6a8383815115610bce5781518083602001fd5b8060405162461bcd60e51b81526004016103279190610e7c565b6001600160a01b038116811461074257600080fd5b60008060008060008060a08789031215610c1657600080fd5b8635610c2181610be8565b9550602087013594506040870135610c3881610be8565b9350606087013567ffffffffffffffff80821115610c5557600080fd5b818901915089601f830112610c6957600080fd5b813581811115610c7857600080fd5b8a6020828501011115610c8a57600080fd5b602083019550809450505050608087013590509295509295509295565b801515811461074257600080fd5b60008060408385031215610cc857600080fd5b8235610cd381610be8565b91506020830135610ce381610ca7565b809150509250929050565b600060208284031215610d0057600080fd5b8135610d0b81610be8565b9392505050565b634e487b7160e01b600052604160045260246000fd5b600080600060608486031215610d3d57600080fd5b8335610d4881610be8565b92506020840135610d5881610be8565b9150604084013567ffffffffffffffff80821115610d7557600080fd5b818601915086601f830112610d8957600080fd5b813581811115610d9b57610d9b610d12565b604051601f8201601f19908116603f01168101908382118183101715610dc357610dc3610d12565b81604052828152896020848701011115610ddc57600080fd5b8260208601602083013760006020848301015280955050505050509250925092565b60005b83811015610e19578181015183820152602001610e01565b838111156107b05750506000910152565b60008251610e3c818460208701610dfe565b9190910192915050565b600060208284031215610e5857600080fd5b5051919050565b600060208284031215610e7157600080fd5b8151610d0b81610ca7565b6020815260008251806020840152610e9b816040850160208701610dfe565b601f01601f1916919091016040019291505056fea26469706673582212202732b4e61dccaacd4854b5721379bc15731918cf7889c45edb56fd362eafef1f64736f6c63430008090033","linkReferences":{}},"methodIdentifiers":{"JOJODealer()":"9d3dcb66","USDC()":"89a30271","WETH()":"ad5c4648","depositStableCoin(address,uint256,address,bytes,uint256)":"60c31df4","owner()":"8da5cb5b","renounceOwnership()":"715018a6","setWhiteListContract(address,bool)":"8f68ca70","transferOwnership(address)":"f2fde38b","whiteListContract(address)":"b44ec921"},"id":25}