{"abi":[{"type":"function","name":"approve","inputs":[{"name":"spender","type":"address","internalType":"address"},{"name":"id","type":"uint256","internalType":"uint256"}],"outputs":[],"stateMutability":"nonpayable"},{"type":"function","name":"balanceOf","inputs":[{"name":"owner","type":"address","internalType":"address"}],"outputs":[{"name":"","type":"uint256","internalType":"uint256"}],"stateMutability":"view"},{"type":"function","name":"getApproved","inputs":[{"name":"","type":"uint256","internalType":"uint256"}],"outputs":[{"name":"","type":"address","internalType":"address"}],"stateMutability":"view"},{"type":"function","name":"initialize","inputs":[{"name":"_name","type":"string","internalType":"string"},{"name":"_symbol","type":"string","internalType":"string"}],"outputs":[],"stateMutability":"nonpayable"},{"type":"function","name":"isApprovedForAll","inputs":[{"name":"","type":"address","internalType":"address"},{"name":"","type":"address","internalType":"address"}],"outputs":[{"name":"","type":"bool","internalType":"bool"}],"stateMutability":"view"},{"type":"function","name":"name","inputs":[],"outputs":[{"name":"","type":"string","internalType":"string"}],"stateMutability":"view"},{"type":"function","name":"ownerOf","inputs":[{"name":"id","type":"uint256","internalType":"uint256"}],"outputs":[{"name":"owner","type":"address","internalType":"address"}],"stateMutability":"view"},{"type":"function","name":"safeTransferFrom","inputs":[{"name":"from","type":"address","internalType":"address"},{"name":"to","type":"address","internalType":"address"},{"name":"id","type":"uint256","internalType":"uint256"}],"outputs":[],"stateMutability":"nonpayable"},{"type":"function","name":"safeTransferFrom","inputs":[{"name":"from","type":"address","internalType":"address"},{"name":"to","type":"address","internalType":"address"},{"name":"id","type":"uint256","internalType":"uint256"},{"name":"data","type":"bytes","internalType":"bytes"}],"outputs":[],"stateMutability":"nonpayable"},{"type":"function","name":"setApprovalForAll","inputs":[{"name":"operator","type":"address","internalType":"address"},{"name":"approved","type":"bool","internalType":"bool"}],"outputs":[],"stateMutability":"nonpayable"},{"type":"function","name":"supportsInterface","inputs":[{"name":"interfaceId","type":"bytes4","internalType":"bytes4"}],"outputs":[{"name":"","type":"bool","internalType":"bool"}],"stateMutability":"pure"},{"type":"function","name":"symbol","inputs":[],"outputs":[{"name":"","type":"string","internalType":"string"}],"stateMutability":"view"},{"type":"function","name":"tokenURI","inputs":[{"name":"id","type":"uint256","internalType":"uint256"}],"outputs":[{"name":"","type":"string","internalType":"string"}],"stateMutability":"view"},{"type":"function","name":"transferFrom","inputs":[{"name":"from","type":"address","internalType":"address"},{"name":"to","type":"address","internalType":"address"},{"name":"id","type":"uint256","internalType":"uint256"}],"outputs":[],"stateMutability":"nonpayable"},{"type":"event","name":"Approval","inputs":[{"name":"owner","type":"address","indexed":true,"internalType":"address"},{"name":"spender","type":"address","indexed":true,"internalType":"address"},{"name":"id","type":"uint256","indexed":true,"internalType":"uint256"}],"anonymous":false},{"type":"event","name":"ApprovalForAll","inputs":[{"name":"owner","type":"address","indexed":true,"internalType":"address"},{"name":"operator","type":"address","indexed":true,"internalType":"address"},{"name":"approved","type":"bool","indexed":false,"internalType":"bool"}],"anonymous":false},{"type":"event","name":"Transfer","inputs":[{"name":"from","type":"address","indexed":true,"internalType":"address"},{"name":"to","type":"address","indexed":true,"internalType":"address"},{"name":"id","type":"uint256","indexed":true,"internalType":"uint256"}],"anonymous":false}],"bytecode":{"object":"0x608060405234801561001057600080fd5b50610eb2806100206000396000f3fe608060405234801561001057600080fd5b50600436106100ea5760003560e01c80636352211e1161008c578063a22cb46511610066578063a22cb465146101f7578063b88d4fde1461020a578063c87b56dd1461021d578063e985e9c51461023157600080fd5b80636352211e146101bb57806370a08231146101ce57806395d89b41146101ef57600080fd5b8063095ea7b3116100c8578063095ea7b31461016d57806323b872dd1461018257806342842e0e146101955780634cd88b76146101a857600080fd5b806301ffc9a7146100ef57806306fdde0314610117578063081812fc1461012c575b600080fd5b6101026100fd366004610a6f565b61025f565b60405190151581526020015b60405180910390f35b61011f6102b1565b60405161010e9190610ae0565b61015561013a366004610af3565b6004602052600090815260409020546001600160a01b031681565b6040516001600160a01b03909116815260200161010e565b61018061017b366004610b23565b61033f565b005b610180610190366004610b4d565b610426565b6101806101a3366004610b4d565b61061f565b6101806101b6366004610c35565b61071d565b6101556101c9366004610af3565b61079f565b6101e16101dc366004610c99565b6107f6565b60405190815260200161010e565b61011f610859565b610180610205366004610cb4565b610866565b610180610218366004610cf0565b6108d2565b61011f61022b366004610af3565b50606090565b61010261023f366004610d6c565b600560209081526000928352604080842090915290825290205460ff1681565b60006301ffc9a760e01b6001600160e01b03198316148061029057506380ac58cd60e01b6001600160e01b03198316145b806102ab5750635b5e139f60e01b6001600160e01b03198316145b92915050565b600080546102be90610d9f565b80601f01602080910402602001604051908101604052809291908181526020018280546102ea90610d9f565b80156103375780601f1061030c57610100808354040283529160200191610337565b820191906000526020600020905b81548152906001019060200180831161031a57829003601f168201915b505050505081565b6000818152600260205260409020546001600160a01b03163381148061038857506001600160a01b038116600090815260056020908152604080832033845290915290205460ff165b6103ca5760405162461bcd60e51b815260206004820152600e60248201526d1393d517d055551213d49256915160921b60448201526064015b60405180910390fd5b60008281526004602052604080822080546001600160a01b0319166001600160a01b0387811691821790925591518593918516917f8c5be1e5ebec7d5bd14f71427d1e84f3dd0314c0f7b2291e5b200ac8c7c3b92591a4505050565b6000818152600260205260409020546001600160a01b0384811691161461047c5760405162461bcd60e51b815260206004820152600a60248201526957524f4e475f46524f4d60b01b60448201526064016103c1565b6001600160a01b0382166104c65760405162461bcd60e51b81526020600482015260116024820152701253959053125117d49150d25412515395607a1b60448201526064016103c1565b336001600160a01b038416148061050057506001600160a01b038316600090815260056020908152604080832033845290915290205460ff165b8061052157506000818152600460205260409020546001600160a01b031633145b61055e5760405162461bcd60e51b815260206004820152600e60248201526d1393d517d055551213d49256915160921b60448201526064016103c1565b6001600160a01b038316600090815260036020526040812080549161058283610df0565b90915550506001600160a01b03821660009081526003602052604081208054916105ab83610e07565b9091555050600081815260026020908152604080832080546001600160a01b038088166001600160a01b031992831681179093556004909452828520805490911690559051849391928716917fddf252ad1be2c89b69c2b068fc378daa952ba7f163c4a11628f55a4df523b3ef91a4505050565b61062a838383610426565b813b15806106d95750604051630a85bd0160e11b8082523360048301526001600160a01b03858116602484015260448301849052608060648401526000608484015290919084169063150b7a029060a401602060405180830381600087803b15801561069557600080fd5b505af11580156106a9573d6000803e3d6000fd5b505050506040513d601f19601f820116820180604052508101906106cd9190610e22565b6001600160e01b031916145b6107185760405162461bcd60e51b815260206004820152601060248201526f155394d0519157d49150d2541251539560821b60448201526064016103c1565b505050565b60065460ff16156107665760405162461bcd60e51b81526020600482015260136024820152721053149150511657d253925512505312569151606a1b60448201526064016103c1565b81516107799060009060208501906109bd565b50805161078d9060019060208401906109bd565b50506006805460ff1916600117905550565b6000818152600260205260409020546001600160a01b0316806107f15760405162461bcd60e51b815260206004820152600a6024820152691393d517d3525395115160b21b60448201526064016103c1565b919050565b60006001600160a01b03821661083d5760405162461bcd60e51b815260206004820152600c60248201526b5a45524f5f4144445245535360a01b60448201526064016103c1565b506001600160a01b031660009081526003602052604090205490565b600180546102be90610d9f565b3360008181526005602090815260408083206001600160a01b03871680855290835292819020805460ff191686151590811790915590519081529192917f17307eab39ab6107e8899845ad3d59bd9653f200f220920489ca2b5937696c31910160405180910390a35050565b6108dd848484610426565b823b15806109785750604051630a85bd0160e11b808252906001600160a01b0385169063150b7a029061091a903390899088908890600401610e3f565b602060405180830381600087803b15801561093457600080fd5b505af1158015610948573d6000803e3d6000fd5b505050506040513d601f19601f8201168201806040525081019061096c9190610e22565b6001600160e01b031916145b6109b75760405162461bcd60e51b815260206004820152601060248201526f155394d0519157d49150d2541251539560821b60448201526064016103c1565b50505050565b8280546109c990610d9f565b90600052602060002090601f0160209004810192826109eb5760008555610a31565b82601f10610a0457805160ff1916838001178555610a31565b82800160010185558215610a31579182015b82811115610a31578251825591602001919060010190610a16565b50610a3d929150610a41565b5090565b5b80821115610a3d5760008155600101610a42565b6001600160e01b031981168114610a6c57600080fd5b50565b600060208284031215610a8157600080fd5b8135610a8c81610a56565b9392505050565b6000815180845260005b81811015610ab957602081850181015186830182015201610a9d565b81811115610acb576000602083870101525b50601f01601f19169290920160200192915050565b602081526000610a8c6020830184610a93565b600060208284031215610b0557600080fd5b5035919050565b80356001600160a01b03811681146107f157600080fd5b60008060408385031215610b3657600080fd5b610b3f83610b0c565b946020939093013593505050565b600080600060608486031215610b6257600080fd5b610b6b84610b0c565b9250610b7960208501610b0c565b9150604084013590509250925092565b634e487b7160e01b600052604160045260246000fd5b600067ffffffffffffffff80841115610bba57610bba610b89565b604051601f8501601f19908116603f01168101908282118183101715610be257610be2610b89565b81604052809350858152868686011115610bfb57600080fd5b858560208301376000602087830101525050509392505050565b600082601f830112610c2657600080fd5b610a8c83833560208501610b9f565b60008060408385031215610c4857600080fd5b823567ffffffffffffffff80821115610c6057600080fd5b610c6c86838701610c15565b93506020850135915080821115610c8257600080fd5b50610c8f85828601610c15565b9150509250929050565b600060208284031215610cab57600080fd5b610a8c82610b0c565b60008060408385031215610cc757600080fd5b610cd083610b0c565b915060208301358015158114610ce557600080fd5b809150509250929050565b60008060008060808587031215610d0657600080fd5b610d0f85610b0c565b9350610d1d60208601610b0c565b925060408501359150606085013567ffffffffffffffff811115610d4057600080fd5b8501601f81018713610d5157600080fd5b610d6087823560208401610b9f565b91505092959194509250565b60008060408385031215610d7f57600080fd5b610d8883610b0c565b9150610d9660208401610b0c565b90509250929050565b600181811c90821680610db357607f821691505b60208210811415610dd457634e487b7160e01b600052602260045260246000fd5b50919050565b634e487b7160e01b600052601160045260246000fd5b600081610dff57610dff610dda565b506000190190565b6000600019821415610e1b57610e1b610dda565b5060010190565b600060208284031215610e3457600080fd5b8151610a8c81610a56565b6001600160a01b0385811682528416602082015260408101839052608060608201819052600090610e7290830184610a93565b969550505050505056fea2646970667358221220ac8ac3912e6963779a7753fef2fe8d05b5f7019dc22d2892fcb625d5c48e9bbb64736f6c63430008090033","linkReferences":{}},"methodIdentifiers":{"approve(address,uint256)":"095ea7b3","balanceOf(address)":"70a08231","getApproved(uint256)":"081812fc","initialize(string,string)":"4cd88b76","isApprovedForAll(address,address)":"e985e9c5","name()":"06fdde03","ownerOf(uint256)":"6352211e","safeTransferFrom(address,address,uint256)":"42842e0e","safeTransferFrom(address,address,uint256,bytes)":"b88d4fde","setApprovalForAll(address,bool)":"a22cb465","supportsInterface(bytes4)":"01ffc9a7","symbol()":"95d89b41","tokenURI(uint256)":"c87b56dd","transferFrom(address,address,uint256)":"23b872dd"},"id":64}