{"abi":[{"type":"function","name":"getMarkPrice","inputs":[],"outputs":[{"name":"","type":"uint256","internalType":"uint256"}],"stateMutability":"view"},{"type":"function","name":"owner","inputs":[],"outputs":[{"name":"","type":"address","internalType":"address"}],"stateMutability":"view"},{"type":"function","name":"price","inputs":[],"outputs":[{"name":"","type":"uint256","internalType":"uint256"}],"stateMutability":"view"},{"type":"function","name":"renounceOwnership","inputs":[],"outputs":[],"stateMutability":"nonpayable"},{"type":"function","name":"roundId","inputs":[],"outputs":[{"name":"","type":"uint256","internalType":"uint256"}],"stateMutability":"view"},{"type":"function","name":"setMarkPrice","inputs":[{"name":"newPrice","type":"uint256","internalType":"uint256"}],"outputs":[],"stateMutability":"nonpayable"},{"type":"function","name":"transferOwnership","inputs":[{"name":"newOwner","type":"address","internalType":"address"}],"outputs":[],"stateMutability":"nonpayable"},{"type":"function","name":"updatedAt","inputs":[],"outputs":[{"name":"","type":"uint256","internalType":"uint256"}],"stateMutability":"view"},{"type":"event","name":"AnswerUpdated","inputs":[{"name":"current","type":"int256","indexed":true,"internalType":"int256"},{"name":"roundId","type":"uint256","indexed":true,"internalType":"uint256"},{"name":"updatedAt","type":"uint256","indexed":false,"internalType":"uint256"}],"anonymous":false},{"type":"event","name":"OwnershipTransferred","inputs":[{"name":"previousOwner","type":"address","indexed":true,"internalType":"address"},{"name":"newOwner","type":"address","indexed":true,"internalType":"address"}],"anonymous":false}],"bytecode":{"object":"0x608060405234801561001057600080fd5b5061001a3361001f565b61006f565b600080546001600160a01b038381166001600160a01b0319831681178455604051919092169283917f8be0079c531659141344cd1fd0a4f28419497f9722a3daafe3b4186f6b6457e09190a35050565b61050e8061007e6000396000f3fe608060405234801561001057600080fd5b50600436106100885760003560e01c80638cd221c91161005b5780638cd221c9146100ce5780638da5cb5b146100d7578063a035b1fe146100f2578063f2fde38b146100fb57600080fd5b806347cb31671461008d57806360409632146100a2578063715018a6146100bd5780637519ab50146100c5575b600080fd5b6100a061009b3660046103d2565b61010e565b005b6100aa610181565b6040519081526020015b60405180910390f35b6100a0610228565b6100aa60025481565b6100aa60035481565b6000546040516001600160a01b0390911681526020016100b4565b6100aa60015481565b6100a06101093660046103eb565b61023c565b6101166102ba565b60018190556003805490600061012b83610431565b90915550504260025560035460015461014390610314565b7f0559884fd3a460db3073b7fc896cc77986f16e378210ded43186175bf646fc5f60025460405161017691815260200190565b60405180910390a350565b60008060c8610191603c42610462565b61019b9190610476565b9050606481116101de576064600154826101b5919061048a565b6101bf9190610462565b60026001546101ce9190610462565b6101d891906104a9565b91505090565b6001546064906101ee82846104c1565b6101f8919061048a565b6102029190610462565b60026001546102119190610462565b60015461021e91906104a9565b6101d891906104c1565b6102306102ba565b61023a6000610382565b565b6102446102ba565b6001600160a01b0381166102ae5760405162461bcd60e51b815260206004820152602660248201527f4f776e61626c653a206e6577206f776e657220697320746865207a65726f206160448201526564647265737360d01b60648201526084015b60405180910390fd5b6102b781610382565b50565b6000546001600160a01b0316331461023a5760405162461bcd60e51b815260206004820181905260248201527f4f776e61626c653a2063616c6c6572206973206e6f7420746865206f776e657260448201526064016102a5565b60006001600160ff1b0382111561037e5760405162461bcd60e51b815260206004820152602860248201527f53616665436173743a2076616c756520646f65736e27742066697420696e2061604482015267371034b73a191a9b60c11b60648201526084016102a5565b5090565b600080546001600160a01b038381166001600160a01b0319831681178455604051919092169283917f8be0079c531659141344cd1fd0a4f28419497f9722a3daafe3b4186f6b6457e09190a35050565b6000602082840312156103e457600080fd5b5035919050565b6000602082840312156103fd57600080fd5b81356001600160a01b038116811461041457600080fd5b9392505050565b634e487b7160e01b600052601160045260246000fd5b60006000198214156104455761044561041b565b5060010190565b634e487b7160e01b600052601260045260246000fd5b6000826104715761047161044c565b500490565b6000826104855761048561044c565b500690565b60008160001904831182151516156104a4576104a461041b565b500290565b600082198211156104bc576104bc61041b565b500190565b6000828210156104d3576104d361041b565b50039056fea2646970667358221220e61adcf27e68799354439fdd7a96b418d1e9af2d5fc08305011a65eefe8505c564736f6c63430008090033","linkReferences":{}},"methodIdentifiers":{"getMarkPrice()":"60409632","owner()":"8da5cb5b","price()":"a035b1fe","renounceOwnership()":"715018a6","roundId()":"8cd221c9","setMarkPrice(uint256)":"47cb3167","transferOwnership(address)":"f2fde38b","updatedAt()":"7519ab50"},"id":84}