{"abi":[{"type":"constructor","inputs":[{"name":"_uniswapAdaptor","type":"address","internalType":"address"},{"name":"_decimal","type":"uint8","internalType":"uint8"},{"name":"_baseToken","type":"address","internalType":"address"},{"name":"_quoteToken","type":"address","internalType":"address"},{"name":"_pools","type":"address[]","internalType":"address[]"},{"name":"_period","type":"uint32","internalType":"uint32"},{"name":"_priceFeedOracle","type":"address","internalType":"address"},{"name":"_impact","type":"uint256","internalType":"uint256"}],"stateMutability":"nonpayable"},{"type":"function","name":"UNISWAP_V3_ORACLE","inputs":[],"outputs":[{"name":"","type":"address","internalType":"contract IStaticOracle"}],"stateMutability":"view"},{"type":"function","name":"baseToken","inputs":[],"outputs":[{"name":"","type":"address","internalType":"address"}],"stateMutability":"view"},{"type":"function","name":"decimal","inputs":[],"outputs":[{"name":"","type":"uint8","internalType":"uint8"}],"stateMutability":"view"},{"type":"function","name":"getMarkPrice","inputs":[],"outputs":[{"name":"","type":"uint256","internalType":"uint256"}],"stateMutability":"view"},{"type":"function","name":"impact","inputs":[],"outputs":[{"name":"","type":"uint256","internalType":"uint256"}],"stateMutability":"view"},{"type":"function","name":"owner","inputs":[],"outputs":[{"name":"","type":"address","internalType":"address"}],"stateMutability":"view"},{"type":"function","name":"period","inputs":[],"outputs":[{"name":"","type":"uint32","internalType":"uint32"}],"stateMutability":"view"},{"type":"function","name":"pools","inputs":[{"name":"","type":"uint256","internalType":"uint256"}],"outputs":[{"name":"","type":"address","internalType":"address"}],"stateMutability":"view"},{"type":"function","name":"priceFeedOracle","inputs":[],"outputs":[{"name":"","type":"address","internalType":"address"}],"stateMutability":"view"},{"type":"function","name":"quoteToken","inputs":[],"outputs":[{"name":"","type":"address","internalType":"address"}],"stateMutability":"view"},{"type":"function","name":"renounceOwnership","inputs":[],"outputs":[],"stateMutability":"nonpayable"},{"type":"function","name":"transferOwnership","inputs":[{"name":"newOwner","type":"address","internalType":"address"}],"outputs":[],"stateMutability":"nonpayable"},{"type":"function","name":"updateImpact","inputs":[{"name":"newImpact","type":"uint256","internalType":"uint256"}],"outputs":[],"stateMutability":"nonpayable"},{"type":"function","name":"updatePeriod","inputs":[{"name":"newPeriod","type":"uint32","internalType":"uint32"}],"outputs":[],"stateMutability":"nonpayable"},{"type":"function","name":"updatePools","inputs":[{"name":"newPools","type":"address[]","internalType":"address[]"}],"outputs":[],"stateMutability":"nonpayable"},{"type":"event","name":"OwnershipTransferred","inputs":[{"name":"previousOwner","type":"address","indexed":true,"internalType":"address"},{"name":"newOwner","type":"address","indexed":true,"internalType":"address"}],"anonymous":false},{"type":"event","name":"UpdateImpact","inputs":[{"name":"oldImpact","type":"uint256","indexed":false,"internalType":"uint256"},{"name":"newImpact","type":"uint256","indexed":false,"internalType":"uint256"}],"anonymous":false},{"type":"event","name":"UpdatePeriod","inputs":[{"name":"oldPeriod","type":"uint32","indexed":false,"internalType":"uint32"},{"name":"newPeriod","type":"uint32","indexed":false,"internalType":"uint32"}],"anonymous":false},{"type":"event","name":"UpdatePools","inputs":[{"name":"oldPools","type":"address[]","indexed":false,"internalType":"address[]"},{"name":"newPools","type":"address[]","indexed":false,"internalType":"address[]"}],"anonymous":false}],"bytecode":{"object":"0x6101006040523480156200001257600080fd5b5060405162000f5538038062000f558339810160408190526200003591620001d3565b6200004033620000ba565b6001600160a01b0380891660805260ff881660a05286811660c052851660e0528351620000759060019060208701906200010a565b50600280546001600160a01b03909316640100000000026001600160c01b031990931663ffffffff909416939093179190911790915560035550620003299350505050565b600080546001600160a01b038381166001600160a01b0319831681178455604051919092169283917f8be0079c531659141344cd1fd0a4f28419497f9722a3daafe3b4186f6b6457e09190a35050565b82805482825590600052602060002090810192821562000162579160200282015b828111156200016257825182546001600160a01b0319166001600160a01b039091161782556020909201916001909101906200012b565b506200017092915062000174565b5090565b5b8082111562000170576000815560010162000175565b80516001600160a01b0381168114620001a357600080fd5b919050565b634e487b7160e01b600052604160045260246000fd5b805163ffffffff81168114620001a357600080fd5b600080600080600080600080610100898b031215620001f157600080fd5b620001fc896200018b565b97506020808a015160ff811681146200021457600080fd5b97506200022460408b016200018b565b96506200023460608b016200018b565b60808b01519096506001600160401b03808211156200025257600080fd5b818c0191508c601f8301126200026757600080fd5b8151818111156200027c576200027c620001a8565b8060051b604051601f19603f83011681018181108582111715620002a457620002a4620001a8565b60405291825284820192508381018501918f831115620002c357600080fd5b938501935b82851015620002ec57620002dc856200018b565b84529385019392850192620002c8565b8099505050505050506200030360a08a01620001be565b92506200031360c08a016200018b565b915060e089015190509295985092959890939650565b60805160a05160c05160e051610bd76200037e6000396000818160ff015261033b015260008181610228015261031901526000818161017601526102d50152600081816101d301526102ab0152610bd76000f3fe608060405234801561001057600080fd5b50600436106100f55760003560e01c806391256d6211610097578063da0bca9511610066578063da0bca951461024a578063ef78d4fd14610253578063f2fde38b14610278578063fe045fc51461028b57600080fd5b806391256d62146101ce578063ac4afa38146101f5578063b9ab992714610208578063c55dae631461022357600080fd5b80637403cf2c116100d35780637403cf2c1461015e57806376809ce3146101715780638da5cb5b146101aa5780638ed24826146101bb57600080fd5b8063217a4b70146100fa578063604096321461013e578063715018a614610154575b600080fd5b6101217f000000000000000000000000000000000000000000000000000000000000000081565b6040516001600160a01b0390911681526020015b60405180910390f35b61014661029e565b604051908152602001610135565b61015c6104e3565b005b61015c61016c3660046107c8565b6104f7565b6101987f000000000000000000000000000000000000000000000000000000000000000081565b60405160ff9091168152602001610135565b6000546001600160a01b0316610121565b61015c6101c93660046107e1565b610540565b6101217f000000000000000000000000000000000000000000000000000000000000000081565b6101216102033660046107c8565b6105a8565b6002546101219064010000000090046001600160a01b031681565b6101217f000000000000000000000000000000000000000000000000000000000000000081565b61014660035481565b6002546102639063ffffffff1681565b60405163ffffffff9091168152602001610135565b61015c61028636600461082a565b6105d2565b61015c61029936600461085b565b61064b565b6000806001600160a01b037f0000000000000000000000000000000000000000000000000000000000000000166307f7ca9f6102fb7f0000000000000000000000000000000000000000000000000000000000000000600a610a1c565b6002546040516001600160e01b031960e085901b16815261036f92917f0000000000000000000000000000000000000000000000000000000000000000917f00000000000000000000000000000000000000000000000000000000000000009160019163ffffffff90911690600401610a74565b60206040518083038186803b15801561038757600080fd5b505afa15801561039b573d6000803e3d6000fd5b505050506040513d601f19601f820116820180604052508101906103bf9190610ad0565b90506000600260049054906101000a90046001600160a01b03166001600160a01b031663604096326040518163ffffffff1660e01b815260040160206040518083038186803b15801561041157600080fd5b505afa158015610425573d6000803e3d6000fd5b505050506040513d601f19601f820116820180604052508101906104499190610ad0565b90506000828210156104645761045f8284610ae9565b61046e565b61046e8383610ae9565b6003549091508261048783670de0b6b3a7640000610b00565b6104919190610b1f565b11156104db5760405162461bcd60e51b8152602060048201526014602482015273646576696174696f6e20697320746f6f2062696760601b60448201526064015b60405180910390fd5b509092915050565b6104eb6106a4565b6104f560006106fe565b565b6104ff6106a4565b60035460408051918252602082018390527f19a181130aa90aa2bebcb31bc5b597c7bb493089bd3b4af7c06972b49fd29f00910160405180910390a1600355565b6105486106a4565b6002546040805163ffffffff928316815291831660208301527fb5edc67c192047536aa04028c4f9dde7b46676409cc4c6b598677394c2464c06910160405180910390a16002805463ffffffff191663ffffffff92909216919091179055565b600181815481106105b857600080fd5b6000918252602090912001546001600160a01b0316905081565b6105da6106a4565b6001600160a01b03811661063f5760405162461bcd60e51b815260206004820152602660248201527f4f776e61626c653a206e6577206f776e657220697320746865207a65726f206160448201526564647265737360d01b60648201526084016104d2565b610648816106fe565b50565b6106536106a4565b7f0ef36ff0303a6b1cafa70eea013fd3bbf94e54697993f14821f2722fcd2cc6df600182604051610685929190610b41565b60405180910390a180516106a090600190602084019061074e565b5050565b6000546001600160a01b031633146104f55760405162461bcd60e51b815260206004820181905260248201527f4f776e61626c653a2063616c6c6572206973206e6f7420746865206f776e657260448201526064016104d2565b600080546001600160a01b038381166001600160a01b0319831681178455604051919092169283917f8be0079c531659141344cd1fd0a4f28419497f9722a3daafe3b4186f6b6457e09190a35050565b8280548282559060005260206000209081019282156107a3579160200282015b828111156107a357825182546001600160a01b0319166001600160a01b0390911617825560209092019160019091019061076e565b506107af9291506107b3565b5090565b5b808211156107af57600081556001016107b4565b6000602082840312156107da57600080fd5b5035919050565b6000602082840312156107f357600080fd5b813563ffffffff8116811461080757600080fd5b9392505050565b80356001600160a01b038116811461082557600080fd5b919050565b60006020828403121561083c57600080fd5b6108078261080e565b634e487b7160e01b600052604160045260246000fd5b6000602080838503121561086e57600080fd5b823567ffffffffffffffff8082111561088657600080fd5b818501915085601f83011261089a57600080fd5b8135818111156108ac576108ac610845565b8060051b604051601f19603f830116810181811085821117156108d1576108d1610845565b6040529182528482019250838101850191888311156108ef57600080fd5b938501935b82851015610914576109058561080e565b845293850193928501926108f4565b98975050505050505050565b634e487b7160e01b600052601160045260246000fd5b600181815b8085111561097157816000190482111561095757610957610920565b8085161561096457918102915b93841c939080029061093b565b509250929050565b60008261098857506001610a16565b8161099557506000610a16565b81600181146109ab57600281146109b5576109d1565b6001915050610a16565b60ff8411156109c6576109c6610920565b50506001821b610a16565b5060208310610133831016604e8410600b84101617156109f4575081810a610a16565b6109fe8383610936565b8060001904821115610a1257610a12610920565b0290505b92915050565b600061080760ff841683610979565b6000815480845260208085019450836000528060002060005b83811015610a695781546001600160a01b031687529582019560019182019101610a44565b509495945050505050565b6fffffffffffffffffffffffffffffffff861681526001600160a01b0385811660208301528416604082015260a060608201819052600090610ab890830185610a2b565b905063ffffffff831660808301529695505050505050565b600060208284031215610ae257600080fd5b5051919050565b600082821015610afb57610afb610920565b500390565b6000816000190483118215151615610b1a57610b1a610920565b500290565b600082610b3c57634e487b7160e01b600052601260045260246000fd5b500490565b604081526000610b546040830185610a2b565b82810360208481019190915284518083528582019282019060005b81811015610b945784516001600160a01b031683529383019391830191600101610b6f565b509097965050505050505056fea2646970667358221220672cf3b90103a7784b83cf276894e15d296c45eeba43eca1cd6358b49392e52864736f6c63430008090033","linkReferences":{}},"methodIdentifiers":{"UNISWAP_V3_ORACLE()":"91256d62","baseToken()":"c55dae63","decimal()":"76809ce3","getMarkPrice()":"60409632","impact()":"da0bca95","owner()":"8da5cb5b","period()":"ef78d4fd","pools(uint256)":"ac4afa38","priceFeedOracle()":"b9ab9927","quoteToken()":"217a4b70","renounceOwnership()":"715018a6","transferOwnership(address)":"f2fde38b","updateImpact(uint256)":"7403cf2c","updatePeriod(uint32)":"8ed24826","updatePools(address[])":"fe045fc5"},"id":4}