{"abi":[{"type":"constructor","inputs":[{"name":"_uniswapAdaptor","type":"address","internalType":"address"},{"name":"_decimal","type":"uint8","internalType":"uint8"},{"name":"_baseToken","type":"address","internalType":"address"},{"name":"_quoteToken","type":"address","internalType":"address"},{"name":"_pools","type":"address[]","internalType":"address[]"},{"name":"_period","type":"uint32","internalType":"uint32"},{"name":"_priceFeedOracle","type":"address","internalType":"address"},{"name":"_impact","type":"uint256","internalType":"uint256"}],"stateMutability":"nonpayable"},{"type":"function","name":"UNISWAP_V3_ORACLE","inputs":[],"outputs":[{"name":"","type":"address","internalType":"contract IStaticOracle"}],"stateMutability":"view"},{"type":"function","name":"baseToken","inputs":[],"outputs":[{"name":"","type":"address","internalType":"address"}],"stateMutability":"view"},{"type":"function","name":"decimal","inputs":[],"outputs":[{"name":"","type":"uint8","internalType":"uint8"}],"stateMutability":"view"},{"type":"function","name":"getMarkPrice","inputs":[],"outputs":[{"name":"","type":"uint256","internalType":"uint256"}],"stateMutability":"view"},{"type":"function","name":"impact","inputs":[],"outputs":[{"name":"","type":"uint256","internalType":"uint256"}],"stateMutability":"view"},{"type":"function","name":"owner","inputs":[],"outputs":[{"name":"","type":"address","internalType":"address"}],"stateMutability":"view"},{"type":"function","name":"period","inputs":[],"outputs":[{"name":"","type":"uint32","internalType":"uint32"}],"stateMutability":"view"},{"type":"function","name":"pools","inputs":[{"name":"","type":"uint256","internalType":"uint256"}],"outputs":[{"name":"","type":"address","internalType":"address"}],"stateMutability":"view"},{"type":"function","name":"priceFeedOracle","inputs":[],"outputs":[{"name":"","type":"address","internalType":"address"}],"stateMutability":"view"},{"type":"function","name":"quoteToken","inputs":[],"outputs":[{"name":"","type":"address","internalType":"address"}],"stateMutability":"view"},{"type":"function","name":"renounceOwnership","inputs":[],"outputs":[],"stateMutability":"nonpayable"},{"type":"function","name":"transferOwnership","inputs":[{"name":"newOwner","type":"address","internalType":"address"}],"outputs":[],"stateMutability":"nonpayable"},{"type":"function","name":"updateImpact","inputs":[{"name":"newImpact","type":"uint256","internalType":"uint256"}],"outputs":[],"stateMutability":"nonpayable"},{"type":"function","name":"updatePeriod","inputs":[{"name":"newPeriod","type":"uint32","internalType":"uint32"}],"outputs":[],"stateMutability":"nonpayable"},{"type":"function","name":"updatePools","inputs":[{"name":"newPools","type":"address[]","internalType":"address[]"}],"outputs":[],"stateMutability":"nonpayable"},{"type":"event","name":"OwnershipTransferred","inputs":[{"name":"previousOwner","type":"address","indexed":true,"internalType":"address"},{"name":"newOwner","type":"address","indexed":true,"internalType":"address"}],"anonymous":false},{"type":"event","name":"UpdateImpact","inputs":[{"name":"oldImpact","type":"uint256","indexed":false,"internalType":"uint256"},{"name":"newImpact","type":"uint256","indexed":false,"internalType":"uint256"}],"anonymous":false},{"type":"event","name":"UpdatePeriod","inputs":[{"name":"oldPeriod","type":"uint32","indexed":false,"internalType":"uint32"},{"name":"newPeriod","type":"uint32","indexed":false,"internalType":"uint32"}],"anonymous":false},{"type":"event","name":"UpdatePools","inputs":[{"name":"oldPools","type":"address[]","indexed":false,"internalType":"address[]"},{"name":"newPools","type":"address[]","indexed":false,"internalType":"address[]"}],"anonymous":false}],"bytecode":{"object":"0x60e06040523480156200001157600080fd5b5060405162000f3138038062000f318339810160408190526200003491620001ea565b6200003f33620000d1565b6001600160a01b038881166080526003805460ff60201b191664010000000060ff8b160217905586811660a052851660c05283516200008690600490602087019062000121565b506003805463ffffffff191663ffffffff9490941693909317909255600180546001600160a01b0319166001600160a01b039290921691909117905560025550620003409350505050565b600080546001600160a01b038381166001600160a01b0319831681178455604051919092169283917f8be0079c531659141344cd1fd0a4f28419497f9722a3daafe3b4186f6b6457e09190a35050565b82805482825590600052602060002090810192821562000179579160200282015b828111156200017957825182546001600160a01b0319166001600160a01b0390911617825560209092019160019091019062000142565b50620001879291506200018b565b5090565b5b808211156200018757600081556001016200018c565b80516001600160a01b0381168114620001ba57600080fd5b919050565b634e487b7160e01b600052604160045260246000fd5b805163ffffffff81168114620001ba57600080fd5b600080600080600080600080610100898b0312156200020857600080fd5b6200021389620001a2565b97506020808a015160ff811681146200022b57600080fd5b97506200023b60408b01620001a2565b96506200024b60608b01620001a2565b60808b01519096506001600160401b03808211156200026957600080fd5b818c0191508c601f8301126200027e57600080fd5b815181811115620002935762000293620001bf565b8060051b604051601f19603f83011681018181108582111715620002bb57620002bb620001bf565b60405291825284820192508381018501918f831115620002da57600080fd5b938501935b828510156200030357620002f385620001a2565b84529385019392850192620002df565b8099505050505050506200031a60a08a01620001d5565b92506200032a60c08a01620001a2565b915060e089015190509295985092959890939650565b60805160a05160c051610bad620003846000396000818160ff015261031201526000818161020e01526102f00152600081816101c101526102890152610bad6000f3fe608060405234801561001057600080fd5b50600436106100f55760003560e01c806391256d6211610097578063da0bca9511610066578063da0bca9514610230578063ef78d4fd14610239578063f2fde38b1461025e578063fe045fc51461027157600080fd5b806391256d62146101bc578063ac4afa38146101e3578063b9ab9927146101f6578063c55dae631461020957600080fd5b80637403cf2c116100d35780637403cf2c1461015e57806376809ce3146101715780638da5cb5b146101985780638ed24826146101a957600080fd5b8063217a4b70146100fa578063604096321461013e578063715018a614610154575b600080fd5b6101217f000000000000000000000000000000000000000000000000000000000000000081565b6040516001600160a01b0390911681526020015b60405180910390f35b610146610284565b604051908152602001610135565b61015c6104b9565b005b61015c61016c36600461079e565b6104cd565b60035461018690640100000000900460ff1681565b60405160ff9091168152602001610135565b6000546001600160a01b0316610121565b61015c6101b73660046107b7565b610516565b6101217f000000000000000000000000000000000000000000000000000000000000000081565b6101216101f136600461079e565b61057e565b600154610121906001600160a01b031681565b6101217f000000000000000000000000000000000000000000000000000000000000000081565b61014660025481565b6003546102499063ffffffff1681565b60405163ffffffff9091168152602001610135565b61015c61026c366004610800565b6105a8565b61015c61027f366004610831565b610621565b6000807f00000000000000000000000000000000000000000000000000000000000000006001600160a01b03166307f7ca9f600360049054906101000a900460ff16600a6102d291906109f2565b6003546040516001600160e01b031960e085901b16815261034592917f0000000000000000000000000000000000000000000000000000000000000000917f00000000000000000000000000000000000000000000000000000000000000009160049163ffffffff909116908201610a4a565b60206040518083038186803b15801561035d57600080fd5b505afa158015610371573d6000803e3d6000fd5b505050506040513d601f19601f820116820180604052508101906103959190610aa6565b90506000600160009054906101000a90046001600160a01b03166001600160a01b031663604096326040518163ffffffff1660e01b815260040160206040518083038186803b1580156103e757600080fd5b505afa1580156103fb573d6000803e3d6000fd5b505050506040513d601f19601f8201168201806040525081019061041f9190610aa6565b905060008282101561043a576104358284610abf565b610444565b6104448383610abf565b6002549091508261045d83670de0b6b3a7640000610ad6565b6104679190610af5565b11156104b15760405162461bcd60e51b8152602060048201526014602482015273646576696174696f6e20697320746f6f2062696760601b60448201526064015b60405180910390fd5b509092915050565b6104c161067a565b6104cb60006106d4565b565b6104d561067a565b60025460408051918252602082018390527f19a181130aa90aa2bebcb31bc5b597c7bb493089bd3b4af7c06972b49fd29f00910160405180910390a1600255565b61051e61067a565b6003546040805163ffffffff928316815291831660208301527fb5edc67c192047536aa04028c4f9dde7b46676409cc4c6b598677394c2464c06910160405180910390a16003805463ffffffff191663ffffffff92909216919091179055565b6004818154811061058e57600080fd5b6000918252602090912001546001600160a01b0316905081565b6105b061067a565b6001600160a01b0381166106155760405162461bcd60e51b815260206004820152602660248201527f4f776e61626c653a206e6577206f776e657220697320746865207a65726f206160448201526564647265737360d01b60648201526084016104a8565b61061e816106d4565b50565b61062961067a565b7f0ef36ff0303a6b1cafa70eea013fd3bbf94e54697993f14821f2722fcd2cc6df60048260405161065b929190610b17565b60405180910390a18051610676906004906020840190610724565b5050565b6000546001600160a01b031633146104cb5760405162461bcd60e51b815260206004820181905260248201527f4f776e61626c653a2063616c6c6572206973206e6f7420746865206f776e657260448201526064016104a8565b600080546001600160a01b038381166001600160a01b0319831681178455604051919092169283917f8be0079c531659141344cd1fd0a4f28419497f9722a3daafe3b4186f6b6457e09190a35050565b828054828255906000526020600020908101928215610779579160200282015b8281111561077957825182546001600160a01b0319166001600160a01b03909116178255602090920191600190910190610744565b50610785929150610789565b5090565b5b80821115610785576000815560010161078a565b6000602082840312156107b057600080fd5b5035919050565b6000602082840312156107c957600080fd5b813563ffffffff811681146107dd57600080fd5b9392505050565b80356001600160a01b03811681146107fb57600080fd5b919050565b60006020828403121561081257600080fd5b6107dd826107e4565b634e487b7160e01b600052604160045260246000fd5b6000602080838503121561084457600080fd5b823567ffffffffffffffff8082111561085c57600080fd5b818501915085601f83011261087057600080fd5b8135818111156108825761088261081b565b8060051b604051601f19603f830116810181811085821117156108a7576108a761081b565b6040529182528482019250838101850191888311156108c557600080fd5b938501935b828510156108ea576108db856107e4565b845293850193928501926108ca565b98975050505050505050565b634e487b7160e01b600052601160045260246000fd5b600181815b8085111561094757816000190482111561092d5761092d6108f6565b8085161561093a57918102915b93841c9390800290610911565b509250929050565b60008261095e575060016109ec565b8161096b575060006109ec565b8160018114610981576002811461098b576109a7565b60019150506109ec565b60ff84111561099c5761099c6108f6565b50506001821b6109ec565b5060208310610133831016604e8410600b84101617156109ca575081810a6109ec565b6109d4838361090c565b80600019048211156109e8576109e86108f6565b0290505b92915050565b60006107dd60ff84168361094f565b6000815480845260208085019450836000528060002060005b83811015610a3f5781546001600160a01b031687529582019560019182019101610a1a565b509495945050505050565b6fffffffffffffffffffffffffffffffff861681526001600160a01b0385811660208301528416604082015260a060608201819052600090610a8e90830185610a01565b905063ffffffff831660808301529695505050505050565b600060208284031215610ab857600080fd5b5051919050565b600082821015610ad157610ad16108f6565b500390565b6000816000190483118215151615610af057610af06108f6565b500290565b600082610b1257634e487b7160e01b600052601260045260246000fd5b500490565b604081526000610b2a6040830185610a01565b82810360208481019190915284518083528582019282019060005b81811015610b6a5784516001600160a01b031683529383019391830191600101610b45565b509097965050505050505056fea2646970667358221220363d97b3d79f827d28ec6054c2a5a064ce393446d017fb6a0431eee9563ca6bc64736f6c63430008090033","linkReferences":{}},"methodIdentifiers":{"UNISWAP_V3_ORACLE()":"91256d62","baseToken()":"c55dae63","decimal()":"76809ce3","getMarkPrice()":"60409632","impact()":"da0bca95","owner()":"8da5cb5b","period()":"ef78d4fd","pools(uint256)":"ac4afa38","priceFeedOracle()":"b9ab9927","quoteToken()":"217a4b70","renounceOwnership()":"715018a6","transferOwnership(address)":"f2fde38b","updateImpact(uint256)":"7403cf2c","updatePeriod(uint32)":"8ed24826","updatePools(address[])":"fe045fc5"},"id":74}