{"abi":[{"type":"function","name":"getMarkPrice","inputs":[],"outputs":[{"name":"","type":"uint256","internalType":"uint256"}],"stateMutability":"view"},{"type":"function","name":"owner","inputs":[],"outputs":[{"name":"","type":"address","internalType":"address"}],"stateMutability":"view"},{"type":"function","name":"price","inputs":[],"outputs":[{"name":"","type":"uint256","internalType":"uint256"}],"stateMutability":"view"},{"type":"function","name":"renounceOwnership","inputs":[],"outputs":[],"stateMutability":"nonpayable"},{"type":"function","name":"roundId","inputs":[],"outputs":[{"name":"","type":"uint256","internalType":"uint256"}],"stateMutability":"view"},{"type":"function","name":"setMarkPrice","inputs":[{"name":"newPrice","type":"uint256","internalType":"uint256"}],"outputs":[],"stateMutability":"nonpayable"},{"type":"function","name":"transferOwnership","inputs":[{"name":"newOwner","type":"address","internalType":"address"}],"outputs":[],"stateMutability":"nonpayable"},{"type":"function","name":"updatedAt","inputs":[],"outputs":[{"name":"","type":"uint256","internalType":"uint256"}],"stateMutability":"view"},{"type":"event","name":"AnswerUpdated","inputs":[{"name":"current","type":"int256","indexed":true,"internalType":"int256"},{"name":"roundId","type":"uint256","indexed":true,"internalType":"uint256"},{"name":"updatedAt","type":"uint256","indexed":false,"internalType":"uint256"}],"anonymous":false},{"type":"event","name":"OwnershipTransferred","inputs":[{"name":"previousOwner","type":"address","indexed":true,"internalType":"address"},{"name":"newOwner","type":"address","indexed":true,"internalType":"address"}],"anonymous":false}],"bytecode":{"object":"0x608060405234801561001057600080fd5b5061001a3361001f565b61006f565b600080546001600160a01b038381166001600160a01b0319831681178455604051919092169283917f8be0079c531659141344cd1fd0a4f28419497f9722a3daafe3b4186f6b6457e09190a35050565b6103cf8061007e6000396000f3fe608060405234801561001057600080fd5b50600436106100885760003560e01c80638cd221c91161005b5780638cd221c9146100ca5780638da5cb5b146100d3578063a035b1fe146100ee578063f2fde38b146100f757600080fd5b806347cb31671461008d57806360409632146100a2578063715018a6146100b95780637519ab50146100c1575b600080fd5b6100a061009b366004610327565b61010a565b005b6001545b6040519081526020015b60405180910390f35b6100a061017d565b6100a660025481565b6100a660035481565b6000546040516001600160a01b0390911681526020016100b0565b6100a660015481565b6100a0610105366004610340565b610191565b61011261020f565b60018190556003805490600061012783610370565b90915550504260025560035460015461013f90610269565b7f0559884fd3a460db3073b7fc896cc77986f16e378210ded43186175bf646fc5f60025460405161017291815260200190565b60405180910390a350565b61018561020f565b61018f60006102d7565b565b61019961020f565b6001600160a01b0381166102035760405162461bcd60e51b815260206004820152602660248201527f4f776e61626c653a206e6577206f776e657220697320746865207a65726f206160448201526564647265737360d01b60648201526084015b60405180910390fd5b61020c816102d7565b50565b6000546001600160a01b0316331461018f5760405162461bcd60e51b815260206004820181905260248201527f4f776e61626c653a2063616c6c6572206973206e6f7420746865206f776e657260448201526064016101fa565b60006001600160ff1b038211156102d35760405162461bcd60e51b815260206004820152602860248201527f53616665436173743a2076616c756520646f65736e27742066697420696e2061604482015267371034b73a191a9b60c11b60648201526084016101fa565b5090565b600080546001600160a01b038381166001600160a01b0319831681178455604051919092169283917f8be0079c531659141344cd1fd0a4f28419497f9722a3daafe3b4186f6b6457e09190a35050565b60006020828403121561033957600080fd5b5035919050565b60006020828403121561035257600080fd5b81356001600160a01b038116811461036957600080fd5b9392505050565b600060001982141561039257634e487b7160e01b600052601160045260246000fd5b506001019056fea26469706673582212202f38929d77742e9ee400bb98f95061d946f5860b3413ab736fe38b09ee8de78264736f6c63430008090033","linkReferences":{}},"methodIdentifiers":{"getMarkPrice()":"60409632","owner()":"8da5cb5b","price()":"a035b1fe","renounceOwnership()":"715018a6","roundId()":"8cd221c9","setMarkPrice(uint256)":"47cb3167","transferOwnership(address)":"f2fde38b","updatedAt()":"7519ab50"},"id":40}