{"abi":[{"type":"constructor","inputs":[{"name":"_primaryAsset","type":"address","internalType":"address"}],"stateMutability":"nonpayable"},{"type":"function","name":"approveFundOperator","inputs":[{"name":"operator","type":"address","internalType":"address"},{"name":"primaryAmount","type":"uint256","internalType":"uint256"},{"name":"secondaryAmount","type":"uint256","internalType":"uint256"}],"outputs":[],"stateMutability":"nonpayable"},{"type":"function","name":"approveTrade","inputs":[{"name":"orderSender","type":"address","internalType":"address"},{"name":"tradeData","type":"bytes","internalType":"bytes"}],"outputs":[{"name":"","type":"address[]","internalType":"address[]"},{"name":"","type":"int256[]","internalType":"int256[]"},{"name":"","type":"int256[]","internalType":"int256[]"}],"stateMutability":"nonpayable"},{"type":"function","name":"deposit","inputs":[{"name":"primaryAmount","type":"uint256","internalType":"uint256"},{"name":"secondaryAmount","type":"uint256","internalType":"uint256"},{"name":"to","type":"address","internalType":"address"}],"outputs":[],"stateMutability":"nonpayable"},{"type":"function","name":"disableFastWithdraw","inputs":[{"name":"disabled","type":"bool","internalType":"bool"}],"outputs":[],"stateMutability":"nonpayable"},{"type":"function","name":"domainSeparator","inputs":[],"outputs":[{"name":"","type":"bytes32","internalType":"bytes32"}],"stateMutability":"view"},{"type":"function","name":"executeWithdraw","inputs":[{"name":"from","type":"address","internalType":"address"},{"name":"to","type":"address","internalType":"address"},{"name":"isInternal","type":"bool","internalType":"bool"},{"name":"param","type":"bytes","internalType":"bytes"}],"outputs":[],"stateMutability":"nonpayable"},{"type":"function","name":"fastWithdraw","inputs":[{"name":"from","type":"address","internalType":"address"},{"name":"to","type":"address","internalType":"address"},{"name":"primaryAmount","type":"uint256","internalType":"uint256"},{"name":"secondaryAmount","type":"uint256","internalType":"uint256"},{"name":"isInternal","type":"bool","internalType":"bool"},{"name":"param","type":"bytes","internalType":"bytes"}],"outputs":[],"stateMutability":"nonpayable"},{"type":"function","name":"getAllRegisteredPerps","inputs":[],"outputs":[{"name":"","type":"address[]","internalType":"address[]"}],"stateMutability":"view"},{"type":"function","name":"getCreditOf","inputs":[{"name":"trader","type":"address","internalType":"address"}],"outputs":[{"name":"primaryCredit","type":"int256","internalType":"int256"},{"name":"secondaryCredit","type":"uint256","internalType":"uint256"},{"name":"pendingPrimaryWithdraw","type":"uint256","internalType":"uint256"},{"name":"pendingSecondaryWithdraw","type":"uint256","internalType":"uint256"},{"name":"executionTimestamp","type":"uint256","internalType":"uint256"}],"stateMutability":"view"},{"type":"function","name":"getExecuteWithdrawCallData","inputs":[{"name":"from","type":"address","internalType":"address"},{"name":"to","type":"address","internalType":"address"},{"name":"isInternal","type":"bool","internalType":"bool"},{"name":"param","type":"bytes","internalType":"bytes"}],"outputs":[{"name":"","type":"bytes","internalType":"bytes"}],"stateMutability":"pure"},{"type":"function","name":"getFundingRate","inputs":[{"name":"perp","type":"address","internalType":"address"}],"outputs":[{"name":"","type":"int256","internalType":"int256"}],"stateMutability":"view"},{"type":"function","name":"getLiquidationCost","inputs":[{"name":"perp","type":"address","internalType":"address"},{"name":"liquidatedTrader","type":"address","internalType":"address"},{"name":"requestPaperAmount","type":"int256","internalType":"int256"}],"outputs":[{"name":"liqtorPaperChange","type":"int256","internalType":"int256"},{"name":"liqtorCreditChange","type":"int256","internalType":"int256"}],"stateMutability":"view"},{"type":"function","name":"getLiquidationPrice","inputs":[{"name":"trader","type":"address","internalType":"address"},{"name":"perp","type":"address","internalType":"address"}],"outputs":[{"name":"liquidationPrice","type":"uint256","internalType":"uint256"}],"stateMutability":"view"},{"type":"function","name":"getMarkPrice","inputs":[{"name":"perp","type":"address","internalType":"address"}],"outputs":[{"name":"","type":"uint256","internalType":"uint256"}],"stateMutability":"view"},{"type":"function","name":"getOrderFilledAmount","inputs":[{"name":"orderHash","type":"bytes32","internalType":"bytes32"}],"outputs":[{"name":"filledAmount","type":"uint256","internalType":"uint256"}],"stateMutability":"view"},{"type":"function","name":"getPositions","inputs":[{"name":"trader","type":"address","internalType":"address"}],"outputs":[{"name":"","type":"address[]","internalType":"address[]"}],"stateMutability":"view"},{"type":"function","name":"getRequestWithdrawCallData","inputs":[{"name":"from","type":"address","internalType":"address"},{"name":"primaryAmount","type":"uint256","internalType":"uint256"},{"name":"secondaryAmount","type":"uint256","internalType":"uint256"}],"outputs":[{"name":"","type":"bytes","internalType":"bytes"}],"stateMutability":"pure"},{"type":"function","name":"getRiskParams","inputs":[{"name":"perp","type":"address","internalType":"address"}],"outputs":[{"name":"params","type":"tuple","internalType":"struct Types.RiskParams","components":[{"name":"initialMarginRatio","type":"uint256","internalType":"uint256"},{"name":"liquidationThreshold","type":"uint256","internalType":"uint256"},{"name":"liquidationPriceOff","type":"uint256","internalType":"uint256"},{"name":"insuranceFeeRate","type":"uint256","internalType":"uint256"},{"name":"markPriceSource","type":"address","internalType":"address"},{"name":"name","type":"string","internalType":"string"},{"name":"isRegistered","type":"bool","internalType":"bool"}]}],"stateMutability":"view"},{"type":"function","name":"getSetOperatorCallData","inputs":[{"name":"operator","type":"address","internalType":"address"},{"name":"isValid","type":"bool","internalType":"bool"}],"outputs":[{"name":"","type":"bytes","internalType":"bytes"}],"stateMutability":"pure"},{"type":"function","name":"getTraderRisk","inputs":[{"name":"trader","type":"address","internalType":"address"}],"outputs":[{"name":"netValue","type":"int256","internalType":"int256"},{"name":"exposure","type":"uint256","internalType":"uint256"},{"name":"initialMargin","type":"uint256","internalType":"uint256"},{"name":"maintenanceMargin","type":"uint256","internalType":"uint256"}],"stateMutability":"view"},{"type":"function","name":"handleBadDebt","inputs":[{"name":"liquidatedTrader","type":"address","internalType":"address"}],"outputs":[],"stateMutability":"nonpayable"},{"type":"function","name":"isAllSafe","inputs":[{"name":"traderList","type":"address[]","internalType":"address[]"}],"outputs":[{"name":"safe","type":"bool","internalType":"bool"}],"stateMutability":"view"},{"type":"function","name":"isCreditAllowed","inputs":[{"name":"from","type":"address","internalType":"address"},{"name":"spender","type":"address","internalType":"address"}],"outputs":[{"name":"primaryCreditAllowed","type":"uint256","internalType":"uint256"},{"name":"secondaryCreditAllowed","type":"uint256","internalType":"uint256"}],"stateMutability":"view"},{"type":"function","name":"isFastWithdrawalValid","inputs":[{"name":"fastWithdrawOperator","type":"address","internalType":"address"}],"outputs":[{"name":"","type":"bool","internalType":"bool"}],"stateMutability":"view"},{"type":"function","name":"isOperatorValid","inputs":[{"name":"client","type":"address","internalType":"address"},{"name":"operator","type":"address","internalType":"address"}],"outputs":[{"name":"","type":"bool","internalType":"bool"}],"stateMutability":"view"},{"type":"function","name":"isOrderSenderValid","inputs":[{"name":"orderSender","type":"address","internalType":"address"}],"outputs":[{"name":"","type":"bool","internalType":"bool"}],"stateMutability":"view"},{"type":"function","name":"isSafe","inputs":[{"name":"trader","type":"address","internalType":"address"}],"outputs":[{"name":"safe","type":"bool","internalType":"bool"}],"stateMutability":"view"},{"type":"function","name":"openPosition","inputs":[{"name":"trader","type":"address","internalType":"address"}],"outputs":[],"stateMutability":"nonpayable"},{"type":"function","name":"owner","inputs":[],"outputs":[{"name":"","type":"address","internalType":"address"}],"stateMutability":"view"},{"type":"function","name":"realizePnl","inputs":[{"name":"trader","type":"address","internalType":"address"},{"name":"pnl","type":"int256","internalType":"int256"}],"outputs":[],"stateMutability":"nonpayable"},{"type":"function","name":"renounceOwnership","inputs":[],"outputs":[],"stateMutability":"nonpayable"},{"type":"function","name":"requestLiquidation","inputs":[{"name":"executor","type":"address","internalType":"address"},{"name":"liquidator","type":"address","internalType":"address"},{"name":"liquidatedTrader","type":"address","internalType":"address"},{"name":"requestPaperAmount","type":"int256","internalType":"int256"}],"outputs":[{"name":"liqtorPaperChange","type":"int256","internalType":"int256"},{"name":"liqtorCreditChange","type":"int256","internalType":"int256"},{"name":"liqedPaperChange","type":"int256","internalType":"int256"},{"name":"liqedCreditChange","type":"int256","internalType":"int256"}],"stateMutability":"nonpayable"},{"type":"function","name":"requestWithdraw","inputs":[{"name":"from","type":"address","internalType":"address"},{"name":"primaryAmount","type":"uint256","internalType":"uint256"},{"name":"secondaryAmount","type":"uint256","internalType":"uint256"}],"outputs":[],"stateMutability":"nonpayable"},{"type":"function","name":"setFastWithdrawalWhitelist","inputs":[{"name":"target","type":"address","internalType":"address"},{"name":"isValid","type":"bool","internalType":"bool"}],"outputs":[],"stateMutability":"nonpayable"},{"type":"function","name":"setFundingRateKeeper","inputs":[{"name":"newKeeper","type":"address","internalType":"address"}],"outputs":[],"stateMutability":"nonpayable"},{"type":"function","name":"setInsurance","inputs":[{"name":"newInsurance","type":"address","internalType":"address"}],"outputs":[],"stateMutability":"nonpayable"},{"type":"function","name":"setMaxPositionAmount","inputs":[{"name":"newMaxPositionAmount","type":"uint256","internalType":"uint256"}],"outputs":[],"stateMutability":"nonpayable"},{"type":"function","name":"setOperator","inputs":[{"name":"operator","type":"address","internalType":"address"},{"name":"isValid","type":"bool","internalType":"bool"}],"outputs":[],"stateMutability":"nonpayable"},{"type":"function","name":"setOrderSender","inputs":[{"name":"orderSender","type":"address","internalType":"address"},{"name":"isValid","type":"bool","internalType":"bool"}],"outputs":[],"stateMutability":"nonpayable"},{"type":"function","name":"setPerpRiskParams","inputs":[{"name":"perp","type":"address","internalType":"address"},{"name":"param","type":"tuple","internalType":"struct Types.RiskParams","components":[{"name":"initialMarginRatio","type":"uint256","internalType":"uint256"},{"name":"liquidationThreshold","type":"uint256","internalType":"uint256"},{"name":"liquidationPriceOff","type":"uint256","internalType":"uint256"},{"name":"insuranceFeeRate","type":"uint256","internalType":"uint256"},{"name":"markPriceSource","type":"address","internalType":"address"},{"name":"name","type":"string","internalType":"string"},{"name":"isRegistered","type":"bool","internalType":"bool"}]}],"outputs":[],"stateMutability":"nonpayable"},{"type":"function","name":"setSecondaryAsset","inputs":[{"name":"_secondaryAsset","type":"address","internalType":"address"}],"outputs":[],"stateMutability":"nonpayable"},{"type":"function","name":"setWithdrawTimeLock","inputs":[{"name":"newWithdrawTimeLock","type":"uint256","internalType":"uint256"}],"outputs":[],"stateMutability":"nonpayable"},{"type":"function","name":"state","inputs":[],"outputs":[{"name":"primaryAsset","type":"address","internalType":"address"},{"name":"secondaryAsset","type":"address","internalType":"address"},{"name":"withdrawTimeLock","type":"uint256","internalType":"uint256"},{"name":"fastWithdrawDisabled","type":"bool","internalType":"bool"},{"name":"insurance","type":"address","internalType":"address"},{"name":"fundingRateKeeper","type":"address","internalType":"address"},{"name":"maxPositionAmount","type":"uint256","internalType":"uint256"}],"stateMutability":"view"},{"type":"function","name":"transferOwnership","inputs":[{"name":"newOwner","type":"address","internalType":"address"}],"outputs":[],"stateMutability":"nonpayable"},{"type":"function","name":"updateFundingRate","inputs":[{"name":"perpList","type":"address[]","internalType":"address[]"},{"name":"rateList","type":"int256[]","internalType":"int256[]"}],"outputs":[],"stateMutability":"nonpayable"},{"type":"function","name":"version","inputs":[],"outputs":[{"name":"","type":"string","internalType":"string"}],"stateMutability":"pure"},{"type":"event","name":"OwnershipTransferred","inputs":[{"name":"previousOwner","type":"address","indexed":true,"internalType":"address"},{"name":"newOwner","type":"address","indexed":true,"internalType":"address"}],"anonymous":false}],"bytecode":{"object":"0x60a06040523480156200001157600080fd5b50604051620046aa380380620046aa833981016040819052620000349162000189565b6200003f33620000bc565b6001808190555062000093604051806040016040528060048152602001634a4f4a4f60e01b815250604051806040016040528060018152602001603160f81b815250306200010c60201b62001f621760201c565b608052600280546001600160a01b0319166001600160a01b0392909216919091179055620001bb565b600080546001600160a01b038381166001600160a01b0319831681178455604051919092169283917f8be0079c531659141344cd1fd0a4f28419497f9722a3daafe3b4186f6b6457e09190a35050565b8251602093840120825192840192909220604080517f8b73c3c69bb8fe3d512ecc4cf759cc79239f7b179b0ffacaa9a75d522b39400f818701528082019490945260608401919091524660808401526001600160a01b039190911660a0808401919091528151808403909101815260c09092019052805191012090565b6000602082840312156200019c57600080fd5b81516001600160a01b0381168114620001b457600080fd5b9392505050565b6080516144cc620001de6000396000818161080b0152610e5601526144cc6000f3fe608060405234801561001057600080fd5b506004361061028a5760003560e01c8063715018a61161015c578063be5b0371116100ce578063ebbeba6e11610087578063ebbeba6e146107e0578063f2fde38b146107f3578063f698da2514610806578063fa340fb51461082d578063fc681aad14610840578063fc92b4951461085357600080fd5b8063be5b03711461069f578063c19d93fb146106b2578063c3d155bd1461072d578063c97ab30c14610740578063ce254a35146107ba578063da22b46c146107cd57600080fd5b80638da5cb5b116101205780638da5cb5b146105ba5780638dbdbe6d146105d557806390b74b44146105e857806392e189a6146105fb57806396ca4d3b14610603578063a5fcf8031461066357600080fd5b8063715018a61461054d57806374bf9b5714610555578063769a28ac14610581578063854a80411461059457806385965903146105a757600080fd5b80633a2bf94e11610200578063558a7297116101b9578063558a7297146104bb5780635893ac4d146104ce57806359cd592d146104e15780635d6f9c14146104f45780636cd7751f146105075780636e7530101461051a57600080fd5b80633a2bf94e146103fb5780633cd9523d1461040e5780633eeb530e146104305780634f33cb531461045057806354fd4d501461047057806355559a861461049b57600080fd5b80631867b480116102525780631867b480146103135780631ac69fce1461032657806322eb7cc01461033957806323d30198146103ad57806336af9436146103d557806337a92fe4146103e857600080fd5b80630baaa5281461028f57806311fd52e1146102b557806315e3ecb9146102ca57806317a4dbaa146102dd578063181f4922146102f0575b600080fd5b6102a261029d3660046135a7565b61087f565b6040519081526020015b60405180910390f35b6102c86102c33660046135a7565b6108f8565b005b6102c86102d83660046135c2565b61096e565b6102c86102eb3660046136d9565b6109ee565b6103036102fe36600461378b565b610a75565b60405190151581526020016102ac565b6102a26103213660046137cc565b610a8a565b6102c86103343660046137ff565b610b27565b6103a0610347366004613818565b6040516001600160a01b0384166024820152604481018390526064810182905260609060840160408051601f198184030181529190526020810180516001600160e01b0316631d15fca760e11b17905290509392505050565b6040516102ac9190613898565b6103c06103bb3660046137cc565b610b6e565b604080519283526020830191909152016102ac565b6103a06103e33660046136d9565b610bb4565b6102c86103f63660046135a7565b610c01565b6102c8610409366004613818565b610c50565b61042161041c3660046138ab565b610ce7565b6040516102ac939291906139a1565b61044361043e3660046135a7565b61144a565b6040516102ac91906139e4565b61046361045e3660046135a7565b6114c0565b6040516102ac91906139f7565b60408051808201909152600f81526e4a4f4a4f4465616c65722056312e3160881b60208201526103a0565b6102a26104a93660046137ff565b60009081526010602052604090205490565b6102c86104c9366004613a66565b611611565b6102c86104dc366004613a66565b611696565b6103c06104ef366004613a90565b6116ed565b6102a26105023660046135a7565b6117a0565b6102c86105153660046135a7565b611811565b61052d6105283660046135a7565b611860565b6040805194855260208501939093529183015260608201526080016102ac565b6102c861190a565b6103036105633660046135a7565b6001600160a01b031660009081526012602052604090205460ff1690565b61030361058f3660046135a7565b61191e565b6102c86105a2366004613acc565b61192b565b6102c86105b5366004613a66565b6119ff565b6000546040516001600160a01b0390911681526020016102ac565b6102c86105e3366004613b37565b611a56565b6102c86105f63660046137ff565b611ab3565b610443611afa565b6103a0610611366004613a66565b6040516001600160a01b0383166024820152811515604482015260609060640160408051601f198184030181529190526020810180516001600160e01b031663558a729760e01b179052905092915050565b6103036106713660046137cc565b6001600160a01b03918216600090815260146020908152604080832093909416825291909152205460ff1690565b61052d6106ad366004613b6c565b611b5f565b6002546003546008546013546015546016546017546106e7966001600160a01b03908116968116959460ff1693811692169087565b604080516001600160a01b039889168152968816602088015286019490945291151560608501528416608084015290921660a082015260c081019190915260e0016102ac565b6102c861073b366004613bb7565b611c8c565b61079261074e3660046135a7565b6001600160a01b031660009081526004602090815260408083205460058352818420546009845282852054600a855283862054600b90955292909420549094919291565b604080519586526020860194909452928401919091526060830152608082015260a0016102ac565b6102c86107c83660046135a7565b611cd0565b6102c86107db366004613c0b565b611d1f565b6102c86107ee3660046135a7565b611da4565b6102c86108013660046135a7565b611e19565b6102a27f000000000000000000000000000000000000000000000000000000000000000081565b6102c861083b366004613c8b565b611e8f565b6102c861084e366004613818565b611ed7565b6103036108613660046135a7565b6001600160a01b031660009081526011602052604090205460ff1690565b6000816001600160a01b03166395196f7e6040518163ffffffff1660e01b815260040160206040518083038186803b1580156108ba57600080fd5b505afa1580156108ce573d6000803e3d6000fd5b505050506040513d601f19601f820116820180604052508101906108f29190613ca6565b92915050565b6040516306b64e1960e31b8152600260048201526001600160a01b038216602482015273__$01b44374045d13c648587b7b08c2e96971$__906335b270c8906044015b60006040518083038186803b15801561095357600080fd5b505af4158015610967573d6000803e3d6000fd5b5050505050565b336000908152600c602090815260409182902060060154825180840190935260188352771293d293d7d411549417d393d517d49151d254d51154915160421b9183019190915260ff166109dd5760405162461bcd60e51b81526004016109d49190613898565b60405180910390fd5b506109ea60028383611fdf565b5050565b6109f6612162565b604051632dc124ad60e01b815273__$9dafa8a7748bb2eceb99d92e8d1e4681eb$__90632dc124ad90610a36906002908890889088908890600401613cbf565b60006040518083038186803b158015610a4e57600080fd5b505af4158015610a62573d6000803e3d6000fd5b50505050610a6f60018055565b50505050565b6000610a83600284846121bc565b9392505050565b6040516322ee420b60e21b8152600260048201526001600160a01b0380841660248301528216604482015260009073__$01b44374045d13c648587b7b08c2e96971$__90638bb9082c9060640160206040518083038186803b158015610aef57600080fd5b505af4158015610b03573d6000803e3d6000fd5b505050506040513d601f19601f82011682018060405250810190610a839190613ca6565b610b2f612220565b60405163354102b360e01b8152600260048201526024810182905273__$3a56420a070521224b618acfe469304a3f$__9063354102b39060440161093b565b6001600160a01b038083166000818152600660209081526040808320948616808452948252808320549383526007825280832094835293905291909120545b9250929050565b606084848484604051602401610bcd9493929190613d04565b60408051601f198184030181529190526020810180516001600160e01b0316630bd26dd560e11b1790529050949350505050565b610c09612220565b60405163703132e560e01b8152600260048201526001600160a01b038216602482015273__$3a56420a070521224b618acfe469304a3f$__9063703132e59060440161093b565b610c58612162565b60405163429163c760e11b8152600260048201526001600160a01b0384166024820152604481018390526064810182905273__$9dafa8a7748bb2eceb99d92e8d1e4681eb$__90638522c78e906084015b60006040518083038186803b158015610cc157600080fd5b505af4158015610cd5573d6000803e3d6000fd5b50505050610ce260018055565b505050565b336000908152600c602090815260409182902060060154825180840190935260188352771293d293d7d411549417d393d517d49151d254d51154915160421b91830191909152606091829182919060ff16610d555760405162461bcd60e51b81526004016109d49190613898565b506001600160a01b038616600090815260116020908152604091829020548251808401909352601983527f4a4f4a4f5f494e56414c49445f4f524445525f53454e444552000000000000009183019190915260ff16610dc75760405162461bcd60e51b81526004016109d49190613898565b5060008080610dd887890189613e57565b925092509250600083516001600160401b03811115610df957610df96135fc565b604051908082528060200260200182016040528015610e22578160200160208202803683370190505b50905060005b8451811015611379576000858281518110610e4557610e45613f90565b602002602001015190506000610eb07f0000000000000000000000000000000000000000000000000000000000000000610eab84601f190180517f6ce22f1be37c24a60b088bc91a456d1ae077db421fa72ffe85abd6af245899e4825260c08220915290565b61227a565b905080848481518110610ec557610ec5613f90565b6020026020010181815250506000610ef682888681518110610ee957610ee9613f90565b60200260200101516122bb565b905082602001516001600160a01b0316816001600160a01b031614158015610f4957506020808401516001600160a01b03908116600090815260148352604080822092851682529190925290205460ff16155b156110b55760208301516001600160a01b03163b1561106a5782602001516001600160a01b0316631626ba7e83898781518110610f8857610f88613f90565b60200260200101516040518363ffffffff1660e01b8152600401610fad929190613fa6565b60206040518083038186803b158015610fc557600080fd5b505afa158015610fd9573d6000803e3d6000fd5b505050506040513d601f19601f82011682018060405250810190610ffd9190613fc7565b6001600160e01b031916631626ba7e60e01b146040518060400160405280601c81526020017f4a4f4a4f5f494e56414c49445f4f524445525f5349474e415455524500000000815250906110645760405162461bcd60e51b81526004016109d49190613898565b506110b5565b604080518082018252601c81527f4a4f4a4f5f494e56414c49445f4f524445525f5349474e4154555245000000006020820152905162461bcd60e51b81526109d49190600401613898565b6080830151429060401c6001600160401b03161015604051806040016040528060128152602001711293d293d7d3d491115497d156141254915160721b815250906111135760405162461bcd60e51b81526004016109d49190613898565b5060008360400151600f0b128015611132575060008360600151600f0b135b80611156575060008360400151600f0b138015611156575060008360600151600f0b125b6040518060400160405280601981526020017f4a4f4a4f5f4f524445525f50524943455f4e4547415449564500000000000000815250906111aa5760405162461bcd60e51b81526004016109d49190613898565b5082516040805180820190915260128152710949e949ebea08aa4a0be9a92a69a82a886960731b6020820152906001600160a01b031633146111ff5760405162461bcd60e51b81526004016109d49190613898565b5083158061124157508760008151811061121b5761121b613f90565b6020026020010151602001516001600160a01b031683602001516001600160a01b031614155b604051806040016040528060158152602001740949e949ebe9ea4888aa4bea68a988cbe9a82a8869605b1b8152509061128d5760405162461bcd60e51b81526004016109d49190613898565b508584815181106112a0576112a0613f90565b60200260200101516002600e01600084815260200190815260200160002060008282546112cd9190614007565b925050819055506112fd8885815181106112e9576112e9613f90565b602002602001015160400151600f0b6122df565b6002600e0160008481526020019081526020016000205411156040518060400160405280601a81526020017f4a4f4a4f5f4f524445525f46494c4c45445f4f564552464c4f570000000000008152509061136a5760405162461bcd60e51b81526004016109d49190613898565b50836001019350505050610e28565b50600061138960028387866122fa565b60608101516001600160a01b038d166000908152600460205260408120805493945091926113b890849061401f565b909155505060608101516000131561142b576113d560028c612cab565b6040518060400160405280601a81526020017f4a4f4a4f5f4f524445525f53454e4445525f4e4f545f53414645000000000000815250906114295760405162461bcd60e51b81526004016109d49190613898565b505b80516020820151604090920151909c919b509950975050505050505050565b6001600160a01b0381166000908152600e60209081526040918290208054835181840281018401909452808452606093928301828280156114b457602002820191906000526020600020905b81546001600160a01b03168152600190910190602001808311611496575b50505050509050919050565b61150b6040518060e001604052806000815260200160008152602001600081526020016000815260200160006001600160a01b03168152602001606081526020016000151581525090565b6001600160a01b038083166000908152600c6020908152604091829020825160e08101845281548152600182015492810192909252600281015492820192909252600382015460608201526004820154909216608083015260058101805460a08401919061157890614060565b80601f01602080910402602001604051908101604052809291908181526020018280546115a490614060565b80156115f15780601f106115c6576101008083540402835291602001916115f1565b820191906000526020600020905b8154815290600101906020018083116115d457829003601f168201915b50505091835250506006919091015460ff16151560209091015292915050565b60405163d0f3b1f960e01b8152600260048201523360248201526001600160a01b0383166044820152811515606482015273__$3a56420a070521224b618acfe469304a3f$__9063d0f3b1f9906084015b60006040518083038186803b15801561167a57600080fd5b505af415801561168e573d6000803e3d6000fd5b505050505050565b61169e612220565b604051630b3f5af760e41b8152600260048201526001600160a01b0383166024820152811515604482015273__$3a56420a070521224b618acfe469304a3f$__9063b3f5af7090606401611662565b604051630a67da8b60e41b8152600260048201526001600160a01b0380851660248301528316604482015260648101829052600090819073__$01b44374045d13c648587b7b08c2e96971$__9063a67da8b09060840160606040518083038186803b15801561175b57600080fd5b505af415801561176f573d6000803e3d6000fd5b505050506040513d601f19601f82011682018060405250810190611793919061409b565b5090969095509350505050565b60405163f4392a9560e01b8152600260048201526001600160a01b038216602482015260009073__$01b44374045d13c648587b7b08c2e96971$__9063f4392a959060440160206040518083038186803b1580156117fd57600080fd5b505af41580156108ce573d6000803e3d6000fd5b611819612220565b604051632360c53d60e11b8152600260048201526001600160a01b038216602482015273__$3a56420a070521224b618acfe469304a3f$__906346c18a7a9060440161093b565b604051630238dec560e51b8152600260048201526001600160a01b038216602482015260009081908190819073__$01b44374045d13c648587b7b08c2e96971$__9063471bd8a09060440160806040518083038186803b1580156118c357600080fd5b505af41580156118d7573d6000803e3d6000fd5b505050506040513d601f19601f820116820180604052508101906118fb91906140c9565b92989197509550909350915050565b611912612220565b61191c6000612d10565b565b60006108f2600283612d60565b6016546040805180820190915260208082527f4a4f4a4f5f494e56414c49445f46554e44494e475f524154455f4b454550455290820152906001600160a01b0316331461198b5760405162461bcd60e51b81526004016109d49190613898565b5060405163854a804160e01b815273__$3a56420a070521224b618acfe469304a3f$__9063854a8041906119c99087908790879087906004016140ff565b60006040518083038186803b1580156119e157600080fd5b505af41580156119f5573d6000803e3d6000fd5b5050505050505050565b611a07612220565b60405163a4d7ae8f60e01b8152600260048201526001600160a01b0383166024820152811515604482015273__$3a56420a070521224b618acfe469304a3f$__9063a4d7ae8f90606401611662565b611a5e612162565b604051631c320aab60e01b81526002600482015260248101849052604481018390526001600160a01b038216606482015273__$9dafa8a7748bb2eceb99d92e8d1e4681eb$__90631c320aab90608401610ca9565b611abb612220565b6040516378865a4360e11b8152600260048201526024810182905273__$3a56420a070521224b618acfe469304a3f$__9063f10cb4869060440161093b565b60606002600b01805480602002602001604051908101604052809291908181526020018280548015611b5557602002820191906000526020600020905b81546001600160a01b03168152600190910190602001808311611b37575b5050505050905090565b336000908152600c6020908152604080832060060154815180830190925260188252771293d293d7d411549417d393d517d49151d254d51154915160421b9282019290925282918291829160ff16611bca5760405162461bcd60e51b81526004016109d49190613898565b50604051631cd4e69160e11b8152600260048201523360248201526001600160a01b03808a16604483015280891660648301528716608482015260a4810186905273__$01b44374045d13c648587b7b08c2e96971$__906339a9cd229060c40160806040518083038186803b158015611c4257600080fd5b505af4158015611c56573d6000803e3d6000fd5b505050506040513d601f19601f82011682018060405250810190611c7a91906140c9565b929b919a509850909650945050505050565b611c94612220565b60405163fb66bcd160e01b815273__$3a56420a070521224b618acfe469304a3f$__9063fb66bcd19061166290600290869086906004016141ab565b611cd8612220565b60405163308c6ccf60e11b8152600260048201526001600160a01b038216602482015273__$3a56420a070521224b618acfe469304a3f$__90636118d99e9060440161093b565b611d27612162565b604051635f56d2b160e01b815273__$9dafa8a7748bb2eceb99d92e8d1e4681eb$__90635f56d2b190611d6b906002908a908a908a908a908a908a90600401614279565b60006040518083038186803b158015611d8357600080fd5b505af4158015611d97573d6000803e3d6000fd5b5050505061168e60018055565b336000908152600c602090815260409182902060060154825180840190935260188352771293d293d7d411549417d393d517d49151d254d51154915160421b9183019190915260ff16611e0a5760405162461bcd60e51b81526004016109d49190613898565b50611e16600282612d7e565b50565b611e21612220565b6001600160a01b038116611e865760405162461bcd60e51b815260206004820152602660248201527f4f776e61626c653a206e6577206f776e657220697320746865207a65726f206160448201526564647265737360d01b60648201526084016109d4565b611e1681612d10565b611e97612220565b6040516343c2efb360e11b815260026004820152811515602482015273__$3a56420a070521224b618acfe469304a3f$__90638785df669060440161093b565b604051637318d73960e01b8152600260048201523360248201526001600160a01b0384166044820152606481018390526084810182905273__$3a56420a070521224b618acfe469304a3f$__90637318d7399060a40160006040518083038186803b158015611f4557600080fd5b505af4158015611f59573d6000803e3d6000fd5b50505050505050565b8251602093840120825192840192909220604080517f8b73c3c69bb8fe3d512ecc4cf759cc79239f7b179b0ffacaa9a75d522b39400f818701528082019490945260608401919091524660808401526001600160a01b039190911660a0808401919091528151808403909101815260c09092019052805191012090565b6001600160a01b03821660009081526002840160205260408120805483929061200990849061401f565b90915550506001600160a01b0382166000908152600d8401602090815260408083203384529091528120805460019290612044908490614007565b90915550506001600160a01b0382166000908152600c840160205260408120905b815481101561096757336001600160a01b031682828154811061208a5761208a613f90565b6000918252602090912001546001600160a01b0316141561215a57815482906120b5906001906142ce565b815481106120c5576120c5613f90565b9060005260206000200160009054906101000a90046001600160a01b03168282815481106120f5576120f5613f90565b9060005260206000200160006101000a8154816001600160a01b0302191690836001600160a01b0316021790555081805480612133576121336142e5565b600082815260209020810160001990810180546001600160a01b0319169055019055610967565b600101612065565b600260015414156121b55760405162461bcd60e51b815260206004820152601f60248201527f5265656e7472616e637947756172643a207265656e7472616e742063616c6c0060448201526064016109d4565b6002600155565b6000805b828110156122155760008484838181106121dc576121dc613f90565b90506020020160208101906121f191906135a7565b90506121fd8682612d60565b61220c57600092505050610a83565b506001016121c0565b506001949350505050565b6000546001600160a01b0316331461191c5760405162461bcd60e51b815260206004820181905260248201527f4f776e61626c653a2063616c6c6572206973206e6f7420746865206f776e657260448201526064016109d4565b6040805161190160f01b6020808301919091526022820185905260428083018590528351808403909101815260629092019092528051910120600090610a83565b60008060006122ca8585612e23565b915091506122d781612e66565b509392505050565b60008082126122ee57816108f2565b6108f2826000196142fb565b6123256040518060800160405280606081526020016060815260200160608152602001600081525090565b6002835110156040518060400160405280601981526020017f4a4f4a4f5f41545f4c454153545f54574f5f54524144455253000000000000008152509061237f5760405162461bcd60e51b81526004016109d49190613898565b5060006002905060008360018151811061239b5761239b613f90565b602002602001015190506000600290505b8551811015612503578481815181106123c7576123c7613f90565b6020026020010151826123da9190614007565b9150856123e86001836142ce565b815181106123f8576123f8613f90565b6020026020010151602001516001600160a01b031686828151811061241f5761241f613f90565b6020026020010151602001516001600160a01b0316111561244c57612445836001614007565b92506124fb565b856124586001836142ce565b8151811061246857612468613f90565b6020026020010151602001516001600160a01b031686828151811061248f5761248f613f90565b6020026020010151602001516001600160a01b0316146040518060400160405280601881526020017f4a4f4a4f5f4f524445525f57524f4e475f534f5254494e470000000000000000815250906124f95760405162461bcd60e51b81526004016109d49190613898565b505b6001016123ac565b50808460008151811061251857612518613f90565b6020026020010151146040518060400160405280601d81526020017f4a4f4a4f5f54414b45525f54524144455f414d4f554e545f57524f4e47000000815250906125755760405162461bcd60e51b81526004016109d49190613898565b50816001600160401b0381111561258e5761258e6135fc565b6040519080825280602002602001820160405280156125b7578160200160208202803683370190505b508352845185906000906125cd576125cd613f90565b60200260200101516020015183600001516000815181106125f0576125f0613f90565b6001600160a01b039092166020928302919091019091015250508051516001600160401b03811115612624576126246135fc565b60405190808252806020026020018201604052801561264d578160200160208202803683370190505b5060208201528051516001600160401b0381111561266d5761266d6135fc565b604051908082528060200260200182016040528015612696578160200160208202803683370190505b50604082015282516001908490829081106126b3576126b3613f90565b60200260200101516020015182600001516001815181106126d6576126d6613f90565b6001600160a01b039092166020928302919091019091015260015b8451811015612aeb576127378560008151811061271057612710613f90565b602002602001015186838151811061272a5761272a613f90565b6020026020010151612fb4565b6002811015801561279e57508461274f6001836142ce565b8151811061275f5761275f613f90565b6020026020010151602001516001600160a01b031685828151811061278657612786613f90565b6020026020010151602001516001600160a01b031614155b15612805576127ae826001614007565b91508481815181106127c2576127c2613f90565b602002602001015160200151836000015183815181106127e4576127e4613f90565b60200260200101906001600160a01b031690816001600160a01b0316815250505b60008086838151811061281a5761281a613f90565b602002602001015160400151600f0b136128615761285085838151811061284357612843613f90565b6020026020010151613164565b61285c906000196142fb565b612876565b61287685838151811061284357612843613f90565b9050600086838151811061288c5761288c613f90565b602002602001015160400151600f0b8784815181106128ad576128ad613f90565b602002602001015160600151600f0b836128c791906142fb565b6128d19190614396565b905060006129166128ff8986815181106128ed576128ed613f90565b60200260200101516080015160c01d90565b61291061290b856122df565b613164565b906131d2565b905060008a600d0160008a878151811061293257612932613f90565b6020908102919091018101518101516001600160a01b03168252818101929092526040908101600090812033808352935220548a519092508a908790811061297c5761297c613f90565b6020026020010151602001516001600160a01b03168b87815181106129a3576129a3613f90565b60200260200101517f37b2a69d205989c65f51df4396c0e4c8ddbd4685bf98bd2f58f5c321f5162a798786886129d991906143c4565b60408051928352602083019190915281018690526060810187905260800160405180910390a48387602001518781518110612a1657612a16613f90565b60200260200101818151612a2a919061401f565b905250612a3782846143c4565b87604001518781518110612a4d57612a4d613f90565b60200260200101818151612a61919061401f565b90525060208701518051859190600090612a7d57612a7d613f90565b60200260200101818151612a9191906143c4565b90525060408701518051849190600090612aad57612aad613f90565b60200260200101818151612ac191906143c4565b905250606087018051839190612ad890839061401f565b90525050600190930192506126f1915050565b50506000612b47612b1d85600081518110612b0857612b08613f90565b60200260200101516080015160801c60070b90565b61291061290b8560400151600081518110612b3a57612b3a613f90565b60200260200101516122df565b9050808260400151600081518110612b6157612b61613f90565b60200260200101818151612b7591906143c4565b905250606082018051829190612b8c90839061401f565b905250835133908590600090612ba457612ba4613f90565b6020026020010151602001516001600160a01b031686600081518110612bcc57612bcc613f90565b60200260200101517f37b2a69d205989c65f51df4396c0e4c8ddbd4685bf98bd2f58f5c321f5162a798560200151600081518110612c0c57612c0c613f90565b60200260200101518660400151600081518110612c2b57612c2b613f90565b60200260200101518b600d0160008b600081518110612c4c57612c4c613f90565b6020908102919091018101518101516001600160a01b031682528181019290925260409081016000908120338252835281902054815194855291840192909252908201526060810186905260800160405180910390a450949350505050565b6000806000612cba85856131f1565b506001600160a01b038716600090815260038901602052604081205493955090935091612ce79150613164565b612cf190846143c4565b12158015612d075750612d0381613164565b8212155b95945050505050565b600080546001600160a01b038381166001600160a01b0319831681178455604051919092169283917f8be0079c531659141344cd1fd0a4f28419497f9722a3daafe3b4186f6b6457e09190a35050565b6000806000612d6f85856131f1565b935050509150612d0381613164565b816015015482600c016000836001600160a01b03166001600160a01b0316815260200190815260200160002080549050106040518060600160405280602681526020016144716026913990612de65760405162461bcd60e51b81526004016109d49190613898565b506001600160a01b03166000908152600c909101602090815260408220805460018101825590835291200180546001600160a01b03191633179055565b600080825160411415612e5a5760208301516040840151606085015160001a612e4e878285856134c7565b94509450505050610bad565b50600090506002610bad565b6000816004811115612e7a57612e7a614403565b1415612e835750565b6001816004811115612e9757612e97614403565b1415612ee55760405162461bcd60e51b815260206004820152601860248201527f45434453413a20696e76616c6964207369676e6174757265000000000000000060448201526064016109d4565b6002816004811115612ef957612ef9614403565b1415612f475760405162461bcd60e51b815260206004820152601f60248201527f45434453413a20696e76616c6964207369676e6174757265206c656e6774680060448201526064016109d4565b6003816004811115612f5b57612f5b614403565b1415611e165760405162461bcd60e51b815260206004820152602260248201527f45434453413a20696e76616c6964207369676e6174757265202773272076616c604482015261756560f01b60648201526084016109d4565b60008260400151600f0b8260600151600f0b612fd091906142fb565b905060008260400151600f0b8460600151600f0b612fee91906142fb565b905060008460400151600f0b13156130b55760008360400151600f0b126040518060400160405280601a8152602001790949e949ebe9ea4888aa4bea0a492868abe9c9ea8be9a82a886960331b8152509061305c5760405162461bcd60e51b81526004016109d49190613898565b5060408051808201909152601a8152790949e949ebe9ea4888aa4bea0a492868abe9c9ea8be9a82a886960331b6020820152818313156130af5760405162461bcd60e51b81526004016109d49190613898565b50610a6f565b60008360400151600f0b136040518060400160405280601a8152602001790949e949ebe9ea4888aa4bea0a492868abe9c9ea8be9a82a886960331b815250906131115760405162461bcd60e51b81526004016109d49190613898565b5060408051808201909152601a8152790949e949ebe9ea4888aa4bea0a492868abe9c9ea8be9a82a886960331b6020820152818312156109675760405162461bcd60e51b81526004016109d49190613898565b60006001600160ff1b038211156131ce5760405162461bcd60e51b815260206004820152602860248201527f53616665436173743a2076616c756520646f65736e27742066697420696e2061604482015267371034b73a191a9b60c11b60648201526084016109d4565b5090565b6000670de0b6b3a76400006131e783856142fb565b610a839190614396565b600080808080805b6001600160a01b0387166000908152600c89016020526040902054811015613467576001600160a01b0387166000908152600c89016020526040812080548291908490811061324a5761324a613f90565b6000918252602090912001546040516370a0823160e01b81526001600160a01b038b81166004830152909116906370a0823190602401604080518083038186803b15801561329757600080fd5b505afa1580156132ab573d6000803e3d6000fd5b505050506040513d601f19601f820116820180604052508101906132cf9190614419565b9150915060008a600a0160008c600c0160008d6001600160a01b03166001600160a01b03168152602001908152602001600020868154811061331357613313613f90565b60009182526020808320909101546001600160a01b039081168452838201949094526040928301822060048082015485516330204b1960e11b8152955192975093956133b6959416936360409632938183019390929091829003018186803b15801561337e57600080fd5b505afa158015613392573d6000803e3d6000fd5b505050506040513d601f19601f8201168201806040525081019061290b9190613ca6565b9050826133c385836131d2565b6133cd919061401f565b6133d7908761401f565b955060006133ed6133e886846131d2565b6122df565b90506133f9818b614007565b9950670de0b6b3a7640000836001015482613414919061443d565b61341e919061445c565b6134289089614007565b8354909850670de0b6b3a764000090613441908361443d565b61344b919061445c565b613455908a614007565b985085600101955050505050506131f9565b506001600160a01b038616600090815260038801602052604090205461348c90613164565b6001600160a01b03871660009081526002890160205260409020546134b1908361401f565b6134bb919061401f565b94505092959194509250565b6000807f7fffffffffffffffffffffffffffffff5d576e7357a4501ddfe92f46681b20a08311156134fe5750600090506003613582565b6040805160008082526020820180845289905260ff881692820192909252606081018690526080810185905260019060a0016020604051602081039080840390855afa158015613552573d6000803e3d6000fd5b5050604051601f1901519150506001600160a01b03811661357b57600060019250925050613582565b9150600090505b94509492505050565b80356001600160a01b03811681146135a257600080fd5b919050565b6000602082840312156135b957600080fd5b610a838261358b565b600080604083850312156135d557600080fd5b6135de8361358b565b946020939093013593505050565b803580151581146135a257600080fd5b634e487b7160e01b600052604160045260246000fd5b60405160a081016001600160401b0381118282101715613634576136346135fc565b60405290565b604051601f8201601f191681016001600160401b0381118282101715613662576136626135fc565b604052919050565b600082601f83011261367b57600080fd5b81356001600160401b03811115613694576136946135fc565b6136a7601f8201601f191660200161363a565b8181528460208386010111156136bc57600080fd5b816020850160208301376000918101602001919091529392505050565b600080600080608085870312156136ef57600080fd5b6136f88561358b565b93506137066020860161358b565b9250613714604086016135ec565b915060608501356001600160401b0381111561372f57600080fd5b61373b8782880161366a565b91505092959194509250565b60008083601f84011261375957600080fd5b5081356001600160401b0381111561377057600080fd5b6020830191508360208260051b8501011115610bad57600080fd5b6000806020838503121561379e57600080fd5b82356001600160401b038111156137b457600080fd5b6137c085828601613747565b90969095509350505050565b600080604083850312156137df57600080fd5b6137e88361358b565b91506137f66020840161358b565b90509250929050565b60006020828403121561381157600080fd5b5035919050565b60008060006060848603121561382d57600080fd5b6138368461358b565b95602085013595506040909401359392505050565b6000815180845260005b8181101561387157602081850181015186830182015201613855565b81811115613883576000602083870101525b50601f01601f19169290920160200192915050565b602081526000610a83602083018461384b565b6000806000604084860312156138c057600080fd5b6138c98461358b565b925060208401356001600160401b03808211156138e557600080fd5b818601915086601f8301126138f957600080fd5b81358181111561390857600080fd5b87602082850101111561391a57600080fd5b6020830194508093505050509250925092565b600081518084526020808501945080840160005b838110156139665781516001600160a01b031687529582019590820190600101613941565b509495945050505050565b600081518084526020808501945080840160005b8381101561396657815187529582019590820190600101613985565b6060815260006139b4606083018661392d565b82810360208401526139c68186613971565b905082810360408401526139da8185613971565b9695505050505050565b602081526000610a83602083018461392d565b602081528151602082015260208201516040820152604082015160608201526060820151608082015260018060a01b0360808301511660a0820152600060a083015160e060c0840152613a4e61010084018261384b565b905060c0840151151560e08401528091505092915050565b60008060408385031215613a7957600080fd5b613a828361358b565b91506137f6602084016135ec565b600080600060608486031215613aa557600080fd5b613aae8461358b565b9250613abc6020850161358b565b9150604084013590509250925092565b60008060008060408587031215613ae257600080fd5b84356001600160401b0380821115613af957600080fd5b613b0588838901613747565b90965094506020870135915080821115613b1e57600080fd5b50613b2b87828801613747565b95989497509550505050565b600080600060608486031215613b4c57600080fd5b8335925060208401359150613b636040850161358b565b90509250925092565b60008060008060808587031215613b8257600080fd5b613b8b8561358b565b9350613b996020860161358b565b9250613ba76040860161358b565b9396929550929360600135925050565b60008060408385031215613bca57600080fd5b613bd38361358b565b915060208301356001600160401b03811115613bee57600080fd5b830160e08186031215613c0057600080fd5b809150509250929050565b60008060008060008060c08789031215613c2457600080fd5b613c2d8761358b565b9550613c3b6020880161358b565b94506040870135935060608701359250613c57608088016135ec565b915060a08701356001600160401b03811115613c7257600080fd5b613c7e89828a0161366a565b9150509295509295509295565b600060208284031215613c9d57600080fd5b610a83826135ec565b600060208284031215613cb857600080fd5b5051919050565b8581526001600160a01b03858116602083015284166040820152821515606082015260a060808201819052600090613cf99083018461384b565b979650505050505050565b6001600160a01b0385811682528416602082015282151560408201526080606082018190526000906139da9083018461384b565b60006001600160401b03821115613d5157613d516135fc565b5060051b60200190565b8035600f81900b81146135a257600080fd5b600082601f830112613d7e57600080fd5b81356020613d93613d8e83613d38565b61363a565b82815260059290921b84018101918181019086841115613db257600080fd5b8286015b84811015613df15780356001600160401b03811115613dd55760008081fd5b613de38986838b010161366a565b845250918301918301613db6565b509695505050505050565b600082601f830112613e0d57600080fd5b81356020613e1d613d8e83613d38565b82815260059290921b84018101918181019086841115613e3c57600080fd5b8286015b84811015613df15780358352918301918301613e40565b60008060006060808587031215613e6d57600080fd5b84356001600160401b0380821115613e8457600080fd5b818701915087601f830112613e9857600080fd5b81356020613ea8613d8e83613d38565b82815260a0928302850182019282820191908c851115613ec757600080fd5b958301955b84871015613f3f5780878e031215613ee45760008081fd5b613eec613612565b613ef58861358b565b8152613f0285890161358b565b858201526040613f13818a01613d5b565b90820152613f22888a01613d5b565b818a01526080888101359082015283529586019591830191613ecc565b5098505088013593505080831115613f5657600080fd5b613f6288848901613d6d565b94506040870135925080831115613f7857600080fd5b5050613f8686828701613dfc565b9150509250925092565b634e487b7160e01b600052603260045260246000fd5b828152604060208201526000613fbf604083018461384b565b949350505050565b600060208284031215613fd957600080fd5b81516001600160e01b031981168114610a8357600080fd5b634e487b7160e01b600052601160045260246000fd5b6000821982111561401a5761401a613ff1565b500190565b600080821280156001600160ff1b038490038513161561404157614041613ff1565b600160ff1b839003841281161561405a5761405a613ff1565b50500190565b600181811c9082168061407457607f821691505b6020821081141561409557634e487b7160e01b600052602260045260246000fd5b50919050565b6000806000606084860312156140b057600080fd5b8351925060208401519150604084015190509250925092565b600080600080608085870312156140df57600080fd5b505082516020840151604085015160609095015191969095509092509050565b6040808252810184905260008560608301825b87811015614140576001600160a01b0361412b8461358b565b16825260209283019290910190600101614112565b5083810360208581019190915285825291508590820160005b8681101561417557823582529183019190830190600101614159565b5098975050505050505050565b81835281816020850137506000828201602090810191909152601f909101601f19169091010190565b838152600060018060a01b038085166020840152606060408401528335606084015260208401356080840152604084013560a0840152606084013560c0840152806141f86080860161358b565b1660e08401525060a0830135601e1984360301811261421657600080fd5b830180356001600160401b0381111561422e57600080fd5b80360385131561423d57600080fd5b60e061010085015261425761014085018260208501614182565b91505061426660c085016135ec565b8015156101208501525095945050505050565b8781526001600160a01b03878116602083015286166040820152606081018590526080810184905282151560a082015260e060c082018190526000906142c19083018461384b565b9998505050505050505050565b6000828210156142e0576142e0613ff1565b500390565b634e487b7160e01b600052603160045260246000fd5b60006001600160ff1b038184138284138082168684048611161561432157614321613ff1565b600160ff1b600087128281168783058912161561434057614340613ff1565b6000871292508782058712848416161561435c5761435c613ff1565b8785058712818416161561437257614372613ff1565b505050929093029392505050565b634e487b7160e01b600052601260045260246000fd5b6000826143a5576143a5614380565b600160ff1b8214600019841416156143bf576143bf613ff1565b500590565b60008083128015600160ff1b8501841216156143e2576143e2613ff1565b6001600160ff1b03840183138116156143fd576143fd613ff1565b50500390565b634e487b7160e01b600052602160045260246000fd5b6000806040838503121561442c57600080fd5b505080516020909101519092909150565b600081600019048311821515161561445757614457613ff1565b500290565b60008261446b5761446b614380565b50049056fe4a4f4a4f5f504f534954494f4e5f414d4f554e545f52454143485f55505045525f4c494d4954a2646970667358221220ee01a76f613612230aacad979d2c5b68917edb11f08f3e6689ac5d41b305b9f464736f6c63430008090033","linkReferences":{"src/libraries/Funding.sol":{"Funding":[{"start":3043,"length":20},{"start":3689,"length":20},{"start":7279,"length":20},{"start":7956,"length":20}]},"src/libraries/Liquidation.sol":{"Liquidation":[{"start":2811,"length":20},{"start":3224,"length":20},{"start":6404,"length":20},{"start":6566,"length":20},{"start":6764,"length":20},{"start":7659,"length":20}]},"src/libraries/Operation.sol":{"Operation":[{"start":3370,"length":20},{"start":3596,"length":20},{"start":6178,"length":20},{"start":6313,"length":20},{"start":6684,"length":20},{"start":7033,"length":20},{"start":7186,"length":20},{"start":7350,"length":20},{"start":7809,"length":20},{"start":7899,"length":20},{"start":8339,"length":20},{"start":8430,"length":20}]}}},"methodIdentifiers":{"approveFundOperator(address,uint256,uint256)":"fc681aad","approveTrade(address,bytes)":"3cd9523d","deposit(uint256,uint256,address)":"8dbdbe6d","disableFastWithdraw(bool)":"fa340fb5","domainSeparator()":"f698da25","executeWithdraw(address,address,bool,bytes)":"17a4dbaa","fastWithdraw(address,address,uint256,uint256,bool,bytes)":"da22b46c","getAllRegisteredPerps()":"92e189a6","getCreditOf(address)":"c97ab30c","getExecuteWithdrawCallData(address,address,bool,bytes)":"36af9436","getFundingRate(address)":"0baaa528","getLiquidationCost(address,address,int256)":"59cd592d","getLiquidationPrice(address,address)":"1867b480","getMarkPrice(address)":"5d6f9c14","getOrderFilledAmount(bytes32)":"55559a86","getPositions(address)":"3eeb530e","getRequestWithdrawCallData(address,uint256,uint256)":"22eb7cc0","getRiskParams(address)":"4f33cb53","getSetOperatorCallData(address,bool)":"96ca4d3b","getTraderRisk(address)":"6e753010","handleBadDebt(address)":"11fd52e1","isAllSafe(address[])":"181f4922","isCreditAllowed(address,address)":"23d30198","isFastWithdrawalValid(address)":"74bf9b57","isOperatorValid(address,address)":"a5fcf803","isOrderSenderValid(address)":"fc92b495","isSafe(address)":"769a28ac","openPosition(address)":"ebbeba6e","owner()":"8da5cb5b","realizePnl(address,int256)":"15e3ecb9","renounceOwnership()":"715018a6","requestLiquidation(address,address,address,int256)":"be5b0371","requestWithdraw(address,uint256,uint256)":"3a2bf94e","setFastWithdrawalWhitelist(address,bool)":"5893ac4d","setFundingRateKeeper(address)":"37a92fe4","setInsurance(address)":"6cd7751f","setMaxPositionAmount(uint256)":"90b74b44","setOperator(address,bool)":"558a7297","setOrderSender(address,bool)":"85965903","setPerpRiskParams(address,(uint256,uint256,uint256,uint256,address,string,bool))":"c3d155bd","setSecondaryAsset(address)":"ce254a35","setWithdrawTimeLock(uint256)":"1ac69fce","state()":"c19d93fb","transferOwnership(address)":"f2fde38b","updateFundingRate(address[],int256[])":"854a8041","version()":"54fd4d50"},"id":50}