{"abi":[{"type":"constructor","inputs":[],"stateMutability":"nonpayable"},{"type":"function","name":"getSubaccount","inputs":[{"name":"master","type":"address","internalType":"address"},{"name":"index","type":"uint256","internalType":"uint256"}],"outputs":[{"name":"","type":"address","internalType":"address"}],"stateMutability":"view"},{"type":"function","name":"getSubaccounts","inputs":[{"name":"master","type":"address","internalType":"address"}],"outputs":[{"name":"","type":"address[]","internalType":"address[]"}],"stateMutability":"view"},{"type":"function","name":"newSubaccount","inputs":[],"outputs":[{"name":"subaccount","type":"address","internalType":"address"}],"stateMutability":"nonpayable"},{"type":"event","name":"NewSubaccount","inputs":[{"name":"master","type":"address","indexed":true,"internalType":"address"},{"name":"subaccountIndex","type":"uint256","indexed":false,"internalType":"uint256"},{"name":"subaccountAddress","type":"address","indexed":false,"internalType":"address"}],"anonymous":false}],"bytecode":{"object":"0x60a060405234801561001057600080fd5b5060405161001d9061009b565b604051809103906000f080158015610039573d6000803e3d6000fd5b506001600160a01b0316608081905260405163066ad14f60e21b81523060048201526319ab453c90602401600060405180830381600087803b15801561007e57600080fd5b505af1158015610092573d6000803e3d6000fd5b505050506100a8565b6104d6806104f283390190565b60805161042f6100c36000396000610163015261042f6000f3fe608060405234801561001057600080fd5b50600436106100415760003560e01c80634644fcf414610046578063627b27171461006f578063e6a8a6a01461009a575b600080fd5b610059610054366004610325565b6100a2565b6040516100669190610347565b60405180910390f35b61008261007d366004610394565b610116565b6040516001600160a01b039091168152602001610066565b61008261015c565b6001600160a01b0381166000908152602081815260409182902080548351818402810184019094528084526060939283018282801561010a57602002820191906000526020600020905b81546001600160a01b031681526001909101906020018083116100ec575b50505050509050919050565b6001600160a01b0382166000908152602081905260408120805483908110610140576101406103be565b6000918252602090912001546001600160a01b03169392505050565b60006101877f0000000000000000000000000000000000000000000000000000000000000000610270565b60405163066ad14f60e21b81523360048201529091506001600160a01b038216906319ab453c90602401600060405180830381600087803b1580156101cb57600080fd5b505af11580156101df573d6000803e3d6000fd5b50503360008181526020818152604082208054600180820183558285529284200180546001600160a01b0319166001600160a01b0389161790559183905290549193507fbbbe986b6bb564a2b873d4b8103bdb2fc33c2c3fdc8d49721e86661501363e59925061024e916103d4565b604080519182526001600160a01b03851660208301520160405180910390a290565b6000763d602d80600a3d3981f3363d3d373d3d3d363d730000008260601b60e81c176000526e5af43d82803e903d91602b57fd5bf38260781b17602052603760096000f090506001600160a01b0381166103095760405162461bcd60e51b8152602060048201526016602482015275115490cc4c4d8dce8818dc99585d194819985a5b195960521b604482015260640160405180910390fd5b919050565b80356001600160a01b038116811461030957600080fd5b60006020828403121561033757600080fd5b6103408261030e565b9392505050565b6020808252825182820181905260009190848201906040850190845b818110156103885783516001600160a01b031683529284019291840191600101610363565b50909695505050505050565b600080604083850312156103a757600080fd5b6103b08361030e565b946020939093013593505050565b634e487b7160e01b600052603260045260246000fd5b6000828210156103f457634e487b7160e01b600052601160045260246000fd5b50039056fea2646970667358221220f75eb5d6cab4205f9f8a553b2f4502301eb2d035eb5b5c4ecc45374f419b3c4464736f6c63430008090033608060405234801561001057600080fd5b506104b6806100206000396000f3fe60806040526004361061003f5760003560e01c8063158ef93e1461004457806319ab453c1461007a5780638da5cb5b1461009c578063a04a0908146100d4575b600080fd5b34801561005057600080fd5b5060005461006590600160a01b900460ff1681565b60405190151581526020015b60405180910390f35b34801561008657600080fd5b5061009a61009536600461031d565b6100f4565b005b3480156100a857600080fd5b506000546100bc906001600160a01b031681565b6040516001600160a01b039091168152602001610071565b6100e76100e236600461033f565b610172565b60405161007191906103c8565b600054600160a01b900460ff16156101495760405162461bcd60e51b815260206004820152601360248201527210531491505116481253925512505312569151606a1b60448201526064015b60405180910390fd5b600080546001600160a01b039092166001600160a81b031990921691909117600160a01b179055565b6000546060906001600160a01b031633146101cf5760405162461bcd60e51b815260206004820181905260248201527f4f776e61626c653a2063616c6c6572206973206e6f7420746865206f776e65726044820152606401610140565b6001600160a01b0385166101e257600080fd5b8134146102315760405162461bcd60e51b815260206004820152601a60248201527f5452414e534645525f5041594d454e545f4e4f545f4d415443480000000000006044820152606401610140565b600080866001600160a01b031684878760405161024f92919061041d565b60006040518083038185875af1925050503d806000811461028c576040519150601f19603f3d011682016040523d82523d6000602084013e610291565b606091505b5091509150816102a8576040513d806000833e8082fd5b6000546040516001600160a01b03909116907ff921648548ed1b4b58b275d277c0c61a8b5ebe9277ddd2e198a71732ecf419e3906102ef9030908b908b908b908b9061042d565b60405180910390a29695505050505050565b80356001600160a01b038116811461031857600080fd5b919050565b60006020828403121561032f57600080fd5b61033882610301565b9392505050565b6000806000806060858703121561035557600080fd5b61035e85610301565b9350602085013567ffffffffffffffff8082111561037b57600080fd5b818701915087601f83011261038f57600080fd5b81358181111561039e57600080fd5b8860208285010111156103b057600080fd5b95986020929092019750949560400135945092505050565b600060208083528351808285015260005b818110156103f5578581018301518582016040015282016103d9565b81811115610407576000604083870101525b50601f01601f1916929092016040019392505050565b8183823760009101908152919050565b6001600160a01b0386811682528516602082015260806040820181905281018390526000838560a0840137600060a0858401015260a0601f19601f8601168301019050826060830152969550505050505056fea2646970667358221220e180c16fa25972c0dab0be73669bf4cf3de0960af00fd7a318a6ccc9082685fc64736f6c63430008090033","linkReferences":{}},"methodIdentifiers":{"getSubaccount(address,uint256)":"627b2717","getSubaccounts(address)":"4644fcf4","newSubaccount()":"e6a8a6a0"},"id":31}