{"abi":[{"type":"function","name":"dealer","inputs":[],"outputs":[{"name":"","type":"address","internalType":"address"}],"stateMutability":"view"},{"type":"function","name":"executeWithdrawAsset","inputs":[{"name":"to","type":"address","internalType":"address"},{"name":"toInternal","type":"bool","internalType":"bool"}],"outputs":[],"stateMutability":"nonpayable"},{"type":"function","name":"fastWithdrawAsset","inputs":[{"name":"to","type":"address","internalType":"address"},{"name":"primaryAmount","type":"uint256","internalType":"uint256"},{"name":"secondaryAmount","type":"uint256","internalType":"uint256"},{"name":"isInternal","type":"bool","internalType":"bool"}],"outputs":[],"stateMutability":"nonpayable"},{"type":"function","name":"init","inputs":[{"name":"_owner","type":"address","internalType":"address"},{"name":"_operator","type":"address","internalType":"address"},{"name":"_dealer","type":"address","internalType":"address"},{"name":"_JOJOoperator","type":"address","internalType":"address"}],"outputs":[],"stateMutability":"nonpayable"},{"type":"function","name":"initialized","inputs":[],"outputs":[{"name":"","type":"bool","internalType":"bool"}],"stateMutability":"view"},{"type":"function","name":"owner","inputs":[],"outputs":[{"name":"","type":"address","internalType":"address"}],"stateMutability":"view"},{"type":"function","name":"requestWithdrawAsset","inputs":[{"name":"primaryAmount","type":"uint256","internalType":"uint256"},{"name":"secondaryAmount","type":"uint256","internalType":"uint256"}],"outputs":[],"stateMutability":"nonpayable"}],"bytecode":{"object":"0x608060405234801561001057600080fd5b50610725806100206000396000f3fe608060405234801561001057600080fd5b506004361061007d5760003560e01c806390599e201161005b57806390599e20146100eb5780639de2ee21146100fe578063d9a5267014610111578063de47e1501461012457600080fd5b806306552ff314610082578063158ef93e146100975780638da5cb5b146100c0575b600080fd5b610095610090366004610560565b610137565b005b6000546100ab90600160a01b900460ff1681565b60405190151581526020015b60405180910390f35b6000546100d3906001600160a01b031681565b6040516001600160a01b0390911681526020016100b7565b6100956100f93660046105c4565b6102ed565b6002546100d3906001600160a01b031681565b61009561011f3660046105ff565b6103c8565b610095610132366004610621565b610477565b600054600160a01b900460ff161561018c5760405162461bcd60e51b815260206004820152601360248201527210531491505116481253925512505312569151606a1b60448201526064015b60405180910390fd5b600080546001600160a01b038681166001600160a81b031990921691909117600160a01b17909155600280548483166001600160a01b0319918216811790925560018054938516939091168317815560405163558a729760e01b8152600481019390935260248301529063558a729790604401600060405180830381600087803b15801561021957600080fd5b505af115801561022d573d6000803e3d6000fd5b505050506001600160a01b0383163b156102805760405162461bcd60e51b81526020600482015260146024820152736f70657261746f72206d75737420626520656f6160601b6044820152606401610183565b60025460405163558a729760e01b81526001600160a01b038581166004830152600160248301529091169063558a7297906044015b600060405180830381600087803b1580156102cf57600080fd5b505af11580156102e3573d6000803e3d6000fd5b5050505050505050565b6001546001600160a01b031633148061031057506000546001600160a01b031633145b61032c5760405162461bcd60e51b815260040161018390610654565b6001546001600160a01b031633141561036c576000546001600160a01b0385811691161461036c5760405162461bcd60e51b8152600401610183906106a6565b600254604051633688ad1b60e21b81523060048201526001600160a01b0386811660248301526044820186905260648201859052831515608483015260c060a4830152600060c48301529091169063da22b46c9060e4016102b5565b6001546001600160a01b03163314806103eb57506000546001600160a01b031633145b6104075760405162461bcd60e51b815260040161018390610654565b600254604051631d15fca760e11b815230600482015260248101849052604481018390526001600160a01b0390911690633a2bf94e906064015b600060405180830381600087803b15801561045b57600080fd5b505af115801561046f573d6000803e3d6000fd5b505050505050565b6001546001600160a01b031633148061049a57506000546001600160a01b031633145b6104b65760405162461bcd60e51b815260040161018390610654565b6001546001600160a01b03163314156104f6576000546001600160a01b038381169116146104f65760405162461bcd60e51b8152600401610183906106a6565b600254604051630bd26dd560e11b81523060048201526001600160a01b03848116602483015283151560448301526080606483015260006084830152909116906317a4dbaa9060a401610441565b80356001600160a01b038116811461055b57600080fd5b919050565b6000806000806080858703121561057657600080fd5b61057f85610544565b935061058d60208601610544565b925061059b60408601610544565b91506105a960608601610544565b905092959194509250565b8035801515811461055b57600080fd5b600080600080608085870312156105da57600080fd5b6105e385610544565b935060208501359250604085013591506105a9606086016105b4565b6000806040838503121561061257600080fd5b50508035926020909101359150565b6000806040838503121561063457600080fd5b61063d83610544565b915061064b602084016105b4565b90509250929050565b60208082526032908201527f4f776e61626c653a2063616c6c6572206973206e6f742074686520676c6f62616040820152713627b832b930ba37b91037b91037bbb732b960711b606082015260800190565b60208082526029908201527f676c6f62616c4f70657261746f72206f6e6c792063616e207472616e73666572604082015268103a379037bbb732b960b91b60608201526080019056fea2646970667358221220d351b8d5ef328c4f8bdd2f5b226e65ca9676c97df8f586eb5cf09d14da2e8baa64736f6c63430008090033","linkReferences":{}},"methodIdentifiers":{"dealer()":"9de2ee21","executeWithdrawAsset(address,bool)":"de47e150","fastWithdrawAsset(address,uint256,uint256,bool)":"90599e20","init(address,address,address,address)":"06552ff3","initialized()":"158ef93e","owner()":"8da5cb5b","requestWithdrawAsset(uint256,uint256)":"d9a52670"},"id":26}