{"abi":[{"type":"function","name":"dealer","inputs":[],"outputs":[{"name":"","type":"address","internalType":"address"}],"stateMutability":"view"},{"type":"function","name":"executeWithdrawAsset","inputs":[{"name":"to","type":"address","internalType":"address"},{"name":"toInternal","type":"bool","internalType":"bool"}],"outputs":[],"stateMutability":"nonpayable"},{"type":"function","name":"fastWithdrawAsset","inputs":[{"name":"to","type":"address","internalType":"address"},{"name":"primaryAmount","type":"uint256","internalType":"uint256"},{"name":"secondaryAmount","type":"uint256","internalType":"uint256"},{"name":"isInternal","type":"bool","internalType":"bool"}],"outputs":[],"stateMutability":"nonpayable"},{"type":"function","name":"init","inputs":[{"name":"_owner","type":"address","internalType":"address"},{"name":"_operator","type":"address","internalType":"address"},{"name":"_dealer","type":"address","internalType":"address"},{"name":"_JOJOoperator","type":"address","internalType":"address"}],"outputs":[],"stateMutability":"nonpayable"},{"type":"function","name":"initialized","inputs":[],"outputs":[{"name":"","type":"bool","internalType":"bool"}],"stateMutability":"view"},{"type":"function","name":"owner","inputs":[],"outputs":[{"name":"","type":"address","internalType":"address"}],"stateMutability":"view"},{"type":"function","name":"requestWithdrawAsset","inputs":[{"name":"primaryAmount","type":"uint256","internalType":"uint256"},{"name":"secondaryAmount","type":"uint256","internalType":"uint256"}],"outputs":[],"stateMutability":"nonpayable"}],"bytecode":{"object":"0x608060405234801561001057600080fd5b50610728806100206000396000f3fe608060405234801561001057600080fd5b506004361061007d5760003560e01c806390599e201161005b57806390599e20146100eb5780639de2ee21146100fe578063d9a5267014610111578063de47e1501461012457600080fd5b806306552ff314610082578063158ef93e146100975780638da5cb5b146100c0575b600080fd5b610095610090366004610563565b610137565b005b6002546100ab90600160a01b900460ff1681565b60405190151581526020015b60405180910390f35b6000546100d3906001600160a01b031681565b6040516001600160a01b0390911681526020016100b7565b6100956100f93660046105c7565b6102f0565b6001546100d3906001600160a01b031681565b61009561011f366004610602565b6103cb565b610095610132366004610624565b61047a565b600254600160a01b900460ff161561018c5760405162461bcd60e51b815260206004820152601360248201527210531491505116481253925512505312569151606a1b60448201526064015b60405180910390fd5b60028054600080546001600160a01b038881166001600160a01b031992831617909255600180548784169216821781558583166001600160a81b031990941693909317600160a01b179384905560405163558a729760e01b815293909116600484015260248301919091529063558a729790604401600060405180830381600087803b15801561021b57600080fd5b505af115801561022f573d6000803e3d6000fd5b505050506001600160a01b0383163b156102825760405162461bcd60e51b81526020600482015260146024820152736f70657261746f72206d75737420626520656f6160601b6044820152606401610183565b6001805460405163558a729760e01b81526001600160a01b038681166004830152602482019390935291169063558a7297906044015b600060405180830381600087803b1580156102d257600080fd5b505af11580156102e6573d6000803e3d6000fd5b5050505050505050565b6002546001600160a01b031633148061031357506000546001600160a01b031633145b61032f5760405162461bcd60e51b815260040161018390610657565b6002546001600160a01b031633141561036f576000546001600160a01b0385811691161461036f5760405162461bcd60e51b8152600401610183906106a9565b600154604051633688ad1b60e21b81523060048201526001600160a01b0386811660248301526044820186905260648201859052831515608483015260c060a4830152600060c48301529091169063da22b46c9060e4016102b8565b6002546001600160a01b03163314806103ee57506000546001600160a01b031633145b61040a5760405162461bcd60e51b815260040161018390610657565b600154604051631d15fca760e11b815230600482015260248101849052604481018390526001600160a01b0390911690633a2bf94e906064015b600060405180830381600087803b15801561045e57600080fd5b505af1158015610472573d6000803e3d6000fd5b505050505050565b6002546001600160a01b031633148061049d57506000546001600160a01b031633145b6104b95760405162461bcd60e51b815260040161018390610657565b6002546001600160a01b03163314156104f9576000546001600160a01b038381169116146104f95760405162461bcd60e51b8152600401610183906106a9565b600154604051630bd26dd560e11b81523060048201526001600160a01b03848116602483015283151560448301526080606483015260006084830152909116906317a4dbaa9060a401610444565b80356001600160a01b038116811461055e57600080fd5b919050565b6000806000806080858703121561057957600080fd5b61058285610547565b935061059060208601610547565b925061059e60408601610547565b91506105ac60608601610547565b905092959194509250565b8035801515811461055e57600080fd5b600080600080608085870312156105dd57600080fd5b6105e685610547565b935060208501359250604085013591506105ac606086016105b7565b6000806040838503121561061557600080fd5b50508035926020909101359150565b6000806040838503121561063757600080fd5b61064083610547565b915061064e602084016105b7565b90509250929050565b60208082526032908201527f4f776e61626c653a2063616c6c6572206973206e6f742074686520676c6f62616040820152713627b832b930ba37b91037b91037bbb732b960711b606082015260800190565b60208082526029908201527f676c6f62616c4f70657261746f72206f6e6c792063616e207472616e73666572604082015268103a379037bbb732b960b91b60608201526080019056fea2646970667358221220a127a7d8d07f1e008f66abc329594ab592a618ab2ac18b70ad12104f7a061e2864736f6c63430008090033","linkReferences":{}},"methodIdentifiers":{"dealer()":"9de2ee21","executeWithdrawAsset(address,bool)":"de47e150","fastWithdrawAsset(address,uint256,uint256,bool)":"90599e20","init(address,address,address,address)":"06552ff3","initialized()":"158ef93e","owner()":"8da5cb5b","requestWithdrawAsset(uint256,uint256)":"d9a52670"},"id":75}