{"abi":[{"type":"function","name":"getOrderHash","inputs":[{"name":"domainSeparator","type":"bytes32","internalType":"bytes32"},{"name":"order","type":"tuple","internalType":"struct Types.Order","components":[{"name":"perp","type":"address","internalType":"address"},{"name":"signer","type":"address","internalType":"address"},{"name":"paperAmount","type":"int128","internalType":"int128"},{"name":"creditAmount","type":"int128","internalType":"int128"},{"name":"info","type":"bytes32","internalType":"bytes32"}]}],"outputs":[{"name":"orderHash","type":"bytes32","internalType":"bytes32"}],"stateMutability":"pure"}],"bytecode":{"object":"0x608060405234801561001057600080fd5b506101ec806100206000396000f3fe608060405234801561001057600080fd5b506004361061002b5760003560e01c8063cb48499114610030575b600080fd5b61004361003e366004610103565b610055565b60405190815260200160405180910390f35b60006100ce8361009184601f190180517f6ce22f1be37c24a60b088bc91a456d1ae077db421fa72ffe85abd6af245899e4825260e08220915290565b6040805161190160f01b60208083019190915260228201859052604280830185905283518084039091018152606290920190925280519101206000905b9392505050565b80356001600160a01b03811681146100ec57600080fd5b919050565b8035600f81900b81146100ec57600080fd5b60008082840360c081121561011757600080fd5b8335925060a0601f198201121561012d57600080fd5b5060405160a0810181811067ffffffffffffffff8211171561015f57634e487b7160e01b600052604160045260246000fd5b60405261016e602085016100d5565b815261017c604085016100d5565b602082015261018d606085016100f1565b604082015261019e608085016100f1565b606082015260a093909301356080840152509290915056fea2646970667358221220d77336d86b6ec76a890ede2a9d5be0877e1052d9c23f7415cce7a04490a1776c64736f6c63430008090033","linkReferences":{}},"methodIdentifiers":{"getOrderHash(bytes32,(address,address,int128,int128,bytes32))":"cb484991"},"id":41}