{"abi":[{"type":"constructor","inputs":[{"name":"_owner","type":"address","internalType":"address"}],"stateMutability":"nonpayable"},{"type":"function","name":"balanceOf","inputs":[{"name":"trader","type":"address","internalType":"address"}],"outputs":[{"name":"paper","type":"int256","internalType":"int256"},{"name":"credit","type":"int256","internalType":"int256"}],"stateMutability":"view"},{"type":"function","name":"getFundingRate","inputs":[],"outputs":[{"name":"","type":"int256","internalType":"int256"}],"stateMutability":"view"},{"type":"function","name":"liquidate","inputs":[{"name":"liquidator","type":"address","internalType":"address"},{"name":"liquidatedTrader","type":"address","internalType":"address"},{"name":"requestPaper","type":"int256","internalType":"int256"},{"name":"expectCredit","type":"int256","internalType":"int256"}],"outputs":[{"name":"liqtorPaperChange","type":"int256","internalType":"int256"},{"name":"liqtorCreditChange","type":"int256","internalType":"int256"}],"stateMutability":"nonpayable"},{"type":"function","name":"owner","inputs":[],"outputs":[{"name":"","type":"address","internalType":"address"}],"stateMutability":"view"},{"type":"function","name":"renounceOwnership","inputs":[],"outputs":[],"stateMutability":"nonpayable"},{"type":"function","name":"trade","inputs":[{"name":"tradeData","type":"bytes","internalType":"bytes"}],"outputs":[],"stateMutability":"nonpayable"},{"type":"function","name":"transferOwnership","inputs":[{"name":"newOwner","type":"address","internalType":"address"}],"outputs":[],"stateMutability":"nonpayable"},{"type":"function","name":"updateFundingRate","inputs":[{"name":"newFundingRate","type":"int256","internalType":"int256"}],"outputs":[],"stateMutability":"nonpayable"},{"type":"event","name":"BalanceChange","inputs":[{"name":"trader","type":"address","indexed":true,"internalType":"address"},{"name":"paperChange","type":"int256","indexed":false,"internalType":"int256"},{"name":"creditChange","type":"int256","indexed":false,"internalType":"int256"}],"anonymous":false},{"type":"event","name":"OwnershipTransferred","inputs":[{"name":"previousOwner","type":"address","indexed":true,"internalType":"address"},{"name":"newOwner","type":"address","indexed":true,"internalType":"address"}],"anonymous":false},{"type":"event","name":"UpdateFundingRate","inputs":[{"name":"oldFundingRate","type":"int256","indexed":false,"internalType":"int256"},{"name":"newFundingRate","type":"int256","indexed":false,"internalType":"int256"}],"anonymous":false}],"bytecode":{"object":"0x60806040523480156200001157600080fd5b506040516200121938038062001219833981016040819052620000349162000182565b6200003f3362000051565b6200004a81620000a1565b50620001b4565b600080546001600160a01b038381166001600160a01b0319831681178455604051919092169283917f8be0079c531659141344cd1fd0a4f28419497f9722a3daafe3b4186f6b6457e09190a35050565b620000ab62000124565b6001600160a01b038116620001165760405162461bcd60e51b815260206004820152602660248201527f4f776e61626c653a206e6577206f776e657220697320746865207a65726f206160448201526564647265737360d01b60648201526084015b60405180910390fd5b620001218162000051565b50565b6000546001600160a01b03163314620001805760405162461bcd60e51b815260206004820181905260248201527f4f776e61626c653a2063616c6c6572206973206e6f7420746865206f776e657260448201526064016200010d565b565b6000602082840312156200019557600080fd5b81516001600160a01b0381168114620001ad57600080fd5b9392505050565b61105580620001c46000396000f3fe608060405234801561001057600080fd5b50600436106100885760003560e01c806395196f7e1161005b57806395196f7e146100f2578063c179037014610103578063c2684de614610116578063f2fde38b1461012957600080fd5b80631037ea511461008d57806370a08231146100a2578063715018a6146100cf5780638da5cb5b146100d7575b600080fd5b6100a061009b366004610abc565b61013c565b005b6100b56100b0366004610b43565b610313565b604080519283526020830191909152015b60405180910390f35b6100a061035c565b6000546040516001600160a01b0390911681526020016100c6565b6002546040519081526020016100c6565b6100b5610111366004610b60565b610370565b6100a0610124366004610ba6565b61066a565b6100a0610137366004610b43565b6106b7565b60008060006101536000546001600160a01b031690565b6001600160a01b0316633cd9523d3387876040518463ffffffff1660e01b815260040161018293929190610bbf565b600060405180830381600087803b15801561019c57600080fd5b505af11580156101b0573d6000803e3d6000fd5b505050506040513d6000823e601f3d908101601f191682016040526101d89190810190610cd5565b92509250925060005b8351811015610248576102408482815181106101ff576101ff610dbe565b602002602001015184838151811061021957610219610dbe565b602002602001015184848151811061023357610233610dbe565b6020026020010151610730565b6001016101e1565b50600054604051630c0fa49160e11b81526001600160a01b039091169063181f492290610279908690600401610dd4565b60206040518083038186803b15801561029157600080fd5b505afa1580156102a5573d6000803e3d6000fd5b505050506040513d601f19601f820116820180604052508101906102c99190610e21565b61030c5760405162461bcd60e51b815260206004820152600f60248201526e5452414445525f4e4f545f5341464560881b60448201526064015b60405180910390fd5b5050505050565b6001600160a01b038116600090815260016020526040812054600254600f82810b9392600160801b9004900b9061034b908490610983565b6103559190610e59565b9050915091565b6103646109a9565b61036e6000610a03565b565b6000806000806103886000546001600160a01b031690565b60405163be5b037160e01b81523360048201526001600160a01b038a81166024830152898116604483015260648201899052919091169063be5b037190608401608060405180830381600087803b1580156103e257600080fd5b505af11580156103f6573d6000803e3d6000fd5b505050506040513d601f19601f8201168201806040525081019061041a9190610e9a565b929650909450925090506000841215610494576104378486610ed0565b6104418785610ed0565b131561048f5760405162461bcd60e51b815260206004820152601c60248201527f4c49515549444154494f4e5f50524943455f50524f54454354494f4e000000006044820152606401610303565b6104f6565b61049e8486610ed0565b6104a88785610ed0565b12156104f65760405162461bcd60e51b815260206004820152601c60248201527f4c49515549444154494f4e5f50524943455f50524f54454354494f4e000000006044820152606401610303565b610501878383610730565b61050c888585610730565b6000546001600160a01b0316604051631da68a2b60e21b81526001600160a01b038a81166004830152919091169063769a28ac9060240160206040518083038186803b15801561055b57600080fd5b505afa15801561056f573d6000803e3d6000fd5b505050506040513d601f19601f820116820180604052508101906105939190610e21565b6105d55760405162461bcd60e51b81526020600482015260136024820152724c495155494441544f525f4e4f545f5341464560681b6044820152606401610303565b6001600160a01b038716600090815260016020526040902054600f0b61065f576000546001600160a01b03166040516311fd52e160e01b81526001600160a01b03898116600483015291909116906311fd52e190602401600060405180830381600087803b15801561064657600080fd5b505af115801561065a573d6000803e3d6000fd5b505050505b505094509492505050565b6106726109a9565b600280549082905560408051828152602081018490527f41a4e7eeb93ced398be7dabdc68a1aabb9a4755a11e80587da132e9c09f6e3c5910160405180910390a15050565b6106bf6109a9565b6001600160a01b0381166107245760405162461bcd60e51b815260206004820152602660248201527f4f776e61626c653a206e6577206f776e657220697320746865207a65726f206160448201526564647265737360d01b6064820152608401610303565b61072d81610a03565b50565b6001600160a01b038316600090815260016020526040812054600254600f82810b80159492938692600160801b909104900b9061076d9085610983565b6107779190610e59565b6107819190610e59565b9050600061078e86610a53565b6001600160a01b0388166000908152600160205260409020546107b49190600f0b610f55565b905060006107d86107c9600f84900b86610983565b6107d39085610fa4565b610a53565b6001600160a01b038916600081815260016020526040908190206001600160801b03808516600160801b0290871617905551919250907f4671546415242c95e8c6ef84d4785a1477e86e46fab15b87e504a3da994eba7c90610846908a908a90918252602082015260400190565b60405180910390a284156108be576000546001600160a01b03166040516375df5d3760e11b81526001600160a01b038a81166004830152919091169063ebbeba6e90602401600060405180830381600087803b1580156108a557600080fd5b505af11580156108b9573d6000803e3d6000fd5b505050505b81600f0b60001415610979576000546001600160a01b03166001600160a01b03898116600081815260016020526040908190205490516315e3ecb960e01b81526004810192909252600160801b9004600f0b60248201529116906315e3ecb990604401600060405180830381600087803b15801561093b57600080fd5b505af115801561094f573d6000803e3d6000fd5b5050506001600160a01b038916600090815260016020526040902080546001600160801b03169055505b5050505050505050565b6000670de0b6b3a76400006109988385610ed0565b6109a29190610fe3565b9392505050565b6000546001600160a01b0316331461036e5760405162461bcd60e51b815260206004820181905260248201527f4f776e61626c653a2063616c6c6572206973206e6f7420746865206f776e65726044820152606401610303565b600080546001600160a01b038381166001600160a01b0319831681178455604051919092169283917f8be0079c531659141344cd1fd0a4f28419497f9722a3daafe3b4186f6b6457e09190a35050565b80600f81900b8114610ab75760405162461bcd60e51b815260206004820152602760248201527f53616665436173743a2076616c756520646f65736e27742066697420696e20316044820152663238206269747360c81b6064820152608401610303565b919050565b60008060208385031215610acf57600080fd5b823567ffffffffffffffff80821115610ae757600080fd5b818501915085601f830112610afb57600080fd5b813581811115610b0a57600080fd5b866020828501011115610b1c57600080fd5b60209290920196919550909350505050565b6001600160a01b038116811461072d57600080fd5b600060208284031215610b5557600080fd5b81356109a281610b2e565b60008060008060808587031215610b7657600080fd5b8435610b8181610b2e565b93506020850135610b9181610b2e565b93969395505050506040820135916060013590565b600060208284031215610bb857600080fd5b5035919050565b6001600160a01b03841681526040602082018190528101829052818360608301376000818301606090810191909152601f909201601f1916010192915050565b634e487b7160e01b600052604160045260246000fd5b604051601f8201601f1916810167ffffffffffffffff81118282101715610c3e57610c3e610bff565b604052919050565b600067ffffffffffffffff821115610c6057610c60610bff565b5060051b60200190565b600082601f830112610c7b57600080fd5b81516020610c90610c8b83610c46565b610c15565b82815260059290921b84018101918181019086841115610caf57600080fd5b8286015b84811015610cca5780518352918301918301610cb3565b509695505050505050565b600080600060608486031215610cea57600080fd5b835167ffffffffffffffff80821115610d0257600080fd5b818601915086601f830112610d1657600080fd5b81516020610d26610c8b83610c46565b82815260059290921b8401810191818101908a841115610d4557600080fd5b948201945b83861015610d6c578551610d5d81610b2e565b82529482019490820190610d4a565b91890151919750909350505080821115610d8557600080fd5b610d9187838801610c6a565b93506040860151915080821115610da757600080fd5b50610db486828701610c6a565b9150509250925092565b634e487b7160e01b600052603260045260246000fd5b6020808252825182820181905260009190848201906040850190845b81811015610e155783516001600160a01b031683529284019291840191600101610df0565b50909695505050505050565b600060208284031215610e3357600080fd5b815180151581146109a257600080fd5b634e487b7160e01b600052601160045260246000fd5b600080821280156001600160ff1b0384900385131615610e7b57610e7b610e43565b600160ff1b8390038412811615610e9457610e94610e43565b50500190565b60008060008060808587031215610eb057600080fd5b505082516020840151604085015160609095015191969095509092509050565b60006001600160ff1b0381841382841380821686840486111615610ef657610ef6610e43565b600160ff1b6000871282811687830589121615610f1557610f15610e43565b60008712925087820587128484161615610f3157610f31610e43565b87850587128184161615610f4757610f47610e43565b505050929093029392505050565b600081600f0b83600f0b600082128260016001607f1b0303821381151615610f7f57610f7f610e43565b8260016001607f1b0319038212811615610f9b57610f9b610e43565b50019392505050565b60008083128015600160ff1b850184121615610fc257610fc2610e43565b6001600160ff1b0384018313811615610fdd57610fdd610e43565b50500390565b60008261100057634e487b7160e01b600052601260045260246000fd5b600160ff1b82146000198414161561101a5761101a610e43565b50059056fea2646970667358221220434f89744075032096b5a70160eb2dfb1c59e111c86187e1d8d1253908165f9d64736f6c63430008090033","linkReferences":{}},"methodIdentifiers":{"balanceOf(address)":"70a08231","getFundingRate()":"95196f7e","liquidate(address,address,int256,int256)":"c1790370","owner()":"8da5cb5b","renounceOwnership()":"715018a6","trade(bytes)":"1037ea51","transferOwnership(address)":"f2fde38b","updateFundingRate(int256)":"c2684de6"},"id":11}