{"abi":[{"type":"constructor","inputs":[{"name":"name_","type":"string","internalType":"string"},{"name":"symbol_","type":"string","internalType":"string"},{"name":"decimals_","type":"uint8","internalType":"uint8"}],"stateMutability":"nonpayable"},{"type":"function","name":"allowance","inputs":[{"name":"owner","type":"address","internalType":"address"},{"name":"spender","type":"address","internalType":"address"}],"outputs":[{"name":"","type":"uint256","internalType":"uint256"}],"stateMutability":"view"},{"type":"function","name":"approve","inputs":[{"name":"spender","type":"address","internalType":"address"},{"name":"amount","type":"uint256","internalType":"uint256"}],"outputs":[{"name":"","type":"bool","internalType":"bool"}],"stateMutability":"nonpayable"},{"type":"function","name":"balanceOf","inputs":[{"name":"account","type":"address","internalType":"address"}],"outputs":[{"name":"","type":"uint256","internalType":"uint256"}],"stateMutability":"view"},{"type":"function","name":"decimals","inputs":[],"outputs":[{"name":"","type":"uint8","internalType":"uint8"}],"stateMutability":"view"},{"type":"function","name":"decreaseAllowance","inputs":[{"name":"spender","type":"address","internalType":"address"},{"name":"subtractedValue","type":"uint256","internalType":"uint256"}],"outputs":[{"name":"","type":"bool","internalType":"bool"}],"stateMutability":"nonpayable"},{"type":"function","name":"increaseAllowance","inputs":[{"name":"spender","type":"address","internalType":"address"},{"name":"addedValue","type":"uint256","internalType":"uint256"}],"outputs":[{"name":"","type":"bool","internalType":"bool"}],"stateMutability":"nonpayable"},{"type":"function","name":"mint","inputs":[{"name":"to","type":"address[]","internalType":"address[]"},{"name":"amount","type":"uint256[]","internalType":"uint256[]"}],"outputs":[],"stateMutability":"nonpayable"},{"type":"function","name":"name","inputs":[],"outputs":[{"name":"","type":"string","internalType":"string"}],"stateMutability":"view"},{"type":"function","name":"symbol","inputs":[],"outputs":[{"name":"","type":"string","internalType":"string"}],"stateMutability":"view"},{"type":"function","name":"totalSupply","inputs":[],"outputs":[{"name":"","type":"uint256","internalType":"uint256"}],"stateMutability":"view"},{"type":"function","name":"transfer","inputs":[{"name":"to","type":"address","internalType":"address"},{"name":"amount","type":"uint256","internalType":"uint256"}],"outputs":[{"name":"","type":"bool","internalType":"bool"}],"stateMutability":"nonpayable"},{"type":"function","name":"transferFrom","inputs":[{"name":"from","type":"address","internalType":"address"},{"name":"to","type":"address","internalType":"address"},{"name":"amount","type":"uint256","internalType":"uint256"}],"outputs":[{"name":"","type":"bool","internalType":"bool"}],"stateMutability":"nonpayable"},{"type":"event","name":"Approval","inputs":[{"name":"owner","type":"address","indexed":true,"internalType":"address"},{"name":"spender","type":"address","indexed":true,"internalType":"address"},{"name":"value","type":"uint256","indexed":false,"internalType":"uint256"}],"anonymous":false},{"type":"event","name":"Transfer","inputs":[{"name":"from","type":"address","indexed":true,"internalType":"address"},{"name":"to","type":"address","indexed":true,"internalType":"address"},{"name":"value","type":"uint256","indexed":false,"internalType":"uint256"}],"anonymous":false}],"bytecode":{"object":"0x60806040523480156200001157600080fd5b5060405162000d6838038062000d688339810160408190526200003491620001f7565b8251839083906200004d90600390602085019062000084565b5080516200006390600490602084019062000084565b50506005805460ff191660ff939093169290921790915550620002b9915050565b82805462000092906200027c565b90600052602060002090601f016020900481019282620000b6576000855562000101565b82601f10620000d157805160ff191683800117855562000101565b8280016001018555821562000101579182015b8281111562000101578251825591602001919060010190620000e4565b506200010f92915062000113565b5090565b5b808211156200010f576000815560010162000114565b634e487b7160e01b600052604160045260246000fd5b600082601f8301126200015257600080fd5b81516001600160401b03808211156200016f576200016f6200012a565b604051601f8301601f19908116603f011681019082821181831017156200019a576200019a6200012a565b81604052838152602092508683858801011115620001b757600080fd5b600091505b83821015620001db5785820183015181830184015290820190620001bc565b83821115620001ed5760008385830101525b9695505050505050565b6000806000606084860312156200020d57600080fd5b83516001600160401b03808211156200022557600080fd5b620002338783880162000140565b945060208601519150808211156200024a57600080fd5b50620002598682870162000140565b925050604084015160ff811681146200027157600080fd5b809150509250925092565b600181811c908216806200029157607f821691505b60208210811415620002b357634e487b7160e01b600052602260045260246000fd5b50919050565b610a9f80620002c96000396000f3fe608060405234801561001057600080fd5b50600436106100b45760003560e01c806370a082311161007157806370a082311461014757806395d89b4114610170578063a457c2d714610178578063a9059cbb1461018b578063dd62ed3e1461019e578063e467f7e0146101b157600080fd5b806306fdde03146100b9578063095ea7b3146100d757806318160ddd146100fa57806323b872dd1461010c578063313ce5671461011f5780633950935114610134575b600080fd5b6100c16101c6565b6040516100ce91906107eb565b60405180910390f35b6100ea6100e536600461085c565b610258565b60405190151581526020016100ce565b6002545b6040519081526020016100ce565b6100ea61011a366004610886565b610270565b60055460405160ff90911681526020016100ce565b6100ea61014236600461085c565b610294565b6100fe6101553660046108c2565b6001600160a01b031660009081526020819052604090205490565b6100c16102b6565b6100ea61018636600461085c565b6102c5565b6100ea61019936600461085c565b610345565b6100fe6101ac3660046108e4565b610353565b6101c46101bf366004610963565b61037e565b005b6060600380546101d5906109cf565b80601f0160208091040260200160405190810160405280929190818152602001828054610201906109cf565b801561024e5780601f106102235761010080835404028352916020019161024e565b820191906000526020600020905b81548152906001019060200180831161023157829003601f168201915b5050505050905090565b6000336102668185856103ea565b5060019392505050565b60003361027e85828561050e565b610289858585610588565b506001949350505050565b6000336102668185856102a78383610353565b6102b19190610a20565b6103ea565b6060600480546101d5906109cf565b600033816102d38286610353565b9050838110156103385760405162461bcd60e51b815260206004820152602560248201527f45524332303a2064656372656173656420616c6c6f77616e63652062656c6f77604482015264207a65726f60d81b60648201526084015b60405180910390fd5b61028982868684036103ea565b600033610266818585610588565b6001600160a01b03918216600090815260016020908152604080832093909416825291909152205490565b60005b838110156103e3576103d185858381811061039e5761039e610a38565b90506020020160208101906103b391906108c2565b8484848181106103c5576103c5610a38565b9050602002013561072c565b806103db81610a4e565b915050610381565b5050505050565b6001600160a01b03831661044c5760405162461bcd60e51b8152602060048201526024808201527f45524332303a20617070726f76652066726f6d20746865207a65726f206164646044820152637265737360e01b606482015260840161032f565b6001600160a01b0382166104ad5760405162461bcd60e51b815260206004820152602260248201527f45524332303a20617070726f766520746f20746865207a65726f206164647265604482015261737360f01b606482015260840161032f565b6001600160a01b0383811660008181526001602090815260408083209487168084529482529182902085905590518481527f8c5be1e5ebec7d5bd14f71427d1e84f3dd0314c0f7b2291e5b200ac8c7c3b925910160405180910390a3505050565b600061051a8484610353565b9050600019811461058257818110156105755760405162461bcd60e51b815260206004820152601d60248201527f45524332303a20696e73756666696369656e7420616c6c6f77616e6365000000604482015260640161032f565b61058284848484036103ea565b50505050565b6001600160a01b0383166105ec5760405162461bcd60e51b815260206004820152602560248201527f45524332303a207472616e736665722066726f6d20746865207a65726f206164604482015264647265737360d81b606482015260840161032f565b6001600160a01b03821661064e5760405162461bcd60e51b815260206004820152602360248201527f45524332303a207472616e7366657220746f20746865207a65726f206164647260448201526265737360e81b606482015260840161032f565b6001600160a01b038316600090815260208190526040902054818110156106c65760405162461bcd60e51b815260206004820152602660248201527f45524332303a207472616e7366657220616d6f756e7420657863656564732062604482015265616c616e636560d01b606482015260840161032f565b6001600160a01b03848116600081815260208181526040808320878703905593871680835291849020805487019055925185815290927fddf252ad1be2c89b69c2b068fc378daa952ba7f163c4a11628f55a4df523b3ef910160405180910390a3610582565b6001600160a01b0382166107825760405162461bcd60e51b815260206004820152601f60248201527f45524332303a206d696e7420746f20746865207a65726f206164647265737300604482015260640161032f565b80600260008282546107949190610a20565b90915550506001600160a01b038216600081815260208181526040808320805486019055518481527fddf252ad1be2c89b69c2b068fc378daa952ba7f163c4a11628f55a4df523b3ef910160405180910390a35050565b600060208083528351808285015260005b81811015610818578581018301518582016040015282016107fc565b8181111561082a576000604083870101525b50601f01601f1916929092016040019392505050565b80356001600160a01b038116811461085757600080fd5b919050565b6000806040838503121561086f57600080fd5b61087883610840565b946020939093013593505050565b60008060006060848603121561089b57600080fd5b6108a484610840565b92506108b260208501610840565b9150604084013590509250925092565b6000602082840312156108d457600080fd5b6108dd82610840565b9392505050565b600080604083850312156108f757600080fd5b61090083610840565b915061090e60208401610840565b90509250929050565b60008083601f84011261092957600080fd5b50813567ffffffffffffffff81111561094157600080fd5b6020830191508360208260051b850101111561095c57600080fd5b9250929050565b6000806000806040858703121561097957600080fd5b843567ffffffffffffffff8082111561099157600080fd5b61099d88838901610917565b909650945060208701359150808211156109b657600080fd5b506109c387828801610917565b95989497509550505050565b600181811c908216806109e357607f821691505b60208210811415610a0457634e487b7160e01b600052602260045260246000fd5b50919050565b634e487b7160e01b600052601160045260246000fd5b60008219821115610a3357610a33610a0a565b500190565b634e487b7160e01b600052603260045260246000fd5b6000600019821415610a6257610a62610a0a565b506001019056fea2646970667358221220aff05c1d9ab52499c2647185d9364e2d9ab4453a9025e3a2ce1aeeca4c76f67364736f6c63430008090033","linkReferences":{}},"methodIdentifiers":{"allowance(address,address)":"dd62ed3e","approve(address,uint256)":"095ea7b3","balanceOf(address)":"70a08231","decimals()":"313ce567","decreaseAllowance(address,uint256)":"a457c2d7","increaseAllowance(address,uint256)":"39509351","mint(address[],uint256[])":"e467f7e0","name()":"06fdde03","symbol()":"95d89b41","totalSupply()":"18160ddd","transfer(address,uint256)":"a9059cbb","transferFrom(address,address,uint256)":"23b872dd"},"id":39}