{"abi":[{"type":"constructor","inputs":[{"name":"_description","type":"string","internalType":"string"}],"stateMutability":"nonpayable"},{"type":"function","name":"description","inputs":[],"outputs":[{"name":"","type":"string","internalType":"string"}],"stateMutability":"view"},{"type":"function","name":"getAssetPrice","inputs":[],"outputs":[{"name":"","type":"uint256","internalType":"uint256"}],"stateMutability":"view"},{"type":"function","name":"getMarkPrice","inputs":[],"outputs":[{"name":"","type":"uint256","internalType":"uint256"}],"stateMutability":"view"},{"type":"function","name":"owner","inputs":[],"outputs":[{"name":"","type":"address","internalType":"address"}],"stateMutability":"view"},{"type":"function","name":"price","inputs":[],"outputs":[{"name":"","type":"uint256","internalType":"uint256"}],"stateMutability":"view"},{"type":"function","name":"renounceOwnership","inputs":[],"outputs":[],"stateMutability":"nonpayable"},{"type":"function","name":"roundId","inputs":[],"outputs":[{"name":"","type":"uint256","internalType":"uint256"}],"stateMutability":"view"},{"type":"function","name":"setMarkPrice","inputs":[{"name":"newPrice","type":"uint256","internalType":"uint256"}],"outputs":[],"stateMutability":"nonpayable"},{"type":"function","name":"transferOwnership","inputs":[{"name":"newOwner","type":"address","internalType":"address"}],"outputs":[],"stateMutability":"nonpayable"},{"type":"function","name":"turnOffOracle","inputs":[],"outputs":[],"stateMutability":"nonpayable"},{"type":"function","name":"turnOn","inputs":[],"outputs":[{"name":"","type":"bool","internalType":"bool"}],"stateMutability":"view"},{"type":"function","name":"turnOnOracle","inputs":[],"outputs":[],"stateMutability":"nonpayable"},{"type":"event","name":"AnswerUpdated","inputs":[{"name":"current","type":"int256","indexed":true,"internalType":"int256"},{"name":"roundId","type":"uint256","indexed":true,"internalType":"uint256"},{"name":"updatedAt","type":"uint256","indexed":false,"internalType":"uint256"}],"anonymous":false},{"type":"event","name":"OwnershipTransferred","inputs":[{"name":"previousOwner","type":"address","indexed":true,"internalType":"address"},{"name":"newOwner","type":"address","indexed":true,"internalType":"address"}],"anonymous":false}],"bytecode":{"object":"0x608060405234801561001057600080fd5b5060405161083838038061083883398101604081905261002f91610151565b61003833610052565b805161004b9060039060208401906100a2565b505061025b565b600080546001600160a01b038381166001600160a01b0319831681178455604051919092169283917f8be0079c531659141344cd1fd0a4f28419497f9722a3daafe3b4186f6b6457e09190a35050565b8280546100ae90610220565b90600052602060002090601f0160209004810192826100d05760008555610116565b82601f106100e957805160ff1916838001178555610116565b82800160010185558215610116579182015b828111156101165782518255916020019190600101906100fb565b50610122929150610126565b5090565b5b808211156101225760008155600101610127565b634e487b7160e01b600052604160045260246000fd5b6000602080838503121561016457600080fd5b82516001600160401b038082111561017b57600080fd5b818501915085601f83011261018f57600080fd5b8151818111156101a1576101a161013b565b604051601f8201601f19908116603f011681019083821181831017156101c9576101c961013b565b8160405282815288868487010111156101e157600080fd5b600093505b8284101561020357848401860151818501870152928501926101e6565b828411156102145760008684830101525b98975050505050505050565b600181811c9082168061023457607f821691505b6020821081141561025557634e487b7160e01b600052602260045260246000fd5b50919050565b6105ce8061026a6000396000f3fe608060405234801561001057600080fd5b50600436106100b45760003560e01c80638da5cb5b116100715780638da5cb5b14610117578063a035b1fe14610132578063ba33ed7d1461013b578063c12e67b114610158578063e54f0880146100d6578063f2fde38b1461016057600080fd5b80630faf2e58146100b957806347cb3167146100c357806360409632146100d6578063715018a6146100f15780637284e416146100f95780638cd221c91461010e575b600080fd5b6100c1610173565b005b6100c16100d1366004610499565b61018a565b6100de6101f1565b6040519081526020015b60405180910390f35b6100c1610252565b610101610266565b6040516100e891906104b2565b6100de60025481565b6000546040516001600160a01b0390911681526020016100e8565b6100de60015481565b6004546101489060ff1681565b60405190151581526020016100e8565b6100c16102f4565b6100c161016e366004610507565b610308565b61017b610381565b6004805460ff19166001179055565b610192610381565b60018190556002546101a3826103db565b6040514281527f0559884fd3a460db3073b7fc896cc77986f16e378210ded43186175bf646fc5f9060200160405180910390a36001600260008282546101e99190610537565b909155505050565b60045460009060ff1661024b5760405162461bcd60e51b815260206004820152601d60248201527f74686520656d657267656e6379206f7261636c6520697320636c6f736500000060448201526064015b60405180910390fd5b5060015490565b61025a610381565b6102646000610449565b565b600380546102739061055d565b80601f016020809104026020016040519081016040528092919081815260200182805461029f9061055d565b80156102ec5780601f106102c1576101008083540402835291602001916102ec565b820191906000526020600020905b8154815290600101906020018083116102cf57829003601f168201915b505050505081565b6102fc610381565b6004805460ff19169055565b610310610381565b6001600160a01b0381166103755760405162461bcd60e51b815260206004820152602660248201527f4f776e61626c653a206e6577206f776e657220697320746865207a65726f206160448201526564647265737360d01b6064820152608401610242565b61037e81610449565b50565b6000546001600160a01b031633146102645760405162461bcd60e51b815260206004820181905260248201527f4f776e61626c653a2063616c6c6572206973206e6f7420746865206f776e65726044820152606401610242565b60006001600160ff1b038211156104455760405162461bcd60e51b815260206004820152602860248201527f53616665436173743a2076616c756520646f65736e27742066697420696e2061604482015267371034b73a191a9b60c11b6064820152608401610242565b5090565b600080546001600160a01b038381166001600160a01b0319831681178455604051919092169283917f8be0079c531659141344cd1fd0a4f28419497f9722a3daafe3b4186f6b6457e09190a35050565b6000602082840312156104ab57600080fd5b5035919050565b600060208083528351808285015260005b818110156104df578581018301518582016040015282016104c3565b818111156104f1576000604083870101525b50601f01601f1916929092016040019392505050565b60006020828403121561051957600080fd5b81356001600160a01b038116811461053057600080fd5b9392505050565b6000821982111561055857634e487b7160e01b600052601160045260246000fd5b500190565b600181811c9082168061057157607f821691505b6020821081141561059257634e487b7160e01b600052602260045260246000fd5b5091905056fea26469706673582212203e8e3125ae2b03647d7bb1b4122ba4a717a34f0d41ced9235309775945fc14af64736f6c63430008090033","linkReferences":{}},"methodIdentifiers":{"description()":"7284e416","getAssetPrice()":"e54f0880","getMarkPrice()":"60409632","owner()":"8da5cb5b","price()":"a035b1fe","renounceOwnership()":"715018a6","roundId()":"8cd221c9","setMarkPrice(uint256)":"47cb3167","transferOwnership(address)":"f2fde38b","turnOffOracle()":"c12e67b1","turnOn()":"ba33ed7d","turnOnOracle()":"0faf2e58"},"id":73}