{"abi":[{"type":"constructor","inputs":[{"name":"_dealer","type":"address","internalType":"address"},{"name":"_speedMultiplier","type":"uint8","internalType":"uint8"}],"stateMutability":"nonpayable"},{"type":"function","name":"fundingRateUpdateTimestamp","inputs":[{"name":"","type":"address","internalType":"address"}],"outputs":[{"name":"","type":"uint256","internalType":"uint256"}],"stateMutability":"view"},{"type":"function","name":"getMaxChange","inputs":[{"name":"perp","type":"address","internalType":"address"}],"outputs":[{"name":"","type":"uint256","internalType":"uint256"}],"stateMutability":"view"},{"type":"function","name":"owner","inputs":[],"outputs":[{"name":"","type":"address","internalType":"address"}],"stateMutability":"view"},{"type":"function","name":"renounceOwnership","inputs":[],"outputs":[],"stateMutability":"nonpayable"},{"type":"function","name":"transferOwnership","inputs":[{"name":"newOwner","type":"address","internalType":"address"}],"outputs":[],"stateMutability":"nonpayable"},{"type":"function","name":"updateFundingRate","inputs":[{"name":"perpList","type":"address[]","internalType":"address[]"},{"name":"rateList","type":"int256[]","internalType":"int256[]"}],"outputs":[],"stateMutability":"nonpayable"},{"type":"event","name":"OwnershipTransferred","inputs":[{"name":"previousOwner","type":"address","indexed":true,"internalType":"address"},{"name":"newOwner","type":"address","indexed":true,"internalType":"address"}],"anonymous":false}],"bytecode":{"object":"0x60c060405234801561001057600080fd5b50604051610bf7380380610bf783398101604081905261002f916100a1565b61003833610051565b6001600160a01b0390911660805260ff1660a0526100ed565b600080546001600160a01b038381166001600160a01b0319831681178455604051919092169283917f8be0079c531659141344cd1fd0a4f28419497f9722a3daafe3b4186f6b6457e09190a35050565b600080604083850312156100b457600080fd5b82516001600160a01b03811681146100cb57600080fd5b602084015190925060ff811681146100e257600080fd5b809150509250929050565b60805160a051610ade610119600039600061044e01526000818161028901526103200152610ade6000f3fe608060405234801561001057600080fd5b50600436106100625760003560e01c8063715018a614610067578063854a8041146100715780638ca2bbd2146100845780638da5cb5b146100aa578063e66e1ab1146100c5578063f2fde38b146100e5575b600080fd5b61006f6100f8565b005b61006f61007f36600461064a565b61010c565b6100976100923660046106cb565b6102fc565b6040519081526020015b60405180910390f35b6000546040516001600160a01b0390911681526020016100a1565b6100976100d33660046106cb565b60016020526000908152604090205481565b61006f6100f33660046106cb565b6104ba565b610100610533565b61010a600061058d565b565b610114610533565b60005b83811015610271576000858583818110610133576101336106ef565b905060200201602081019061014891906106cb565b90506000816001600160a01b03166395196f7e6040518163ffffffff1660e01b815260040160206040518083038186803b15801561018557600080fd5b505afa158015610199573d6000803e3d6000fd5b505050506040513d601f19601f820116820180604052508101906101bd9190610705565b905060006101ca836102fc565b9050806101f9838888888181106101e3576101e36106ef565b905060200201356101f49190610734565b6105dd565b111561024c5760405162461bcd60e51b815260206004820152601c60248201527f46554e44494e475f524154455f4348414e47455f544f4f5f4d5543480000000060448201526064015b60405180910390fd5b50506001600160a01b0316600090815260016020819052604090912042905501610117565b5060405163854a804160e01b81526001600160a01b037f0000000000000000000000000000000000000000000000000000000000000000169063854a8041906102c4908790879087908790600401610773565b600060405180830381600087803b1580156102de57600080fd5b505af11580156102f2573d6000803e3d6000fd5b5050505050505050565b604051634f33cb5360e01b81526001600160a01b03828116600483015260009182917f00000000000000000000000000000000000000000000000000000000000000001690634f33cb539060240160006040518083038186803b15801561036257600080fd5b505afa158015610376573d6000803e3d6000fd5b505050506040513d6000823e601f3d908101601f1916820160405261039e9190810190610914565b9050600081608001516001600160a01b031663604096326040518163ffffffff1660e01b815260040160206040518083038186803b1580156103df57600080fd5b505afa1580156103f3573d6000803e3d6000fd5b505050506040513d601f19601f820116820180604052508101906104179190610705565b6001600160a01b0385166000908152600160205260408120549192509061043e90426109cb565b90506000620151808460200151837f000000000000000000000000000000000000000000000000000000000000000060ff1661047a91906109e2565b61048491906109e2565b61048e9190610a01565b90506000670de0b6b3a76400006104a585846109e2565b6104af9190610a01565b979650505050505050565b6104c2610533565b6001600160a01b0381166105275760405162461bcd60e51b815260206004820152602660248201527f4f776e61626c653a206e6577206f776e657220697320746865207a65726f206160448201526564647265737360d01b6064820152608401610243565b6105308161058d565b50565b6000546001600160a01b0316331461010a5760405162461bcd60e51b815260206004820181905260248201527f4f776e61626c653a2063616c6c6572206973206e6f7420746865206f776e65726044820152606401610243565b600080546001600160a01b038381166001600160a01b0319831681178455604051919092169283917f8be0079c531659141344cd1fd0a4f28419497f9722a3daafe3b4186f6b6457e09190a35050565b60008082126105ec57816105f8565b6105f882600019610a23565b92915050565b60008083601f84011261061057600080fd5b50813567ffffffffffffffff81111561062857600080fd5b6020830191508360208260051b850101111561064357600080fd5b9250929050565b6000806000806040858703121561066057600080fd5b843567ffffffffffffffff8082111561067857600080fd5b610684888389016105fe565b9096509450602087013591508082111561069d57600080fd5b506106aa878288016105fe565b95989497509550505050565b6001600160a01b038116811461053057600080fd5b6000602082840312156106dd57600080fd5b81356106e8816106b6565b9392505050565b634e487b7160e01b600052603260045260246000fd5b60006020828403121561071757600080fd5b5051919050565b634e487b7160e01b600052601160045260246000fd5b60008083128015600160ff1b8501841216156107525761075261071e565b6001600160ff1b038401831381161561076d5761076d61071e565b50500390565b6040808252810184905260008560608301825b878110156107b6578235610799816106b6565b6001600160a01b0316825260209283019290910190600101610786565b5083810360208581019190915285825291508590820160005b868110156107eb578235825291830191908301906001016107cf565b5098975050505050505050565b634e487b7160e01b600052604160045260246000fd5b60405160e0810167ffffffffffffffff81118282101715610831576108316107f8565b60405290565b604051601f8201601f1916810167ffffffffffffffff81118282101715610860576108606107f8565b604052919050565b8051610873816106b6565b919050565b600082601f83011261088957600080fd5b815167ffffffffffffffff8111156108a3576108a36107f8565b60206108b7601f8301601f19168201610837565b82815285828487010111156108cb57600080fd5b60005b838110156108e95785810183015182820184015282016108ce565b838111156108fa5760008385840101525b5095945050505050565b8051801515811461087357600080fd5b60006020828403121561092657600080fd5b815167ffffffffffffffff8082111561093e57600080fd5b9083019060e0828603121561095257600080fd5b61095a61080e565b8251815260208301516020820152604083015160408201526060830151606082015261098860808401610868565b608082015260a08301518281111561099f57600080fd5b6109ab87828601610878565b60a0830152506109bd60c08401610904565b60c082015295945050505050565b6000828210156109dd576109dd61071e565b500390565b60008160001904831182151516156109fc576109fc61071e565b500290565b600082610a1e57634e487b7160e01b600052601260045260246000fd5b500490565b60006001600160ff1b0381841382841380821686840486111615610a4957610a4961071e565b600160ff1b6000871282811687830589121615610a6857610a6861071e565b60008712925087820587128484161615610a8457610a8461071e565b87850587128184161615610a9a57610a9a61071e565b50505092909302939250505056fea264697066735822122012ccf0719f423a58525a4b34087db5d066df8cb70fc28c047b25df41810e7ebb64736f6c63430008090033","linkReferences":{}},"methodIdentifiers":{"fundingRateUpdateTimestamp(address)":"e66e1ab1","getMaxChange(address)":"8ca2bbd2","owner()":"8da5cb5b","renounceOwnership()":"715018a6","transferOwnership(address)":"f2fde38b","updateFundingRate(address[],int256[])":"854a8041"},"id":49}