{"abi":[{"type":"constructor","inputs":[{"name":"_dealer","type":"address","internalType":"address"},{"name":"_operator","type":"address","internalType":"address"}],"stateMutability":"nonpayable"},{"type":"function","name":"getBotSubaccount","inputs":[{"name":"master","type":"address","internalType":"address"},{"name":"index","type":"uint256","internalType":"uint256"}],"outputs":[{"name":"","type":"address","internalType":"address"}],"stateMutability":"view"},{"type":"function","name":"getBotSubaccounts","inputs":[{"name":"master","type":"address","internalType":"address"}],"outputs":[{"name":"","type":"address[]","internalType":"address[]"}],"stateMutability":"view"},{"type":"function","name":"newSubaccount","inputs":[{"name":"owner","type":"address","internalType":"address"},{"name":"operator","type":"address","internalType":"address"}],"outputs":[{"name":"subaccount","type":"address","internalType":"address"}],"stateMutability":"nonpayable"},{"type":"event","name":"NewBotSubaccount","inputs":[{"name":"master","type":"address","indexed":true,"internalType":"address"},{"name":"operator","type":"address","indexed":true,"internalType":"address"},{"name":"subaccountIndex","type":"uint256","indexed":false,"internalType":"uint256"},{"name":"subaccountAddress","type":"address","indexed":false,"internalType":"address"}],"anonymous":false}],"bytecode":{"object":"0x60e060405234801561001057600080fd5b50604051610d7c380380610d7c83398101604081905261002f9161010b565b60405161003b906100e2565b604051809103906000f080158015610057573d6000803e3d6000fd5b506001600160a01b03908116608081905283821660a081905291831660c08190526040516306552ff360e01b81523060048201819052602482015260448101939093526064830152906306552ff390608401600060405180830381600087803b1580156100c357600080fd5b505af11580156100d7573d6000803e3d6000fd5b50505050505061013e565b6107458061063783390190565b80516001600160a01b038116811461010657600080fd5b919050565b6000806040838503121561011e57600080fd5b610127836100ef565b9150610135602084016100ef565b90509250929050565b60805160a05160c0516104cc61016b60003960006101230152600060fb0152600060b001526104cc6000f3fe608060405234801561001057600080fd5b50600436106100415760003560e01c8063826090fd14610046578063d627378114610076578063e85684e314610096575b600080fd5b61005961005436600461038f565b6100a9565b6040516001600160a01b0390911681526020015b60405180910390f35b6100896100843660046103c2565b610220565b60405161006d91906103e4565b6100596100a4366004610431565b610294565b60006100d47f00000000000000000000000000000000000000000000000000000000000000006102da565b6040516306552ff360e01b81526001600160a01b03858116600483015284811660248301527f0000000000000000000000000000000000000000000000000000000000000000811660448301527f000000000000000000000000000000000000000000000000000000000000000081166064830152919250908216906306552ff390608401600060405180830381600087803b15801561017357600080fd5b505af1158015610187573d6000803e3d6000fd5b505050506001600160a01b0383811660008181526020818152604082208054600180820183558285529284200180546001600160a01b031916878716179055918390529054928516927f47a8f867a6ec7e599cd21ed828beb2a28c11e286b5c777b91d36f553d7b906bf916101fb9161045b565b604080519182526001600160a01b03861660208301520160405180910390a392915050565b6001600160a01b0381166000908152602081815260409182902080548351818402810184019094528084526060939283018282801561028857602002820191906000526020600020905b81546001600160a01b0316815260019091019060200180831161026a575b50505050509050919050565b6001600160a01b03821660009081526020819052604081208054839081106102be576102be610480565b6000918252602090912001546001600160a01b03169392505050565b6000763d602d80600a3d3981f3363d3d373d3d3d363d730000008260601b60e81c176000526e5af43d82803e903d91602b57fd5bf38260781b17602052603760096000f090506001600160a01b0381166103735760405162461bcd60e51b8152602060048201526016602482015275115490cc4c4d8dce8818dc99585d194819985a5b195960521b604482015260640160405180910390fd5b919050565b80356001600160a01b038116811461037357600080fd5b600080604083850312156103a257600080fd5b6103ab83610378565b91506103b960208401610378565b90509250929050565b6000602082840312156103d457600080fd5b6103dd82610378565b9392505050565b6020808252825182820181905260009190848201906040850190845b818110156104255783516001600160a01b031683529284019291840191600101610400565b50909695505050505050565b6000806040838503121561044457600080fd5b61044d83610378565b946020939093013593505050565b60008282101561047b57634e487b7160e01b600052601160045260246000fd5b500390565b634e487b7160e01b600052603260045260246000fdfea26469706673582212201e9715cf477452105419d5008d9fcefc5746a1908eadb7ba488c4d9367ce6d0664736f6c63430008090033608060405234801561001057600080fd5b50610725806100206000396000f3fe608060405234801561001057600080fd5b506004361061007d5760003560e01c806390599e201161005b57806390599e20146100eb5780639de2ee21146100fe578063d9a5267014610111578063de47e1501461012457600080fd5b806306552ff314610082578063158ef93e146100975780638da5cb5b146100c0575b600080fd5b610095610090366004610560565b610137565b005b6000546100ab90600160a01b900460ff1681565b60405190151581526020015b60405180910390f35b6000546100d3906001600160a01b031681565b6040516001600160a01b0390911681526020016100b7565b6100956100f93660046105c4565b6102ed565b6002546100d3906001600160a01b031681565b61009561011f3660046105ff565b6103c8565b610095610132366004610621565b610477565b600054600160a01b900460ff161561018c5760405162461bcd60e51b815260206004820152601360248201527210531491505116481253925512505312569151606a1b60448201526064015b60405180910390fd5b600080546001600160a01b038681166001600160a81b031990921691909117600160a01b17909155600280548483166001600160a01b0319918216811790925560018054938516939091168317815560405163558a729760e01b8152600481019390935260248301529063558a729790604401600060405180830381600087803b15801561021957600080fd5b505af115801561022d573d6000803e3d6000fd5b505050506001600160a01b0383163b156102805760405162461bcd60e51b81526020600482015260146024820152736f70657261746f72206d75737420626520656f6160601b6044820152606401610183565b60025460405163558a729760e01b81526001600160a01b038581166004830152600160248301529091169063558a7297906044015b600060405180830381600087803b1580156102cf57600080fd5b505af11580156102e3573d6000803e3d6000fd5b5050505050505050565b6001546001600160a01b031633148061031057506000546001600160a01b031633145b61032c5760405162461bcd60e51b815260040161018390610654565b6001546001600160a01b031633141561036c576000546001600160a01b0385811691161461036c5760405162461bcd60e51b8152600401610183906106a6565b600254604051633688ad1b60e21b81523060048201526001600160a01b0386811660248301526044820186905260648201859052831515608483015260c060a4830152600060c48301529091169063da22b46c9060e4016102b5565b6001546001600160a01b03163314806103eb57506000546001600160a01b031633145b6104075760405162461bcd60e51b815260040161018390610654565b600254604051631d15fca760e11b815230600482015260248101849052604481018390526001600160a01b0390911690633a2bf94e906064015b600060405180830381600087803b15801561045b57600080fd5b505af115801561046f573d6000803e3d6000fd5b505050505050565b6001546001600160a01b031633148061049a57506000546001600160a01b031633145b6104b65760405162461bcd60e51b815260040161018390610654565b6001546001600160a01b03163314156104f6576000546001600160a01b038381169116146104f65760405162461bcd60e51b8152600401610183906106a6565b600254604051630bd26dd560e11b81523060048201526001600160a01b03848116602483015283151560448301526080606483015260006084830152909116906317a4dbaa9060a401610441565b80356001600160a01b038116811461055b57600080fd5b919050565b6000806000806080858703121561057657600080fd5b61057f85610544565b935061058d60208601610544565b925061059b60408601610544565b91506105a960608601610544565b905092959194509250565b8035801515811461055b57600080fd5b600080600080608085870312156105da57600080fd5b6105e385610544565b935060208501359250604085013591506105a9606086016105b4565b6000806040838503121561061257600080fd5b50508035926020909101359150565b6000806040838503121561063457600080fd5b61063d83610544565b915061064b602084016105b4565b90509250929050565b60208082526032908201527f4f776e61626c653a2063616c6c6572206973206e6f742074686520676c6f62616040820152713627b832b930ba37b91037b91037bbb732b960711b606082015260800190565b60208082526029908201527f676c6f62616c4f70657261746f72206f6e6c792063616e207472616e73666572604082015268103a379037bbb732b960b91b60608201526080019056fea2646970667358221220d351b8d5ef328c4f8bdd2f5b226e65ca9676c97df8f586eb5cf09d14da2e8baa64736f6c63430008090033","linkReferences":{}},"methodIdentifiers":{"getBotSubaccount(address,uint256)":"e85684e3","getBotSubaccounts(address)":"d6273781","newSubaccount(address,address)":"826090fd"},"id":27}