{"abi":[{"type":"function","name":"dealer","inputs":[],"outputs":[{"name":"","type":"address","internalType":"address"}],"stateMutability":"view"},{"type":"function","name":"executeWithdrawPrimaryAsset","inputs":[{"name":"to","type":"address","internalType":"address"},{"name":"toInternal","type":"bool","internalType":"bool"}],"outputs":[],"stateMutability":"nonpayable"},{"type":"function","name":"executeWithdrawSecondaryAsset","inputs":[],"outputs":[],"stateMutability":"nonpayable"},{"type":"function","name":"fastWithdrawPrimaryAsset","inputs":[{"name":"withdrawAmount","type":"uint256","internalType":"uint256"},{"name":"to","type":"address","internalType":"address"},{"name":"toInternal","type":"bool","internalType":"bool"}],"outputs":[],"stateMutability":"nonpayable"},{"type":"function","name":"fastWithdrawSecondaryAsset","inputs":[{"name":"to","type":"address","internalType":"address"},{"name":"secondaryAmount","type":"uint256","internalType":"uint256"}],"outputs":[],"stateMutability":"nonpayable"},{"type":"function","name":"getMaxWithdrawAmount","inputs":[{"name":"trader","type":"address","internalType":"address"}],"outputs":[{"name":"","type":"uint256","internalType":"uint256"},{"name":"","type":"uint256","internalType":"uint256"}],"stateMutability":"view"},{"type":"function","name":"init","inputs":[{"name":"_owner","type":"address","internalType":"address"},{"name":"_dealer","type":"address","internalType":"address"},{"name":"_operator","type":"address","internalType":"address"}],"outputs":[],"stateMutability":"nonpayable"},{"type":"function","name":"initialized","inputs":[],"outputs":[{"name":"","type":"bool","internalType":"bool"}],"stateMutability":"view"},{"type":"function","name":"owner","inputs":[],"outputs":[{"name":"","type":"address","internalType":"address"}],"stateMutability":"view"},{"type":"function","name":"requestWithdrawPrimaryAsset","inputs":[{"name":"withdrawAmount","type":"uint256","internalType":"uint256"}],"outputs":[],"stateMutability":"nonpayable"},{"type":"function","name":"requestWithdrawSecondaryAsset","inputs":[{"name":"secondaryAmount","type":"uint256","internalType":"uint256"}],"outputs":[],"stateMutability":"nonpayable"},{"type":"function","name":"setOperator","inputs":[{"name":"operator","type":"address","internalType":"address"},{"name":"isValid","type":"bool","internalType":"bool"}],"outputs":[],"stateMutability":"nonpayable"}],"bytecode":{"object":"0x608060405234801561001057600080fd5b50611466806100206000396000f3fe608060405234801561001057600080fd5b50600436106100b35760003560e01c8063354e7fa411610071578063354e7fa4146101575780633f4cfffc1461015f578063558a7297146101725780635b684907146101855780638da5cb5b146101985780639de2ee21146101c357600080fd5b8062e38066146100b85780630bbc3ff4146100cd578063158ef93e146100e0578063184b9559146101095780631e1f42d31461011c57806321ff22d61461012f575b600080fd5b6100cb6100c6366004610d63565b6101d6565b005b6100cb6100db366004610d94565b610277565b6002546100f490600160a01b900460ff1681565b60405190151581526020015b60405180910390f35b6100cb610117366004610dc0565b610310565b6100cb61012a366004610e19565b610475565b61014261013d366004610e52565b610551565b60408051928352602083019190915201610100565b6100cb6109b2565b6100cb61016d366004610d63565b610a5a565b6100cb610180366004610e19565b610af0565b6100cb610193366004610e6f565b610bcb565b6000546101ab906001600160a01b031681565b6040516001600160a01b039091168152602001610100565b6001546101ab906001600160a01b031681565b6002546001600160a01b031633146102095760405162461bcd60e51b815260040161020090610ea6565b60405180910390fd5b600154604051631d15fca760e11b815230600482015260006024820152604481018390526001600160a01b0390911690633a2bf94e90606401600060405180830381600087803b15801561025c57600080fd5b505af1158015610270573d6000803e3d6000fd5b5050505050565b6002546001600160a01b031633146102a15760405162461bcd60e51b815260040161020090610ea6565b600154604051633688ad1b60e21b81526001600160a01b039091169063da22b46c906102da903090869060009087908290600401610eef565b600060405180830381600087803b1580156102f457600080fd5b505af1158015610308573d6000803e3d6000fd5b505050505050565b600254600160a01b900460ff16156103605760405162461bcd60e51b815260206004820152601360248201527210531491505116481253925512505312569151606a1b6044820152606401610200565b60028054600080546001600160a01b038781166001600160a01b031992831617909255600180548784169216821781558583166001600160a81b031990941693909317600160a01b179384905560405163558a729760e01b815293909116600484015260248301919091529063558a729790604401600060405180830381600087803b1580156103ef57600080fd5b505af1158015610403573d6000803e3d6000fd5b50506001805460005460405163558a729760e01b81526001600160a01b039182166004820152602481019390935216925063558a72979150604401600060405180830381600087803b15801561045857600080fd5b505af115801561046c573d6000803e3d6000fd5b50505050505050565b6000546001600160a01b0316331461049f5760405162461bcd60e51b815260040161020090610f2f565b6000806104ab30610551565b91509150818111156104cf5760405162461bcd60e51b815260040161020090610f64565b600154604051630bd26dd560e11b81523060048201526001600160a01b03868116602483015285151560448301526080606483015260006084830152909116906317a4dbaa9060a4015b600060405180830381600087803b15801561053357600080fd5b505af1158015610547573d6000803e3d6000fd5b5050505050505050565b60015460405163325eacc360e21b81523060048201526000918291829182916001600160a01b039091169063c97ab30c9060240160a06040518083038186803b15801561059d57600080fd5b505afa1580156105b1573d6000803e3d6000fd5b505050506040513d601f19601f820116820180604052508101906105d59190610f9b565b5050600154604051631f75a98760e11b81526001600160a01b038a811660048301529496509194506000938493508392911690633eeb530e9060240160006040518083038186803b15801561062957600080fd5b505afa15801561063d573d6000803e3d6000fd5b505050506040513d6000823e601f3d908101601f19168201604052610665919081019061105b565b905060005b81518110156108c4576000808383815181106106885761068861110d565b60209081029190910101516040516370a0823160e01b81526001600160a01b038d81166004830152909116906370a0823190602401604080518083038186803b1580156106d457600080fd5b505afa1580156106e8573d6000803e3d6000fd5b505050506040513d601f19601f8201168201806040525081019061070c9190611123565b915091506000600160009054906101000a90046001600160a01b03166001600160a01b0316634f33cb538686815181106107485761074861110d565b60200260200101516040518263ffffffff1660e01b815260040161077b91906001600160a01b0391909116815260200190565b60006040518083038186803b15801561079357600080fd5b505afa1580156107a7573d6000803e3d6000fd5b505050506040513d6000823e601f3d908101601f191682016040526107cf91908101906111de565b9050600061085082608001516001600160a01b031663604096326040518163ffffffff1660e01b815260040160206040518083038186803b15801561081357600080fd5b505afa158015610827573d6000803e3d6000fd5b505050506040513d601f19601f8201168201806040525081019061084b9190611295565b610c5c565b9050670de0b6b3a764000061086d6108688684610cca565b610cf0565b61087e90662386f26fc100006112c4565b61088891906112f9565b610892908961130d565b97508261089f8583610cca565b6108a99190611325565b6108b39088611325565b96508460010194505050505061066a565b5060006108d18684611325565b9050600081136109235760405162461bcd60e51b815260206004820152601760248201527f6e657456616c7565206973206c657373207468616e20300000000000000000006044820152606401610200565b8361092d82610d11565b101561098c5760405162461bcd60e51b815260206004820152602860248201527f6e657456616c7565206973206c657373207468616e206d61696e74656e616e63604482015267329036b0b933b4b760c11b6064820152608401610200565b60008461099883610d11565b6109a29190611366565b9a95995094975050505050505050565b6002546001600160a01b031633146109dc5760405162461bcd60e51b815260040161020090610ea6565b600154600254604051630bd26dd560e11b81523060048201526001600160a01b0391821660248201526000604482018190526080606483015260848201529116906317a4dbaa9060a401600060405180830381600087803b158015610a4057600080fd5b505af1158015610a54573d6000803e3d6000fd5b50505050565b6000546001600160a01b03163314610a845760405162461bcd60e51b815260040161020090610f2f565b6000610a8f30610551565b50905080821115610ab25760405162461bcd60e51b815260040161020090610f64565b600154604051631d15fca760e11b815230600482015260248101849052600060448201526001600160a01b0390911690633a2bf94e906064016102da565b6000546001600160a01b03163314610b1a5760405162461bcd60e51b815260040161020090610f2f565b6002546001600160a01b0383811691161415610b9157600181151514610b915760405162461bcd60e51b815260206004820152602660248201527f63616e206e6f742075706461746520676c6f62616c4f70657261746f7220746f6044820152652066616c736560d01b6064820152608401610200565b60015460405163558a729760e01b81526001600160a01b03848116600483015283151560248301529091169063558a7297906044016102da565b6000546001600160a01b03163314610bf55760405162461bcd60e51b815260040161020090610f2f565b6000610c0030610551565b50905080841115610c235760405162461bcd60e51b815260040161020090610f64565b600154604051633688ad1b60e21b81526001600160a01b039091169063da22b46c90610519903090879089906000908990600401610eef565b60006001600160ff1b03821115610cc65760405162461bcd60e51b815260206004820152602860248201527f53616665436173743a2076616c756520646f65736e27742066697420696e2061604482015267371034b73a191a9b60c11b6064820152608401610200565b5090565b6000670de0b6b3a7640000610cdf838561137d565b610ce99190611402565b9392505050565b6000808212610cff5781610d0b565b610d0b8260001961137d565b92915050565b600080821215610cc65760405162461bcd60e51b815260206004820181905260248201527f53616665436173743a2076616c7565206d75737420626520706f7369746976656044820152606401610200565b600060208284031215610d7557600080fd5b5035919050565b6001600160a01b0381168114610d9157600080fd5b50565b60008060408385031215610da757600080fd5b8235610db281610d7c565b946020939093013593505050565b600080600060608486031215610dd557600080fd5b8335610de081610d7c565b92506020840135610df081610d7c565b91506040840135610e0081610d7c565b809150509250925092565b8015158114610d9157600080fd5b60008060408385031215610e2c57600080fd5b8235610e3781610d7c565b91506020830135610e4781610e0b565b809150509250929050565b600060208284031215610e6457600080fd5b8135610ce981610d7c565b600080600060608486031215610e8457600080fd5b833592506020840135610e9681610d7c565b91506040840135610e0081610e0b565b60208082526029908201527f4f776e61626c653a2063616c6c6572206973206e6f742074686520676c6f62616040820152683627b832b930ba37b960b91b606082015260800190565b6001600160a01b03958616815293909416602084015260408301919091526060820152901515608082015260c060a0820181905260009082015260e00190565b6020808252818101527f4f776e61626c653a2063616c6c6572206973206e6f7420746865206f776e6572604082015260600190565b6020808252601a908201527f776974686472617720616d6f756e7420697320746f6f20626967000000000000604082015260600190565b600080600080600060a08688031215610fb357600080fd5b5050835160208501516040860151606087015160809097015192989197509594509092509050565b634e487b7160e01b600052604160045260246000fd5b60405160e0810167ffffffffffffffff8111828210171561101457611014610fdb565b60405290565b604051601f8201601f1916810167ffffffffffffffff8111828210171561104357611043610fdb565b604052919050565b805161105681610d7c565b919050565b6000602080838503121561106e57600080fd5b825167ffffffffffffffff8082111561108657600080fd5b818501915085601f83011261109a57600080fd5b8151818111156110ac576110ac610fdb565b8060051b91506110bd84830161101a565b81815291830184019184810190888411156110d757600080fd5b938501935b8385101561110157845192506110f183610d7c565b82825293850193908501906110dc565b98975050505050505050565b634e487b7160e01b600052603260045260246000fd5b6000806040838503121561113657600080fd5b505080516020909101519092909150565b600082601f83011261115857600080fd5b815167ffffffffffffffff81111561117257611172610fdb565b6020611186601f8301601f1916820161101a565b828152858284870101111561119a57600080fd5b60005b838110156111b857858101830151828201840152820161119d565b838111156111c95760008385840101525b5095945050505050565b805161105681610e0b565b6000602082840312156111f057600080fd5b815167ffffffffffffffff8082111561120857600080fd5b9083019060e0828603121561121c57600080fd5b611224610ff1565b825181526020830151602082015260408301516040820152606083015160608201526112526080840161104b565b608082015260a08301518281111561126957600080fd5b61127587828601611147565b60a08301525061128760c084016111d3565b60c082015295945050505050565b6000602082840312156112a757600080fd5b5051919050565b634e487b7160e01b600052601160045260246000fd5b60008160001904831182151516156112de576112de6112ae565b500290565b634e487b7160e01b600052601260045260246000fd5b600082611308576113086112e3565b500490565b60008219821115611320576113206112ae565b500190565b600080821280156001600160ff1b0384900385131615611347576113476112ae565b600160ff1b8390038412811615611360576113606112ae565b50500190565b600082821015611378576113786112ae565b500390565b60006001600160ff1b03818413828413808216868404861116156113a3576113a36112ae565b600160ff1b60008712828116878305891216156113c2576113c26112ae565b600087129250878205871284841616156113de576113de6112ae565b878505871281841616156113f4576113f46112ae565b505050929093029392505050565b600082611411576114116112e3565b600160ff1b82146000198414161561142b5761142b6112ae565b50059056fea2646970667358221220636b0e5d739f71df7fc217885cbde13d4be05255668a1e2b1ff7b120a04c79ca64736f6c63430008090033","linkReferences":{}},"methodIdentifiers":{"dealer()":"9de2ee21","executeWithdrawPrimaryAsset(address,bool)":"1e1f42d3","executeWithdrawSecondaryAsset()":"354e7fa4","fastWithdrawPrimaryAsset(uint256,address,bool)":"5b684907","fastWithdrawSecondaryAsset(address,uint256)":"0bbc3ff4","getMaxWithdrawAmount(address)":"21ff22d6","init(address,address,address)":"184b9559","initialized()":"158ef93e","owner()":"8da5cb5b","requestWithdrawPrimaryAsset(uint256)":"3f4cfffc","requestWithdrawSecondaryAsset(uint256)":"00e38066","setOperator(address,bool)":"558a7297"},"id":77}