{"abi":[{"type":"function","name":"aggregate","inputs":[{"name":"calls","type":"tuple[]","internalType":"struct Multicall.Call[]","components":[{"name":"target","type":"address","internalType":"address"},{"name":"callData","type":"bytes","internalType":"bytes"}]}],"outputs":[{"name":"blockNumber","type":"uint256","internalType":"uint256"},{"name":"returnData","type":"bytes[]","internalType":"bytes[]"}],"stateMutability":"nonpayable"},{"type":"function","name":"blockAndAggregate","inputs":[{"name":"calls","type":"tuple[]","internalType":"struct Multicall.Call[]","components":[{"name":"target","type":"address","internalType":"address"},{"name":"callData","type":"bytes","internalType":"bytes"}]}],"outputs":[{"name":"blockNumber","type":"uint256","internalType":"uint256"},{"name":"blockHash","type":"bytes32","internalType":"bytes32"},{"name":"returnData","type":"tuple[]","internalType":"struct Multicall.Result[]","components":[{"name":"success","type":"bool","internalType":"bool"},{"name":"returnData","type":"bytes","internalType":"bytes"}]}],"stateMutability":"nonpayable"},{"type":"function","name":"getBlockHash","inputs":[{"name":"blockNumber","type":"uint256","internalType":"uint256"}],"outputs":[{"name":"blockHash","type":"bytes32","internalType":"bytes32"}],"stateMutability":"view"},{"type":"function","name":"getBlockNumber","inputs":[],"outputs":[{"name":"blockNumber","type":"uint256","internalType":"uint256"}],"stateMutability":"view"},{"type":"function","name":"getCurrentBlockCoinbase","inputs":[],"outputs":[{"name":"coinbase","type":"address","internalType":"address"}],"stateMutability":"view"},{"type":"function","name":"getCurrentBlockDifficulty","inputs":[],"outputs":[{"name":"difficulty","type":"uint256","internalType":"uint256"}],"stateMutability":"view"},{"type":"function","name":"getCurrentBlockGasLimit","inputs":[],"outputs":[{"name":"gaslimit","type":"uint256","internalType":"uint256"}],"stateMutability":"view"},{"type":"function","name":"getCurrentBlockTimestamp","inputs":[],"outputs":[{"name":"timestamp","type":"uint256","internalType":"uint256"}],"stateMutability":"view"},{"type":"function","name":"getEthBalance","inputs":[{"name":"addr","type":"address","internalType":"address"}],"outputs":[{"name":"balance","type":"uint256","internalType":"uint256"}],"stateMutability":"view"},{"type":"function","name":"getLastBlockHash","inputs":[],"outputs":[{"name":"blockHash","type":"bytes32","internalType":"bytes32"}],"stateMutability":"view"},{"type":"function","name":"tryAggregate","inputs":[{"name":"requireSuccess","type":"bool","internalType":"bool"},{"name":"calls","type":"tuple[]","internalType":"struct Multicall.Call[]","components":[{"name":"target","type":"address","internalType":"address"},{"name":"callData","type":"bytes","internalType":"bytes"}]}],"outputs":[{"name":"returnData","type":"tuple[]","internalType":"struct Multicall.Result[]","components":[{"name":"success","type":"bool","internalType":"bool"},{"name":"returnData","type":"bytes","internalType":"bytes"}]}],"stateMutability":"nonpayable"},{"type":"function","name":"tryBlockAndAggregate","inputs":[{"name":"requireSuccess","type":"bool","internalType":"bool"},{"name":"calls","type":"tuple[]","internalType":"struct Multicall.Call[]","components":[{"name":"target","type":"address","internalType":"address"},{"name":"callData","type":"bytes","internalType":"bytes"}]}],"outputs":[{"name":"blockNumber","type":"uint256","internalType":"uint256"},{"name":"blockHash","type":"bytes32","internalType":"bytes32"},{"name":"returnData","type":"tuple[]","internalType":"struct Multicall.Result[]","components":[{"name":"success","type":"bool","internalType":"bool"},{"name":"returnData","type":"bytes","internalType":"bytes"}]}],"stateMutability":"nonpayable"}],"bytecode":{"object":"0x608060405234801561001057600080fd5b506109c9806100206000396000f3fe608060405234801561001057600080fd5b50600436106100b45760003560e01c806372425d9d1161007157806372425d9d1461013a57806386d516e814610140578063a8b0574e14610146578063bce38bd714610154578063c3077fa914610174578063ee82ac5e1461018757600080fd5b80630f28c97d146100b9578063252dba42146100ce57806327e86d6e146100ef578063399542e9146100f757806342cbb15c146101195780634d2301cc1461011f575b600080fd5b425b6040519081526020015b60405180910390f35b6100e16100dc3660046106e0565b610199565b6040516100c5929190610779565b6100bb610321565b61010a6101053660046107e3565b610334565b6040516100c5939291906108a3565b436100bb565b6100bb61012d3660046108cb565b6001600160a01b03163190565b446100bb565b456100bb565b6040514181526020016100c5565b6101676101623660046107e3565b61034c565b6040516100c591906108ed565b61010a6101823660046106e0565b6104fc565b6100bb610195366004610900565b4090565b8051439060609067ffffffffffffffff8111156101b8576101b8610519565b6040519080825280602002602001820160405280156101eb57816020015b60608152602001906001900390816101d65790505b50905060005b835181101561031b5760008085838151811061020f5761020f610919565b6020026020010151600001516001600160a01b031686848151811061023657610236610919565b60200260200101516020015160405161024f919061092f565b6000604051808303816000865af19150503d806000811461028c576040519150601f19603f3d011682016040523d82523d6000602084013e610291565b606091505b5091509150816102e85760405162461bcd60e51b815260206004820181905260248201527f4d756c746963616c6c206167677265676174653a2063616c6c206661696c656460448201526064015b60405180910390fd5b808484815181106102fb576102fb610919565b60200260200101819052505050808061031390610961565b9150506101f1565b50915091565b600061032e60014361097c565b40905090565b4380406060610343858561034c565b90509250925092565b6060815167ffffffffffffffff81111561036857610368610519565b6040519080825280602002602001820160405280156103ae57816020015b6040805180820190915260008152606060208201528152602001906001900390816103865790505b50905060005b82518110156104f5576000808483815181106103d2576103d2610919565b6020026020010151600001516001600160a01b03168584815181106103f9576103f9610919565b602002602001015160200151604051610412919061092f565b6000604051808303816000865af19150503d806000811461044f576040519150601f19603f3d011682016040523d82523d6000602084013e610454565b606091505b509150915085156104ac57816104ac5760405162461bcd60e51b815260206004820181905260248201527f4d756c746963616c6c206167677265676174653a2063616c6c206661696c656460448201526064016102df565b60405180604001604052808315158152602001828152508484815181106104d5576104d5610919565b6020026020010181905250505080806104ed90610961565b9150506103b4565b5092915050565b600080606061050c600185610334565b9196909550909350915050565b634e487b7160e01b600052604160045260246000fd5b6040805190810167ffffffffffffffff8111828210171561055257610552610519565b60405290565b604051601f8201601f1916810167ffffffffffffffff8111828210171561058157610581610519565b604052919050565b80356001600160a01b03811681146105a057600080fd5b919050565b6000601f83818401126105b757600080fd5b8235602067ffffffffffffffff808311156105d4576105d4610519565b8260051b6105e3838201610558565b93845286810183019383810190898611156105fd57600080fd5b84890192505b858310156106d35782358481111561061b5760008081fd5b89016040601f19828d0381018213156106345760008081fd5b61063c61052f565b610647898501610589565b8152828401358881111561065b5760008081fd5b8085019450508d603f8501126106715760008081fd5b888401358881111561068557610685610519565b6106948a848e84011601610558565b92508083528e848287010111156106ab5760008081fd5b808486018b85013760009083018a015280890191909152845250509184019190840190610603565b9998505050505050505050565b6000602082840312156106f257600080fd5b813567ffffffffffffffff81111561070957600080fd5b610715848285016105a5565b949350505050565b60005b83811015610738578181015183820152602001610720565b83811115610747576000848401525b50505050565b6000815180845261076581602086016020860161071d565b601f01601f19169290920160200192915050565b600060408201848352602060408185015281855180845260608601915060608160051b870101935082870160005b828110156107d557605f198887030184526107c386835161074d565b955092840192908401906001016107a7565b509398975050505050505050565b600080604083850312156107f657600080fd5b8235801515811461080657600080fd5b9150602083013567ffffffffffffffff81111561082257600080fd5b61082e858286016105a5565b9150509250929050565b600081518084526020808501808196508360051b8101915082860160005b85811015610896578284038952815180511515855285015160408686018190526108828187018361074d565b9a87019a9550505090840190600101610856565b5091979650505050505050565b8381528260208201526060604082015260006108c26060830184610838565b95945050505050565b6000602082840312156108dd57600080fd5b6108e682610589565b9392505050565b6020815260006108e66020830184610838565b60006020828403121561091257600080fd5b5035919050565b634e487b7160e01b600052603260045260246000fd5b6000825161094181846020870161071d565b9190910192915050565b634e487b7160e01b600052601160045260246000fd5b60006000198214156109755761097561094b565b5060010190565b60008282101561098e5761098e61094b565b50039056fea26469706673582212204c22ff3afead1beb77e5dd6531cd02d17a9f433128989ec25d20a7960a4c6d7e64736f6c63430008090033","linkReferences":{}},"methodIdentifiers":{"aggregate((address,bytes)[])":"252dba42","blockAndAggregate((address,bytes)[])":"c3077fa9","getBlockHash(uint256)":"ee82ac5e","getBlockNumber()":"42cbb15c","getCurrentBlockCoinbase()":"a8b0574e","getCurrentBlockDifficulty()":"72425d9d","getCurrentBlockGasLimit()":"86d516e8","getCurrentBlockTimestamp()":"0f28c97d","getEthBalance(address)":"4d2301cc","getLastBlockHash()":"27e86d6e","tryAggregate(bool,(address,bytes)[])":"bce38bd7","tryBlockAndAggregate(bool,(address,bytes)[])":"399542e9"},"id":36}