{"abi":[{"type":"constructor","inputs":[{"name":"_dealer","type":"address","internalType":"address"},{"name":"_operator","type":"address","internalType":"address"}],"stateMutability":"nonpayable"},{"type":"function","name":"getDegenSubaccount","inputs":[{"name":"master","type":"address","internalType":"address"},{"name":"index","type":"uint256","internalType":"uint256"}],"outputs":[{"name":"","type":"address","internalType":"address"}],"stateMutability":"view"},{"type":"function","name":"getDegenSubaccounts","inputs":[{"name":"master","type":"address","internalType":"address"}],"outputs":[{"name":"","type":"address[]","internalType":"address[]"}],"stateMutability":"view"},{"type":"function","name":"newSubaccount","inputs":[],"outputs":[{"name":"subaccount","type":"address","internalType":"address"}],"stateMutability":"nonpayable"},{"type":"event","name":"NewDegenSubaccount","inputs":[{"name":"master","type":"address","indexed":true,"internalType":"address"},{"name":"subaccountIndex","type":"uint256","indexed":false,"internalType":"uint256"},{"name":"subaccountAddress","type":"address","indexed":false,"internalType":"address"}],"anonymous":false}],"bytecode":{"object":"0x60e060405234801561001057600080fd5b50604051611a69380380611a6983398101604081905261002f91610104565b60405161003b906100db565b604051809103906000f080158015610057573d6000803e3d6000fd5b506001600160a01b03908116608081905283821660a081905291831660c081905260405163184b955960e01b8152306004820152602481019390935260448301529063184b955990606401600060405180830381600087803b1580156100bc57600080fd5b505af11580156100d0573d6000803e3d6000fd5b505050505050610137565b611483806105e683390190565b80516001600160a01b03811681146100ff57600080fd5b919050565b6000806040838503121561011757600080fd5b610120836100e8565b915061012e602084016100e8565b90509250929050565b60805160a05160c05161048061016660003960006101cc015260006101a40152600061016301526104806000f3fe608060405234801561001057600080fd5b50600436106100415760003560e01c80634196428b1461004657806391c1cb571461006f578063e6a8a6a01461009a575b600080fd5b610059610054366004610376565b6100a2565b6040516100669190610398565b60405180910390f35b61008261007d3660046103e5565b610116565b6040516001600160a01b039091168152602001610066565b61008261015c565b6001600160a01b0381166000908152602081815260409182902080548351818402810184019094528084526060939283018282801561010a57602002820191906000526020600020905b81546001600160a01b031681526001909101906020018083116100ec575b50505050509050919050565b6001600160a01b03821660009081526020819052604081208054839081106101405761014061040f565b6000918252602090912001546001600160a01b03169392505050565b60006101877f00000000000000000000000000000000000000000000000000000000000000006102c1565b60405163184b955960e01b81523360048201526001600160a01b037f0000000000000000000000000000000000000000000000000000000000000000811660248301527f0000000000000000000000000000000000000000000000000000000000000000811660448301529192509082169063184b955990606401600060405180830381600087803b15801561021c57600080fd5b505af1158015610230573d6000803e3d6000fd5b50503360008181526020818152604082208054600180820183558285529284200180546001600160a01b0319166001600160a01b0389161790559183905290549193507f1ab0a83388404219c996402a4fd89d0cc44720ae100a6bd45873b38ebf671b12925061029f91610425565b604080519182526001600160a01b03851660208301520160405180910390a290565b6000763d602d80600a3d3981f3363d3d373d3d3d363d730000008260601b60e81c176000526e5af43d82803e903d91602b57fd5bf38260781b17602052603760096000f090506001600160a01b03811661035a5760405162461bcd60e51b8152602060048201526016602482015275115490cc4c4d8dce8818dc99585d194819985a5b195960521b604482015260640160405180910390fd5b919050565b80356001600160a01b038116811461035a57600080fd5b60006020828403121561038857600080fd5b6103918261035f565b9392505050565b6020808252825182820181905260009190848201906040850190845b818110156103d95783516001600160a01b0316835292840192918401916001016103b4565b50909695505050505050565b600080604083850312156103f857600080fd5b6104018361035f565b946020939093013593505050565b634e487b7160e01b600052603260045260246000fd5b60008282101561044557634e487b7160e01b600052601160045260246000fd5b50039056fea2646970667358221220d8b32d27fb87642b491bd439abd01939c9a65b2f98059b512047cf5b4f594ec664736f6c63430008090033608060405234801561001057600080fd5b50611463806100206000396000f3fe608060405234801561001057600080fd5b50600436106100b35760003560e01c8063354e7fa411610071578063354e7fa4146101575780633f4cfffc1461015f578063558a7297146101725780635b684907146101855780638da5cb5b146101985780639de2ee21146101c357600080fd5b8062e38066146100b85780630bbc3ff4146100cd578063158ef93e146100e0578063184b9559146101095780631e1f42d31461011c57806321ff22d61461012f575b600080fd5b6100cb6100c6366004610d60565b6101d6565b005b6100cb6100db366004610d91565b610277565b6000546100f490600160a01b900460ff1681565b60405190151581526020015b60405180910390f35b6100cb610117366004610dbd565b610310565b6100cb61012a366004610e16565b610472565b61014261013d366004610e4f565b61054e565b60408051928352602083019190915201610100565b6100cb6109af565b6100cb61016d366004610d60565b610a57565b6100cb610180366004610e16565b610aed565b6100cb610193366004610e6c565b610bc8565b6000546101ab906001600160a01b031681565b6040516001600160a01b039091168152602001610100565b6002546101ab906001600160a01b031681565b6001546001600160a01b031633146102095760405162461bcd60e51b815260040161020090610ea3565b60405180910390fd5b600254604051631d15fca760e11b815230600482015260006024820152604481018390526001600160a01b0390911690633a2bf94e90606401600060405180830381600087803b15801561025c57600080fd5b505af1158015610270573d6000803e3d6000fd5b5050505050565b6001546001600160a01b031633146102a15760405162461bcd60e51b815260040161020090610ea3565b600254604051633688ad1b60e21b81526001600160a01b039091169063da22b46c906102da903090869060009087908290600401610eec565b600060405180830381600087803b1580156102f457600080fd5b505af1158015610308573d6000803e3d6000fd5b505050505050565b600054600160a01b900460ff16156103605760405162461bcd60e51b815260206004820152601360248201527210531491505116481253925512505312569151606a1b6044820152606401610200565b600080546001600160a01b038581166001600160a81b031990921691909117600160a01b17909155600280548483166001600160a01b0319918216811790925560018054938516939091168317815560405163558a729760e01b8152600481019390935260248301529063558a729790604401600060405180830381600087803b1580156103ed57600080fd5b505af1158015610401573d6000803e3d6000fd5b505060025460005460405163558a729760e01b81526001600160a01b039182166004820152600160248201529116925063558a72979150604401600060405180830381600087803b15801561045557600080fd5b505af1158015610469573d6000803e3d6000fd5b50505050505050565b6000546001600160a01b0316331461049c5760405162461bcd60e51b815260040161020090610f2c565b6000806104a83061054e565b91509150818111156104cc5760405162461bcd60e51b815260040161020090610f61565b600254604051630bd26dd560e11b81523060048201526001600160a01b03868116602483015285151560448301526080606483015260006084830152909116906317a4dbaa9060a4015b600060405180830381600087803b15801561053057600080fd5b505af1158015610544573d6000803e3d6000fd5b5050505050505050565b60025460405163325eacc360e21b81523060048201526000918291829182916001600160a01b039091169063c97ab30c9060240160a06040518083038186803b15801561059a57600080fd5b505afa1580156105ae573d6000803e3d6000fd5b505050506040513d601f19601f820116820180604052508101906105d29190610f98565b5050600254604051631f75a98760e11b81526001600160a01b038a811660048301529496509194506000938493508392911690633eeb530e9060240160006040518083038186803b15801561062657600080fd5b505afa15801561063a573d6000803e3d6000fd5b505050506040513d6000823e601f3d908101601f191682016040526106629190810190611058565b905060005b81518110156108c1576000808383815181106106855761068561110a565b60209081029190910101516040516370a0823160e01b81526001600160a01b038d81166004830152909116906370a0823190602401604080518083038186803b1580156106d157600080fd5b505afa1580156106e5573d6000803e3d6000fd5b505050506040513d601f19601f820116820180604052508101906107099190611120565b915091506000600260009054906101000a90046001600160a01b03166001600160a01b0316634f33cb538686815181106107455761074561110a565b60200260200101516040518263ffffffff1660e01b815260040161077891906001600160a01b0391909116815260200190565b60006040518083038186803b15801561079057600080fd5b505afa1580156107a4573d6000803e3d6000fd5b505050506040513d6000823e601f3d908101601f191682016040526107cc91908101906111db565b9050600061084d82608001516001600160a01b031663604096326040518163ffffffff1660e01b815260040160206040518083038186803b15801561081057600080fd5b505afa158015610824573d6000803e3d6000fd5b505050506040513d601f19601f820116820180604052508101906108489190611292565b610c59565b9050670de0b6b3a764000061086a6108658684610cc7565b610ced565b61087b90662386f26fc100006112c1565b61088591906112f6565b61088f908961130a565b97508261089c8583610cc7565b6108a69190611322565b6108b09088611322565b965084600101945050505050610667565b5060006108ce8684611322565b9050600081136109205760405162461bcd60e51b815260206004820152601760248201527f6e657456616c7565206973206c657373207468616e20300000000000000000006044820152606401610200565b8361092a82610d0e565b10156109895760405162461bcd60e51b815260206004820152602860248201527f6e657456616c7565206973206c657373207468616e206d61696e74656e616e63604482015267329036b0b933b4b760c11b6064820152608401610200565b60008461099583610d0e565b61099f9190611363565b9a95995094975050505050505050565b6001546001600160a01b031633146109d95760405162461bcd60e51b815260040161020090610ea3565b600254600154604051630bd26dd560e11b81523060048201526001600160a01b0391821660248201526000604482018190526080606483015260848201529116906317a4dbaa9060a401600060405180830381600087803b158015610a3d57600080fd5b505af1158015610a51573d6000803e3d6000fd5b50505050565b6000546001600160a01b03163314610a815760405162461bcd60e51b815260040161020090610f2c565b6000610a8c3061054e565b50905080821115610aaf5760405162461bcd60e51b815260040161020090610f61565b600254604051631d15fca760e11b815230600482015260248101849052600060448201526001600160a01b0390911690633a2bf94e906064016102da565b6000546001600160a01b03163314610b175760405162461bcd60e51b815260040161020090610f2c565b6001546001600160a01b0383811691161415610b8e57600181151514610b8e5760405162461bcd60e51b815260206004820152602660248201527f63616e206e6f742075706461746520676c6f62616c4f70657261746f7220746f6044820152652066616c736560d01b6064820152608401610200565b60025460405163558a729760e01b81526001600160a01b03848116600483015283151560248301529091169063558a7297906044016102da565b6000546001600160a01b03163314610bf25760405162461bcd60e51b815260040161020090610f2c565b6000610bfd3061054e565b50905080841115610c205760405162461bcd60e51b815260040161020090610f61565b600254604051633688ad1b60e21b81526001600160a01b039091169063da22b46c90610516903090879089906000908990600401610eec565b60006001600160ff1b03821115610cc35760405162461bcd60e51b815260206004820152602860248201527f53616665436173743a2076616c756520646f65736e27742066697420696e2061604482015267371034b73a191a9b60c11b6064820152608401610200565b5090565b6000670de0b6b3a7640000610cdc838561137a565b610ce691906113ff565b9392505050565b6000808212610cfc5781610d08565b610d088260001961137a565b92915050565b600080821215610cc35760405162461bcd60e51b815260206004820181905260248201527f53616665436173743a2076616c7565206d75737420626520706f7369746976656044820152606401610200565b600060208284031215610d7257600080fd5b5035919050565b6001600160a01b0381168114610d8e57600080fd5b50565b60008060408385031215610da457600080fd5b8235610daf81610d79565b946020939093013593505050565b600080600060608486031215610dd257600080fd5b8335610ddd81610d79565b92506020840135610ded81610d79565b91506040840135610dfd81610d79565b809150509250925092565b8015158114610d8e57600080fd5b60008060408385031215610e2957600080fd5b8235610e3481610d79565b91506020830135610e4481610e08565b809150509250929050565b600060208284031215610e6157600080fd5b8135610ce681610d79565b600080600060608486031215610e8157600080fd5b833592506020840135610e9381610d79565b91506040840135610dfd81610e08565b60208082526029908201527f4f776e61626c653a2063616c6c6572206973206e6f742074686520676c6f62616040820152683627b832b930ba37b960b91b606082015260800190565b6001600160a01b03958616815293909416602084015260408301919091526060820152901515608082015260c060a0820181905260009082015260e00190565b6020808252818101527f4f776e61626c653a2063616c6c6572206973206e6f7420746865206f776e6572604082015260600190565b6020808252601a908201527f776974686472617720616d6f756e7420697320746f6f20626967000000000000604082015260600190565b600080600080600060a08688031215610fb057600080fd5b5050835160208501516040860151606087015160809097015192989197509594509092509050565b634e487b7160e01b600052604160045260246000fd5b60405160e0810167ffffffffffffffff8111828210171561101157611011610fd8565b60405290565b604051601f8201601f1916810167ffffffffffffffff8111828210171561104057611040610fd8565b604052919050565b805161105381610d79565b919050565b6000602080838503121561106b57600080fd5b825167ffffffffffffffff8082111561108357600080fd5b818501915085601f83011261109757600080fd5b8151818111156110a9576110a9610fd8565b8060051b91506110ba848301611017565b81815291830184019184810190888411156110d457600080fd5b938501935b838510156110fe57845192506110ee83610d79565b82825293850193908501906110d9565b98975050505050505050565b634e487b7160e01b600052603260045260246000fd5b6000806040838503121561113357600080fd5b505080516020909101519092909150565b600082601f83011261115557600080fd5b815167ffffffffffffffff81111561116f5761116f610fd8565b6020611183601f8301601f19168201611017565b828152858284870101111561119757600080fd5b60005b838110156111b557858101830151828201840152820161119a565b838111156111c65760008385840101525b5095945050505050565b805161105381610e08565b6000602082840312156111ed57600080fd5b815167ffffffffffffffff8082111561120557600080fd5b9083019060e0828603121561121957600080fd5b611221610fee565b8251815260208301516020820152604083015160408201526060830151606082015261124f60808401611048565b608082015260a08301518281111561126657600080fd5b61127287828601611144565b60a08301525061128460c084016111d0565b60c082015295945050505050565b6000602082840312156112a457600080fd5b5051919050565b634e487b7160e01b600052601160045260246000fd5b60008160001904831182151516156112db576112db6112ab565b500290565b634e487b7160e01b600052601260045260246000fd5b600082611305576113056112e0565b500490565b6000821982111561131d5761131d6112ab565b500190565b600080821280156001600160ff1b0384900385131615611344576113446112ab565b600160ff1b839003841281161561135d5761135d6112ab565b50500190565b600082821015611375576113756112ab565b500390565b60006001600160ff1b03818413828413808216868404861116156113a0576113a06112ab565b600160ff1b60008712828116878305891216156113bf576113bf6112ab565b600087129250878205871284841616156113db576113db6112ab565b878505871281841616156113f1576113f16112ab565b505050929093029392505050565b60008261140e5761140e6112e0565b600160ff1b821460001984141615611428576114286112ab565b50059056fea2646970667358221220f4ec67973aa701e719e96a7cd6a079b031d5eb150e02d64994f0c50888ab686e64736f6c63430008090033","linkReferences":{}},"methodIdentifiers":{"getDegenSubaccount(address,uint256)":"91c1cb57","getDegenSubaccounts(address)":"4196428b","newSubaccount()":"e6a8a6a0"},"id":29}